:100000000C94E1020C9419030C9419030C94190339
:100010000C9419030C9419030C9419030C941903F0
:100020000C9419030C9419030C94932A0C94672BC9
:100030000C9418250C9419030C9419030C941903AF
:100040000C9419030C9419030C9419030C941903C0
:100050000C9419030C949F250C9419030C94190308
:100060000C9419030C9419030C9419030C941903A0
:100070000C9419030C9419030C9419030C94190390
:100080000C9419030C9419030C9419030C94190380
:100090000C9419030C9419030C9419030C94190370
:1000A0000C9419030C9419030C9419031E001F00DF
:1000B0002000210022002300240025002600270024
:1000C0002D003800167C14001A00080015001700D7
:1000D0001C0018000C00120013002A002B41040021
:1000E0001600070009000A000B000D000E000F00AB
:1000F000330028411A7C1D001B0006001900050072
:10010000110010003600370052001B7CE000E300B5
:10011000E2004C42284200002C0000003400500055
:1001200051004F003A003B003C003D003E003F00C4
:1001300040004100420043004400380029001E00F6
:100140001F0020002100220023002400250026009B
:1001500027002A0001003A003B003C003D003E0021
:1001600031022D002E00000031000100E1003F00AF
:1001700040004100420043002F00300036003700AD
:100180004B00E500E000E300E20001000100000098
:100190002C00000034004A004E004D001E021F02D9
:1001A0002002210222022302240225022602270223
:1001B000007C310229001E021F02200221022202BD
:1001C000230224022502260227022A002B00000017
:1001D000000000000000000031002D022E0200008F
:1001E00000002800E1000000000000000000000006
:1001F0002F02300236003700A900E500E000E300DE
:10020000E2000100010000002C00000034004A0060
:10021000AA004D00FD377A585A000004E6D6B446CD
:100220000200210116000000742FE5A3E002AE01D8
:100230002B5D003D888986D3DC0AE8510E4835F4F1
:10024000313E9685F1D1A89D246140DCFCA1538804
:100250003E6C851099263FF97075F1BCFC73A04B7C
:10026000CC50B2AC1825D0DB84205DE4DEFAF26617
:100270004DD0ED21CDC7AB100C0D2A9713150E35BF
:1002800086FBAE9FB28289F189F0F8B94EA838AAF0
:100290002750B298B7E4207BDCC59134CE433AF8BE
:1002A000750C0AB41E62C3169BAC31641D31236EFB
:1002B0008AEDE66E4BD3222D12F476BC6C58BCC886
:1002C00047203AB264779171A444FCC7B61B266AF2
:1002D000169DEA3E0030A517FF02E8628203196608
:1002E000C89D8D9048F2366E66128100B0FA58D1E2
:1002F000F2FE147BB2279E8B795586044456FD543A
:100300004FFD7E95735EEC2972BB34BE84FDE32BFA
:10031000A5532FD01C899F3C5B0BB34D74DA4EA1C3
:10032000E9F1D895D02D8351DF4F5F6946AB8E1729
:1003300098ACE0DC3D0263A592E74FA7A1659589E3
:1003400092F2A16491992D1B095D0AEC4D7D593BF8
:10035000600D446B55B13F9B02A801760D52000021
:1003600059FB12888E3CB8150001C702AF0500008A
:100370000962BBA6B1C467FB020000000004595A21
:1003800000000000000000002A2B280000000000F0
:100390000000000000000000000000290000000034
:1003A0002C1E3420212224342627252E362D3738A2
:1003B000271E1F202122232425263333362E3738AB
:1003C0001F0405060708090A0B0C0D0E0F10111269
:1003D000131415161718191A1B1C1D2F3130232D35
:1003E000350405060708090A0B0C0D0E0F10111233
:1003F000131415161718191A1B1C1D2F3130354CE4
:1004000000000000000000000000000000000000EC
:1004100000000000000000000000000000000000DC
:10042000000000007E0F00D4FFFFFFC7000000782F
:100430001C037600690061006C003A00660036001B
:1004400034006300320062003300630000000C03DC
:1004500073006C007A003400300000001203530077
:100460006900740068004C006F00720064000000B6
:100470000403090409025B00030100A0FA09040057
:1004800000010301010009211101000122440007BC
:1004900005810308000109040100020300000009AE
:1004A000211101000122220007058203200001071B
:1004B00005030320000109040200010300000009F4
:1004C0002111010001227B00070584032000011295
:1004D00001000200000008EDFE000001000102031F
:1004E000010660FF0961A1010962150026FF009560
:1004F00020750881020963150026FF009520750804
:100500009102C005010902A10185020901A10005AE
:1005100009190129081500250195087501810205B1
:1005200001093009311581257F9502750881060979
:10053000381581257F950175088106050C0A38025A
:100540001581257F950175088106C0C005010980C8
:10055000A101850319012AB700150126B7009501ED
:1005600075108100C0050C0901A101850419012A3B
:10057000A002150126A002950175108100C0050199
:100580000906A101050719E029E7150025019508CD
:10059000750181029501750881010507190029FF80
:1005A000150026FF00950675088100050819012928
:1005B00005150025019505750191029501750391B9
:1005C00001C011241FBECFEFDAE0DEBFCDBF04B6FD
:1005D00003FE18C08091AE039091AF03A091B003C9
:1005E000B091B1038730904BA740B04B59F41092B3
:1005F000AE031092AF031092B0031092B103E0E08B
:10060000F8E3099511E0A0E0B1E0E2EBFCE502C0FF
:1006100005900D92A43BB107D9F723E0A4EBB1E01C
:1006200001C01D92AE3AB207E1F70E944D140C943E
:100630000A2E0C9400008330B8F46530A8F44C30D6
:1006400098F450E09CE0699F400D511D1124FA017F
:100650009CE3899FE00DF11D1124EE0FFF1FE4556F
:10066000FF4F85919491089581E090E008959C0159
:100670003A9521153F4150F5FC01EE27F170BC0180
:1006800066277270AC01442754709C012227387091
:1006900094FF0EC080E1EF2B09F480E0672B09F096
:1006A0008062452B09F08064232B89F080680895CF
:1006B00081E0EF2B09F480E0672B09F08260452B85
:1006C00009F08460232B19F08860089580E0089574
:1006D000CF93DF93EB010E943703FE010995DF9171
:1006E000CF910895CF93DF93EC01805E9109089735
:1006F00020F067EC78E0209711F46FE576E0CE010A
:100700000E9468038C2F0E945605DF91CF910895B7
:10071000CF93DF93EC010E94E405CE01805E910946
:10072000089720F06EEC78E0209711F466E676E00A
:10073000CE010E946803DF91CF91089581E0089572
:100740000E949E03089581E008950E949E030895EB
:100750000E94A503089508950E94AB030895A6E0A2
:10076000B0E0E5EBF3E00C943E2D49835A839E8381
:100770003091BB0189819A8131111AC03E813323A6
:1007800099F0222389F00E941A0A182F682F898174
:100790009A810E94F60969817A81812F0E94CC1189
:1007A0002696E3E00C945A2D0E94080A182FF3CFE6
:1007B0000E941A0A69817A81F1CFFC01262F878174
:1007C0009085009741F440815181628173818481D9
:1007D00095810E94AF0308950F931F93CF93DF93EA
:1007E000EC0161E00E94DD038C01BE010E94A003C8
:1007F000882351F0BE01C8010E944C188170DF911E
:10080000CF911F910F91089580E0F8CFCF93DF93A0
:10081000EC0160E00E94DD03BE010E94AC03DF91A9
:10082000CF91089581E008950E9412040895CF9316
:10083000C82F0E94EB088C2F0E9414042FEF84E332
:100840009CE0215080409040E1F700C00000CF9133
:10085000089581E00E9417040E94C325089580E056
:100860000E9417040E94E72508950F931F93CF93CA
:10087000DF93EC018B010E948C22811106C080E085
:10088000DF91CF911F910F910895B801CE010E9481
:1008900076168823A1F3B801CE010E94A80388230D
:1008A00071F3B801CE010E949A21882341F3B80167
:1008B000CE010E94B11C882311F3B801CE010E9421
:1008C000871C8823E1F2B801CE010E94DE21882333
:1008D000B1F2F8018581882361F0C330FCE7DF07BE
:1008E000E9F058F4C115ECE7DE07A9F0C130DC47A8
:1008F000B9F0C8010E94A303C3CFCB358CE7D8075A
:10090000A9F0CC35ECE7DE0771F0CA35DC4789F792
:100910000E94F80EEECF0E942904B1CF0E94000F72
:100920000E942F04ACCF0E94EE0EE3CF0E94FC0E7B
:10093000E0CFCF93DF93EC0161E00E94DD03BE01C5
:100940000E943504DF91CF9108950E94F4240E9403
:10095000DD0408950E94E1040E94F9240895982F6F
:1009600092959F7011F0892F94E0282F2695269557
:1009700011F09E5F822F869509F09F5F892F089561
:10098000089581E008950895CF93DF93D82F0E94B2
:10099000C104C82F882319F08D2F0E94C3048C2F07
:1009A000DF91CF9108950895CF93C82F0E94C0047E
:1009B0008C2F0E94C404CF91089580E00E94D4043B
:1009C00008950E94C7230E94D4040895CF930E94E3
:1009D000C723C82F8091B6018C1779F0C093B60158
:1009E0000E9484256093B7017093B8018093B90188
:1009F0009093BA018C2F0E94D404CF910895AFE058
:100A0000B0E0E5E0F5E00C943D2D4A875B876C870C
:100A10007D878E879F8791110E94F50D1F82188612
:100A2000198686E0FE013A96DE01119601900D923C
:100A30008A95E1F78091360382FF0CC00E94B80DC1
:100A4000882319F082E00E94C20E0E949F0D81113E
:100A50000E94480E8D8181110FC009811A812B815E
:100A60003C814D815E816F81788589850E94130D5F
:100A70002F96E4E00C94592DCE0101960E94EC03D0
:100A80008111EBCFF5CFFC012481213021F480814D
:100A900091810E94470A0895662329F00E94121E40
:100AA0000E94F71E08950E947E1EFACFCF93C82F92
:100AB0008823C9F08238C9F40E94D42381FD13C071
:100AC00089E30E948A240E94930E2FEF87EE93E021
:100AD000215080409040E1F700C0000089E30E946F
:100AE00092240E94930ECF9108958338A1F40E941E
:100AF000D42380FDF8CF83E50E948A240E94930EC0
:100B00002FEF81EE94E0215080409040E1F700C04B
:100B1000000083E5E4CF8438A1F40E94D42382FD51
:100B2000E2CF87E40E948A240E94930E2FEF81EE89
:100B300094E0215080409040E1F700C0000087E43D
:100B4000CECF8CEF8C0F813A70F48C2F0E944F2403
:100B5000882329F08C2F0E9492240E94930E8C2FC0
:100B60000E948A24BECF80E28C0F883048F4C77080
:100B700081E001C0880FCA95EAF70E94D80DB1CF75
:100B8000EBE5EC0FE33040F4F0E0E95AFE4F8081F2
:100B900090E00E94F023A7CFE8E5EC0FEB3150F492
:100BA000F0E0EE0FFF1FEF5DFE4F808191810E940C
:100BB000152499CF83E38C0F833108F094CF61E043
:100BC0008C2F0E944C058FCF882309F456C08238A1
:100BD00079F40E94D42381FF50C089E30E948A24C3
:100BE0000E94930E89E30E9492240E94930E08951E
:100BF000833859F40E94D42380FF3FC083E50E94CC
:100C00008A240E94930E83E5EECF843859F40E9423
:100C1000D42382FF32C087E40E948A240E94930E6C
:100C200087E4E1CF9CEF980F913AE8F290E2980FB9
:100C3000983050F4877091E001C0990F8A95EAF7D7
:100C4000892F0E94DE0DD1CF9BE5980F933028F4B9
:100C500090E080E00E94F023089598E5980F9B3182
:100C600028F490E080E00E941524089593E3980F03
:100C7000933118F460E00E944C0508951F93CF93C0
:100C8000DF93182FEB010E945605209739F4812F2E
:100C90000E94E405DF91CF911F9108958FE99FE0B5
:100CA0000197F1F700C000002197EFCF70E060E0FE
:100CB000893311F460E570E00E943E0608958823B0
:100CC00021F00E94D80D0E94930E0895882321F0F0
:100CD0000E94DE0D0E94930E0895B0E0A0E0E3E7CD
:100CE000F6E00C94382D6C01D62FC72FFC0105813E
:100CF000F680F2949FE0F9220E94CE0DE82E882320
:100D0000F9F0E02E0023E1F08C2F807F803461F039
:100D100080E28D0F883010F18C2F807E803221F49C
:100D2000D230E0F0FF20D1F08091360382FF16C070
:100D300082E00E94C20E0E94CE0D91E0E82EE926CC
:100D4000BC2EB2948FE0B822FBE0FB1508F460C023
:100D5000EB2DF0E0E45FF14D0C94222DE12CF0CF6F
:100D60001C2F1F70C07F11F01295107F002399F087
:100D7000112359F080E28D0F883010F0D11107C097
:100D8000812F0E94D80D0E94930E8D2F39C0812F84
:100D90000E94E80DF8CF8D2F0E94E4051123C1F1C8
:100DA00080E28D0F883010F0D11104C0812F0E9495
:100DB000DE0D03C0812F0E94EE0D0E94930E28C00D
:100DC0001C2F1F70C07FC03211F01295107FDD23E1
:100DD00049F0D13009F46EC0002309F47AC0FF2035
:100DE000E1F1D3CF8091360382FD33C0002359F067
:100DF000112329F0812F0E94D80D0E94930E80E0CC
:100E00000E94560505C080E00E94E4051111CECF76
:100E1000EB2DE850FF0B349720F40E94C7230E946B
:100E2000D404EE2089F00E94B40D80FD0DC0F601BF
:100E300015820E94AE0D0E946A09C6010E94A40894
:100E40000E94AE0D0E947609CDB7DEB7E9E00C94A2
:100E5000542D0023D1F0F11004C0812F0E945F06B1
:100E6000D7CF21E0F21204C0812F0E94180ED0CFFC
:100E700035E0F312CDCF812F0E945F06812F0E94B3
:100E80002F0E812F0E94FC0DC3CFF1100AC0812FBD
:100E90000E946606812F0E942F0E812F0E94080E4D
:100EA000B7CF81E0F812B4CF0E94D50D812309F4A9
:100EB000AFCFEDCF002329F095E09F1508F4A8CF20
:100EC000CCCFE4E0EF1508F4A3CF812F0E94660693
:100ED0009FCFFF20D1F3D93349F4FFEF27EE33E062
:100EE000F15020403040E1F700C000008D2F0E94FB
:100EF000E4058ECF8C2F86958695837069F08130BE
:100F000009F086CF8D2F9C2F9370011102C080E0D5
:100F100090E00E9415247CCF8D2F9C2F937001119F
:100F200002C080E090E00E94F02372CF602F8D2FEE
:100F30000E944C056DCF8C2F837079F5011168CF1D
:100F40004D2F429546954770440F440F8D2F8F705B
:100F5000042E01C0880F0A94EAF72D2F2071D4FFC8
:100F600007C02FE030E001C0220F4A95EAF7209534
:100F7000C695C695C370822BC23049F058F4C13073
:100F800019F00E94460944CF0E94400941CF0E94B7
:100F90004C093ECF0E943D093BCF8695002311F0BE
:100FA0008C2F8170882309F433CF4D2F42954695BD
:100FB0004770440F440F8D2F8F70042E01C0880F8F
:100FC0000A94EAF72D2F2071D4FF07C02FE030E0FC
:100FD00001C0220F4A95EAF72095C695C695C370C1
:100FE000822BC23049F058F4C13019F00E949509A3
:100FF0000FCF0E948F090CCF0E949B0909CF0E943E
:10100000580906CFCF70002329F08C2F0E946A095F
:101010008D2F24CF8D2F0E9466068C2F0E9476097B
:10102000F7CED23F51F160F4D03FB9F0D13F81F01B
:10103000002309F45AC0F110A8CE8C2F8F7121C063
:10104000D33F11F1D43FA1F78091360382FD26C032
:101050008C2F8F71002311F314C0002349F084E01A
:101060008F1508F4D5CE8C2F8F710E948309D0CEB6
:1010700095E09F1508F4CCCEF6CF8C2F8F7101111F
:10108000CDCF0E946A09C4CE002329F08C2F8F7126
:101090000E946109BDCE0E945D09BACE0023C1F055
:1010A0000E94B40D843041F40E94B80E8C2F8F71D1
:1010B0000E947609E12CACCEE4E0EF15D8F3CF71B5
:1010C0008C2F0E946A0963E08C2F0E949A0EF2CF47
:1010D000F4E0FF1530F40E94B80E64E08C2F8F719D
:1010E000F4CF81E00E94C20EE5CFFF2059F0D93342
:1010F00009F0FCCE2FEF37EE83E0215030408040E6
:10110000E1F7F2CE8C2F8F7189CF0F931F93CF937E
:10111000DF93EC018F819885009781F00E94AE10DB
:101120008C010E94A1090E943C09B801CE010E94D5
:101130006D06DF91CF911F910F910895688179819C
:101140008D810E94520AECCFCF93DF93EC018C810A
:10115000882399F0CE010E949904811111C00E9448
:10116000CE0D882351F08D81882339F0809136038C
:1011700082FF03C082E00E94C20EDF91CF910895EA
:10118000CE010E948508CE010E940604F6CF882376
:1011900021F00E94E80D0E94930E0895882321F00B
:1011A0000E94EE0D0E94930E089590E080E00E9450
:1011B000F02390E080E00E9415240E94F50D0E942B
:1011C000930E0E94131F0E94F71E08950E949A24F6
:1011D0000E94D50808950E94E50D0E94E608089532
:1011E00092959F70963091F058F4925F9F70923074
:1011F00058F4803F19F030F4883E30F481E00895CF
:101200009A5FF4CF843FD1F380E00895883EB0F335
:10121000813FD1F7F3CFFC018481882371F087816E
:101220009085009729F00E94AE100E94F008089562
:10123000808191810E94470AF8CF80E00895A6E05E
:10124000B0E0E5E2F9E00C943F2D2696E2E00C9444
:101250005B2DA9E0B0E0EFE2F9E00C943D2D29967A
:10126000E4E00C94592D08950E94330908950E94DA
:1012700034098093D501089508950E94370908958F
:101280009091D501892B0E94370908959091D5013D
:1012900089230E94370908959091D50189270E94DA
:1012A000370908950E94330908950E94520908954C
:1012B0000E9455098093D401089580E00E94580946
:1012C000089591E001C0990F8A95EAF7892F0E944D
:1012D0005809089521E030E001C0220F8A95EAF70D
:1012E0008091D401822B0E945809089521E030E0BA
:1012F00001C0220F8A95EAF720958091D4018223BC
:101300000E945809089521E030E001C0220F8A951B
:10131000EAF78091D40182270E945809089590919C
:10132000D401892B0E94580908959091D4018923F2
:101330000E94580908959091D40189270E94580964
:1013400008950895262F277091E001C0990F2A95DE
:10135000EAF723E0769567952A95E1F7FB01EE0F12
:10136000FF1FE60FF71FE40FF51F50E040E0682F66
:1013700070E08191DF0111979B01042E02C0369528
:1013800027950A94E2F721702195282729232827F9
:101390002C934F5F5F4F4330510559F70895A82FA5
:1013A000A77023E0969587952A95E1F7FC01EE0F4B
:1013B000FF1FE80FF91FE60FF71F50E040E080E045
:1013C000219130E00A2E02C0369527950A94E2F763
:1013D00021703327042E01C0220F0A94EAF7822BD2
:1013E0004F5F5F4F4330510559F70895262F9530D1
:1013F00070F48C3060F4682F70E08CE0989F600D82
:10140000711D11244CEB51E0822F0E94A209089516
:10141000292F953068F48C3058F490E06CEB71E033
:101420003CE0239F800D911D11240E94CF09089557
:1014300080E00895CF92DF92FF920F931F93CF9396
:10144000DF936C010091D4018091D501082BC3E09A
:10145000D0E010E0FC2EC8010C2E02C095958795B7
:101460000A94E2F780FD0CC02197A0F7F12C8F2D94
:10147000DF91CF911F910F91FF90DF90CF90089552
:10148000B6018C2F0E94E711019771F3F0CFCF9333
:10149000DF93EC010E941A0ABE010E94E711DF915E
:1014A000CF9108951F93CF93DF93EB019091BB01F0
:1014B000992339F0CB010E94470ADF91CF911F9108
:1014C0000895882369F0CB010E941A0A182F682F0B
:1014D000CE010E94F609BE01812F0E94E711EDCFD7
:1014E000CB010E94080A182FF6CFE1E0F0E0DF01FF
:1014F00002C0AA0FBB1F6A95E2F7BD01DF0102C05F
:10150000AA0FBB1F4A95E2F76A2B01C0EE0F2A957E
:10151000EAF7962F9823961302C08E2B0895E09534
:101520008E230895242F462F682F8091D4010E9486
:10153000750A0E9458090895FF920F931F93CF9345
:10154000DF93C091D60189E0F82E8091D7018C13EA
:1015500005C0CDB7DEB7E5E00C94582DD0E0FC9E79
:10156000F001FD9EF00D1124E852FE4F0081118123
:1015700022813381448155816681778180850E94F3
:1015800029092196C770E1CF0F931F930091200284
:1015900010912102209122023091230240912402D5
:1015A00050912502609126027091270280912802B5
:1015B0000E9429091F910F910895CF93DF93809185
:1015C0002602807F09F04DC080912502882309F40E
:1015D00048C0E091D6015091D701C0912102D0912D
:1015E0002002609122027091230249E05E17C9F146
:1015F0008E2F90E0E49FF0011124E852FE4F2481E9
:10160000222391F1489FF001499FF00D1124DF0141
:10161000A852BE4F11962C9111972C1325C02C91D6
:101620002D1322C015962C91159721111DC01296CD
:101630002D913C91261B370B283C3105A8F4809155
:1016400026028F70806180932602E252FE4F8081D5
:101650008F708061808380E292E00E94A4080E94E3
:101660009C0ADF91CF910895FC013196E770BECFBF
:10167000482F2091D6019091D70159E0291302C03B
:1016800080E0089530E0529FF001539FF00D112447
:10169000E852FE4F8181681306C08081481303C061
:1016A00085818111EECF2F5F3F4F2770E7CFA8E1F3
:1016B000B0E0EDE5FBE00C94352D8C0186E0F801FF
:1016C000DE01539601900D928A95E1F7F80184812D
:1016D000E58090E2A92E92E0B92E9091240291111A
:1016E0001FC08823D1F0EE20A9F0C8010E940B0989
:1016F000F82E882379F089E0F801D50101900D9248
:101700008A95E1F7C5010E9443050E94DD0A0E9407
:10171000C40A68C0C8010E94A408FF24F39462C0F0
:10172000C080D18082809380F09025022091220297
:1017300030912302A401421B530BFF2009F420C166
:10174000483C510508F0BFC0882309F44BC0909174
:10175000210280912602282F207F09F065C09D116B
:101760001FC090912002C9121BC0409127025091C6
:101770002802278130854217530791F4E1104EC0AB
:101780008F708061809326020E94C40A80E292E0FA
:101790000E94A40880912602F8018683F12C22C0C1
:1017A000E1103CC06D2D8C2D0E94380B6D2D8C2DC1
:1017B0000E94380BE82E8111F1CFCB8ADC8A8B890D
:1017C0009C890E94470A292F22952F70243078F493
:1017D0009F702230A8F09923B9F0F8019681907F8C
:1017E00099F4FE2C8F2D6896ECE00C94512D2A5F15
:1017F0002F70223068F0C8010E94A408EF2CF1CFAE
:10180000992311F0882369F3805E883050F3F3CF79
:10181000803F38F3815F833070F7E3CF80912602F9
:10182000816080932602BACF9D111CC09091200246
:10183000C91218C040912702509128022781308593
:101840004217530779F4E1100DC08683C8010E9446
:10185000A40889E0F801A0E2B2E001900D928A9517
:10186000E1F755CFC8010E940B09882309F452CF34
:10187000EE2009F44FCF809126028032B8F02091FB
:101880002002309121023B872A879D868C86909189
:1018900024029E871F86888B8091270290912802C0
:1018A0009A8B898BCE010A960E94A40889E0F801E0
:1018B000A0E2B2E001900D928A95E1F70E94DD0A64
:1018C0000E94C40A2ACF90912602292F207FA1F4DA
:1018D000682D9E8A8D8AA6017E899E2D0E941F09F1
:1018E00080E292E00E94A40889E0F50111928A95B5
:1018F000E9F70E94C40A52CF882309F473CF80917C
:1019000021028D1119C080912002C81215C040918A
:10191000270250912802278130854217530761F42E
:10192000E1100AC09683C8010E94A40889E0F5016D
:1019300011928A95E9F756CFC8010E940B098823B6
:1019400009F4E8CEEE2009F4E5CE8091260280323B
:1019500008F4ACCF20912002309121023A832983F0
:101960009C828B82909124029D831E828F83809122
:1019700027029091280299878887CE01019694CFFB
:10198000483C510508F041C0882309F4C6CEFE2C1E
:10199000EE2009F4BFCE809121028D1128C08091E4
:1019A0002002C81224C0209127023091280287818A
:1019B000908528173907D9F49091260290FD0EC022
:1019C000907F61F0809126028683903F09F43ECF9C
:1019D000982F907F905F8F70892B37CF89E0F80127
:1019E000A0E2B2E001900D928A95E1F7FBCEC8012A
:1019F0000E940B0981115ACF809126028160809349
:101A00002602C8010E94A408EDCE682D9E8A8D8A08
:101A1000A6017E899E2D0E941F0989E0F501119281
:101A20008A95E9F774CEA2E1B0E0E9E1FDE00C941B
:101A30003C2D0A871B872C873D874E875F87688BE5
:101A4000798B8A8BCE010A960E94570B8823C9F0A6
:101A50004E85442351F00A851B852C853D855F8585
:101A6000688979898A890E94290989E0F82E8091FC
:101A7000D6019091D70189133DC06296E5E00C94A0
:101A8000582D89E0FE013A96DE01119601900D92E3
:101A90008A95E1F78E85882341F32091D70130E0C4
:101AA000C9010196877099274091D60148171906F8
:101AB00099F099E0929FD001939FB00D1124A85204
:101AC000BE4FFE01319601900D929A95E1F78093F9
:101AD000D7010E949C0AC9CF0E94EB081092D7013F
:101AE0001092D60189E0E0E2F2E0DF011D928A95D2
:101AF000E9F7BBCF8F9DC001112488529E4F0E94F1
:101B0000570B882309F4B9CFE091D601FE9EF0016E
:101B10001124E852FE4F00811181228133814481DA
:101B200055816681778180850E9429098091D6013F
:101B300090E00196877099278093D60198CF0E94F4
:101B400078252091340230913502821B930B9C0141
:101B500081E02838334108F480E008958091330211
:101B600086958695869508958091330287700895AD
:101B70000E9478252091310230913202821B930B12
:101B80008838934148F08091330282FB882780F99E
:101B900091E089278170089580E0FCCF9091330215
:101BA000977081E009F480E00895809141020895E2
:101BB00090914102892B80934102089580959091E4
:101BC0004102982390934102089510924102089592
:101BD00090914002892B80934002089580959091C6
:101BE0004002982390934002089510924002089575
:101BF00008950E94F80D089590913602292F282308
:101C0000281729F0892B809336020E94F90D089538
:101C100090913602292F282331F0809589238093D3
:101C200036020E94F90D089508950E94140E089539
:101C3000CF93C82F809137028C238C1771F00E94AC
:101C400078259093350280933402809137028C2B53
:101C5000809337028C2F0E94150ECF91089590919A
:101C60003702292F282381F080958923809337021A
:101C7000882359F00E94782590933502809334028E
:101C8000809137020E94150E089590E080E0F4CF15
:101C900080913702882349F0109237021092350262
:101CA0001092340280E00E94150E08950F931F9346
:101CB000CF93DF930091000110910101C091410287
:101CC00080914002C82B80913702882369F00E94DE
:101CD0009F0D81110E94480E80913702C82B0E94EF
:101CE0003A2481110E94480EF801C083C09100017E
:101CF000D091010148E050E069E272E0CE010E941B
:101D0000832D892B59F088E0FE01A9E2B2E0019011
:101D10000D928A95E1F7CE010E94D723DF91CF91F2
:101D20001F910F9108950E94560E089508950E94E4
:101D3000960E08959091360392FF17C098E0899F00
:101D400090011124622B609333020E946A090E9461
:101D500078259093320280933102809133028695E8
:101D6000869586950E94970E08950E946A090895A7
:101D700010923302109232021092310280E00E94DF
:101D8000970E0895909133028095892380933302B2
:101D9000282F277069F4891759F09091360392FF24
:101DA00007C08695869586950E9476090E94B80E92
:101DB00008959091360392FB222720F9281769F0A5
:101DC00080FB92F99093360380913503909136030E
:101DD0000E94220F82E00E94C20E08958091360375
:101DE00082FB882780F991E089270E94D90E089507
:101DF00081E00E94D90E089580E00E94D90E0895D6
:101E00006FEF7FEF90E080E00E94EC2D089590E06E
:101E100080E00E94B82D863E9E4F19F40E94272232
:101E2000089580E0089582E090E00E94B02D08952A
:101E300083E090E00E94B02D089584E090E00E943D
:101E4000B82D0895BC0184E090E00E94EC2D089527
:101E5000AB01BC018FE090E00E94E02D0895AB0142
:101E6000BC0183E190E00E94E02D089560E070E005
:101E7000CB010E942F0F089560E070E0CB010E941B
:101E8000280F0E94360F0895A8E0B0E0EAE4FFE0D2
:101E90000C943F2D66EE7EEF90E080E00E94EC2DEA
:101EA00060E082E090E00E94CE2D81E08093D50139
:101EB00061E083E090E00E94CE2D60E074E184E078
:101EC00090E00E94EC2D60E086E090E00E94CE2D34
:101ED00060E087E090E00E94CE2D40E050E0BA0143
:101EE00088E090E00E94E02D60E084E290E00E94B3
:101EF000CE2D60E087E190E00E94CE2D60E08CE086
:101F000090E00E94CE2D60E08DE090E00E94CE2D0A
:101F100019821A821B821C821D821E821F821886D1
:101F200048E050E068E170E0CE0101960E94BE2DCD
:101F300040E050E0BA0180E290E00E94E02D80E0B5
:101F40000E9440220E946F220E943C0F2896E2E0ED
:101F50000C945B2D0E94440F0895682F8EE090E052
:101F60000E94CE2D0895A6E0B0E0E9EBFFE00C94CE
:101F70003D2D0E9478258C01809142029091430270
:101F80008017910781F019821A820E947825682FA4
:101F900049815A81792F80E090E00E94FF041093DC
:101FA0004302009342022696E4E00C94592D0E94CD
:101FB000842560935202709353028093540290934D
:101FC000550260934E0270934F028093500290939B
:101FD00051020895089508950E94EA0F0895089502
:101FE0000E94EF0F08958DED92E10E945A140E9415
:101FF000B3140E94EB0F0E94EC0F089581E0089546
:102000000E94FE0F08950E94FE0F089508950895FE
:102010000E9406100E94071008950E94070F811168
:1020200002C00E94AA0F0E94130F809356020E94C2
:102030001D0F90933603809335030E9496160E94DD
:10204000180F0E943D098091D4010E9455090895FE
:102050000E946F250E947F220E94B2130E940D10E1
:102060000E94D3040E94F00F0895A6E0B0E0EBE3D5
:10207000F0E10C94332D0E94001081110CC00E94DD
:10208000B30F0E9405180E94351F0E94E604269691
:10209000EEE00C944F2D0E94C81324E4822E22E01F
:1020A000922E640110E0F601E190F1906F01812F12
:1020B0000E94FD121F5F153009F44BC0E816F906A7
:1020C00091F38091560281FD0E9406130E94031035
:1020D000782E10E066246394812F0E94FD127C010B
:1020E000F401A190B1904F018A159B0561F1A826DA
:1020F000BF2400E0CC24C394D12CC5018C219D21A8
:10210000892BC1F07720B1F009831A830E947825CA
:102110009C838B836D8221E0C7018C219D21892BBB
:1021200009F420E049815A816B817C818D81922F55
:102130000E94FF040F5FCC0CDD1C0C30F1F6F401A3
:102140003297F182E0821F5F153031F60E94D70F7F
:1021500098CFE816F90609F0B4CF91CF1F93CF932B
:10216000DF930E94EC11EC01C11580E5D807F0F572
:10217000C11580E4D80708F09CC0C03ED10520F509
:10218000CD3CD10508F082C0C83AD10578F4C53AF3
:10219000D10508F073C0C130D10519F1209709F1BC
:1021A000C430D105F0F4D0E0C0E01BC0C33CD10581
:1021B000D0F7C85AD0E0CC0FDD1FC65ADE4F0990C9
:1021C000D881C02DD4640DC0C11580E2D80708F0B5
:1021D000D1C0C11581E0D80708F05AC0C83ED1056A
:1021E00010F7CE01DF91CF911F910895C03682E59F
:1021F000D80718F5C03482E5D80708F06BC0C032A4
:1022000082E5D80708F05FC0C11582E5D80708F459
:1022100097C02C2F2695269580E2289F90011124A7
:102220008C2F8370C1E0D0E002C0CC0FDD1F8A95F7
:10223000E2F7C22BD32BDD68D4CFC03A82E5D807B2
:1022400060F4C03882E5D80708F459C0CF71D0E0F7
:10225000DC2FCC27C46FD06AC4CFC03C82E5D8073E
:1022600008F462C0C03E82E5D80708F09CCFDC2F9E
:10227000CC27CC27DF71C06FD06AB3CFC55AD0E06E
:10228000C057DE4FC881D0E0D064ABCFD065A9CFB6
:102290008D2F0E948E12182FCE0199270E94EC11CB
:1022A000C12FD0E0DC2FCC27CC27DF71C82BD92B56
:1022B00098CFCE0199270E94EC11CC27DF70C82B54
:1022C000D92BD06A8ECFCF71D0E0DC2FCC27C16F55
:1022D000D06A87CF2C2F26952695277080E2289FDD
:1022E000900111248C2F8370C1E0D0E002C0CC0F8C
:1022F000DD1F8A95E2F7C22BD32BDC6872CF2C2F1F
:1023000026952695277080E2289F900111248C2F16
:102310008370C1E0D0E002C0CC0FDD1F8A95E2F7E8
:10232000C22BD32BDA685DCF8C2F8F710E948E1257
:10233000C82FD0E0DC2FCC27CC27DF71D06251CF63
:102340008C2F8F710E948E1255E0D695C7955A95A5
:10235000E1F7CF70D0E0DC2FCC27282F30E084FFCE
:1023600005C044E0220F331F4A95E1F7C22BD32B5F
:10237000D06937CF8D2F8F710E948E12182FCE010A
:1023800099270E94EC11C12FD0E0DC2FCC27CC275D
:10239000DF71C82BD92BD2CF462F209196023091D6
:1023A0009702232B89F4703F39F4603F69F48091E0
:1023B0009B0390919C030895753030F46C3020F4A9
:1023C000672F0E94681B089590E080E008950E94A6
:1023D000CC110E94AE10089582389105B9F1B0F485
:1023E0008133910509F47DC048F48932910509F4DF
:1023F0006DC08A32910509F47BC00895853391053B
:1024000009F45FC08933910509F10895833E910570
:10241000D9F138F4803E910529F1823E910579F198
:102420000895863E9105D9F1873E910509F43EC095
:10243000843E910541F52091360321FF24C080910F
:10244000350384FD19C087EE90E00895209135038F
:10245000237009F05AC02091360323FF14C089E28B
:1024600090E008952091350320FD38C03091360367
:1024700030FF09C024FF43C090E080E00895209120
:10248000350322FDF7CF08952091350322FD3AC090
:102490003091360330FD39C024FFF5CFEDCF2091C8
:1024A000350323FFF0CF24FDE7CFCDCF20913503B7
:1024B00023FD2EC03091360331FFEECF84EE90E045
:1024C00008952091350325FFDECFC9CF2091350334
:1024D00025FD21C02091360323FFD5CF89E390E06D
:1024E000D2CF2091350326FFCECF8AE290E0089527
:1024F0002091350326FFC7CF81E390E0089583EE56
:1025000090E0089582EE90E0089580EE90E00895C6
:1025100086EE90E0089585E390E00895909135036C
:1025200092FF10C041E0282F2471243009F040E0D0
:1025300031E0282F2871283009F030E0431711F0DE
:102540002CE0822793FF10C041E0282F2471243112
:1025500009F040E031E0282F2871283109F030E0FF
:10256000431711F02CE082273091360330FF10C062
:1025700051E0282F2171213009F050E041E0282F4F
:102580002871283009F040E0541711F029E0822723
:1025900031FF10C041E0282F2171213109F040E0C6
:1025A00031E0282F2871283109F030E0431711F06D
:1025B00029E0822794FD877E089580E0089508959C
:1025C0000E94DF12089508950E94E3120895E82FF3
:1025D000F0E0EE0FFF1FEF5BFC4F21E030E002C0A8
:1025E000220F331F6A95E2F78081918128233923D6
:1025F00081E0232B09F480E00895E82FF0E0EE0F4E
:10260000FF1FEF5BFC4F808191810895089580EA60
:102610008A95F1F7089500C008950E940713089560
:10262000F894E82FE295EF70F0E031A1282F2F7099
:1026300081E090E001C0880F2A95EAF7982F9095E5
:10264000932391A392A1892B82A378940895CF9389
:10265000DF93CFE9D1E089918F3F11F00E941013F1
:1026600081E0C43AD807B9F7C3E9D1E089918F3F37
:1026700011F00E94101381E0CF39D807B9F7DF912C
:10268000CF910895AF92BF92DF92EF92FF920F9396
:102690001F93CF93DF938C01D62EC62FD0E0CE01AF
:1026A00081569E4F7C01FC0120812F3F09F44DC0D3
:1026B000F894E22FE295EF70F0E031A12F7081E005
:1026C00090E001C0880F2A95EAF7932F982B91A3E9
:1026D00092A18095892382A378940E940B13E3E949
:1026E000F1E04FE951E021E030E0B12CA12C619103
:1026F0006F3FA9F1A62FA295AF70B0E090968C9194
:1027000090E06F7002C0959587956A95E2F780FD1D
:1027100026C0C901A82AB92A220F331F4E175F0706
:1027200031F7F70180818F3F11F00E94101361E0B3
:10273000A114B10409F460E08D2D0E940D13CC0F9B
:10274000DD1FC00FD11FB982A882DF91CF911F91E9
:102750000F91FF90EF90DF90BF90AF90089590E0C1
:1027600080E0D8CF0E9427138AE0E1E4F3E0DF01A4
:10277000982F1D929A95E9F7E7E3F3E0DF011D92A8
:102780008A95E9F785E00E9403140E94E0120895FB
:10279000AAE0B0E0EEECF3E10C943C2D8E010F5F6B
:1027A0001F4F8AE0F80111928A95E9F7F12C6F2DFD
:1027B000C8010E944213F394F5E0FF12F8CF4AE0FB
:1027C00050E0B80187E393E00E94832D21E0009759
:1027D00009F420E0892B41F08AE0F801A7E3B3E097
:1027E00001900D928A95E1F745E061E473E087E39B
:1027F00093E00E940414182F0E94E412812F2A965D
:10280000E5E00C94582D0895B0E0A0E0EAE0F4E192
:102810000C94392D6C017B01042FC22F222379F0F7
:1028200081E0809359020E9478259093580280930A
:10283000570280E0CDB7DEB7E8E00C94552DD0917B
:102840005902DD23B1F380915702909158020E9402
:102850009025059770F310E0000F111FA801B60135
:10286000C7010E94832D892B31F0A801B601C70151
:102870000E94902DCD2F109259028C2FDBCF0E94F9
:1028800062270E9428100E946F2708950E947427D3
:102890000E9435100E948E2708950E9411250E94E3
:1028A00048270E94F30F0E943F140E9446140E9482
:1028B0000810FBCF9093B5018093B4010895CF9297
:1028C000DF92EF92FF921F93CF93DF93CDB7DEB7E6
:1028D0002A970FB6F894DEBF0FBECDBFEBE4F3E04E
:1028E00080E5DF011D928A95E9F7EAE5F2E088E3E9
:1028F000DF011D928A95E9F78BE4C82E83E0D82E7C
:102900007F0110E0F701D182C082BE016F5F7F4F6F
:10291000812F0E94601A892B79F488E0FE0131969C
:10292000D60101900D928A95E1F789859A85D701A4
:1029300013969C938E931297BAE0CB0ED11CE7E0CE
:10294000EE0EF11C1F5F1830E9F62A960FB6F894C8
:10295000DEBF0FBECDBFDF91CF911F91FF90EF90F3
:10296000DF90CF9008950E945F140895CF92DF9278
:10297000FF920F931F93CF93DF93CDB7DEB72A97C4
:102980000FB6F894DEBF0FBECDBF8C01603269F583
:10299000DC011196EC911197EE3038F5F0E0E85E2D
:1029A000F14D0C94222D88E0E9E1F1E0DE01119671
:1029B00001900D928A95E1F780E2F80111928A95D3
:1029C000E9F786E0D8018C9311961C921197129624
:1029D0001C92129713961C92139788E0FE01319671
:1029E000149601900D928A95E1F72A960FB6F89405
:1029F000DEBF0FBECDBFDF91CF911F910F91FF9032
:102A0000DF90CF9008958CE6F801808381E0818388
:102A100012821382EACF13968C911397682F70E07D
:102A2000762F662712968C91860F972F911D092E6F
:102A3000000CAA0BBB0B35E0880F991FAA1FBB1F08
:102A40003A95D1F7AC01BD01405E5F4F6F4F7F4FAC
:102A5000481759076A077B0740F28C36E1E09E076A
:102A6000A105B10510F64D36F1E05F07610571056E
:102A700020F04CE651E060E070E0481B590BBC01CF
:102A80006C5E7D4FC8010E947A2DAFCF40E250E0CE
:102A90006FEF70E00E94992D80919802D8018C937D
:102AA0008091960211968C93119781E012968C93E7
:102AB00012978BE013968C93139784E014968C9363
:102AC000149789E015968C9390CF81E090E09093D5
:102AD00097028093960282E390E090939502809310
:102AE00094020E94782590939302809392027DCF66
:102AF0008091960290919702892B91F16BE081E091
:102B00000E94E712D82E69E084E00E94E712F82EB6
:102B100080919202909193020E94902585369105B2
:102B200050F1DD2041F1FF2031F10E947825909392
:102B30009302809392028091940290919502019762
:102B40009093950280939402892B51F410929702EE
:102B50001092960281E090E09093990280939802FF
:102B600080919802F8018083809196028183809100
:102B7000940282833ACF82E390E09093950280930F
:102B80009402EECF10929902109298022ECF40E25A
:102B900050E06FEF70E00E94992D27CF12968C9134
:102BA0001297833089F0843039F181111ECF80E291
:102BB000F80111928A95E9F71C9288E011968C939E
:102BC000119712961C9211CFF80183819AE0F92E89
:102BD0009E012F5F3F4F6901D901EF2D1D92EA95AC
:102BE000E9F7B9010E94601AD8018D93F6010190AE
:102BF0000D92FA94E1F7F9CE13968C919AE0F801D0
:102C00003496DE01119601900D929A95E1F729858F
:102C10003A852115BCE73B0741F440919802509159
:102C20009902452B11F430E020E03A872987BE0154
:102C30006F5F7F4F0E94741AF80180830E945F14B7
:102C4000D4CEA6E0B0E0E7E2F6E10C943F2D9093FD
:102C50009C0380939B03811520E2920730F40E942D
:102C600072032696E2E00C945B2D80EF89838A83C1
:102C70000E9478258160682F9C838B8349815A81CB
:102C80007C8181E091E00E94FF04EBCFA6E0B0E000
:102C9000ECE4F6E10C943F2D90939C0380939B030E
:102CA000811520E2920730F40E9488032696E2E024
:102CB0000C945B2D80EF89838A830E947825816044
:102CC000682F9C838B8349815A817C8181E090E0CD
:102CD0000E94FF04EBCFCF93DF93EC010E942116FB
:102CE000CE010E944616DF91CF91089581E00895AC
:102CF0000E94000F089580E00E94FD1281700895E7
:102D00000E94C8132FEF86E791E021508040904049
:102D1000E1F700C000000E94C8130E947B168823C0
:102D200021F00E9478160E94C32508950E94801603
:102D300008950895EF92FF920F931F93CF93DF931F
:102D400080910D03882361F0E0919A028DE0F82EC6
:102D500080910D03E81748F010920D0310929A022B
:102D6000CDB7DEB7E6E00C94572DEE24E394EE0EDB
:102D7000E0929A02CE2FD0E0EF9DF0011124EB55A6
:102D8000FD4F84818823B1F087819085892BA1F440
:102D9000818592858F3F980779F061E00E949916AE
:102DA000FC9EF001FD9EF00D1124EB55FD4F1482A9
:102DB0000E94F50DEE2DCCCF00811181228133814F
:102DC000448155816681778180850E94130DE8CF0B
:102DD000089510920F0310920E03EAE5F2E0858148
:102DE000811102C014821682379682E0E239F80718
:102DF000B1F70895DC016091A3028091A402962F9F
:102E0000891301C00895292F30E0F901EE0FFF1F4B
:102E1000E556FD4F408151814A175B07A1F487E0D9
:102E20008A9FA0018B9F500D1124465A5D4F81E06F
:102E3000FA0184839613E6CF2F5F3F4F2370332729
:102E40002093A30208952F5F3F4F922F9370D8CF06
:102E50006F927F929F92AF92BF92CF92DF92EF924A
:102E6000FF920F931F93CF93DF93DB0114962C9166
:102E70001497211157C0A0900D03E5EAF2E030E06D
:102E800020E0B12C66246394712C2A1508F048C008
:102E9000C384D484ED90FC9011976FEF7FEF912C59
:102EA000492D50E08A01000F111F0E0D1F1DE80172
:102EB000088119810115110531F0C016D10609F4F8
:102EC000BA019394EDCF6F3F7607D9F1E30102C0C9
:102ED000CC0FDD1F6A95E2F7BC2AB30102C0660F72
:102EE000771F9A94E2F7AB0141505109B4161506C9
:102EF00039F512964D915C9113976DE0629FF00148
:102F0000639FF00D1124EB55FD4F5087478324E05C
:102F10002483108211829287818721E015962C9359
:102F20000E94FA16DF91CF911F910F91FF90EF90C1
:102F3000DF90CF90BF90AF909F907F906F9008955B
:102F400014822F5F3F4F3D96A0CF1F93CF93DF9307
:102F5000C091A30217E08091A4028C1308C00E94C4
:102F60009A160E94E916DF91CF911F910895D0E043
:102F7000FE01EE0FFF1FE556FD4F80819181189FE6
:102F8000B001199F700D1124665A7D4F0E942817B9
:102F90002196C370E0CF0F931F93CF93DF93DC0193
:102FA0002D913C91119740E090E080E0E82FF0E017
:102FB000EE0FFF1FE20FF31FC081D1812097B9F000
:102FC000FB010081118190E005C0CE17DF0709F4F5
:102FD00041E09F5FE92FF0E0EE0FFF1FE00FF11FD0
:102FE0000190F081E02D309781F78F5FDFCF442390
:102FF00049F0981708F4DB01CD01DF91CF911F91C3
:103000000F910895B0E0A0E0F7CF809102018823EE
:1030100041F18091100390911103009711F10E94EA
:10302000902520910E0330910F0328173907C8F41B
:103030009091A3028091A402981759F00E94A517BD
:1030400010920F0310920E031092110310921003AE
:1030500008950E949A1610921103109210030E9474
:10306000E9160895109211031092100310920201B4
:103070008091A4028093A3020E94E9160E949A16EE
:10308000089580910201882319F00E943218089552
:1030900081E0809302010895ADE0B0E0E2E5F8E15F
:1030A0000C942F2D5C016B0180352CE7920761F4A5
:1030B000FB0115811123E9F081E080930201812F4A
:1030C0002D96E2E10C944B2D8135FCE79F0739F4F6
:1030D000FB011581112369F00E943218F0CF82356F
:1030E0009C4739F4FB011581112319F00E94411806
:1030F000E6CF9091D4018091D501892B0E94AF0435
:10310000182F0E94E816181731F0F60160817181BE
:103110000E94CC115C017AE5E72E72E0F72E912C2B
:10312000812C1C8666246394712C9E012F5F3F4F77
:103130003B872A87F7014081518144244A94542CCB
:1031400020E0822F90E0FC01EE0FFF1FE40FF51F3F
:10315000608171816115710531F0A616B70609F419
:103160002C012F5FEECF312CFFEF4F165F0609F4D5
:1031700047C0F701448130900201832D411180E066
:10318000F82FF1703F2EF70125808681F601958199
:10319000992309F4CEC0332009F4CBC0211015C007
:1031A000A301042C01C0440F0A94EAF7842BF70111
:1031B000868380910E0390910F03C29730F462E3EF
:1031C00070E070930F0360930E03C30102C0880F79
:1031D000991F2A95E2F70197F7012681281719060A
:1031E00079F48091100390911103009709F44EC077
:1031F0000E949025C39708F449C021E0F701248379
:10320000FC85F329FC872FEF821A920A37E0E30E40
:10321000F11C68E08616910409F08CCFF6018581D7
:10322000882309F4EBC0FC85FF2309F4E7C00E9462
:103230007825909311038093100380910D038830BB
:1032400008F591E0980F90930D0399E0F601DE01E7
:10325000119601900D929A95E1F72DE0829FC001A1
:1032600011248B559D4F29E0FE013196DC01019020
:103270000D922A95E1F72FEF3FEFFC01328721876E
:10328000B486A38611E0FC851F2719CF2090A302E6
:103290003091A4023D8790E080E07D85271216C022
:1032A0008E159F0509F4ACCF422C512CF201EE0F84
:1032B000FF1FE556FD4F918280828FEF481A580A12
:1032C00093E0492255244092A4029ACF422C512CDB
:1032D000F201EE0FFF1FE556FD4F8081918167E0FF
:1032E000689F8001699F100D1124065A1D4FB70178
:1032F000C8010E94CB170097A9F021E0FC012483AC
:103300008E159F0509F47CCF2091A30222120AC0DA
:103310008017910739F492012F5F3F4F23703327B5
:103320002093A3023FEF431A530A642D6370262EA5
:10333000B4CF90E0211020C0F30102C0EE0FFF1FB8
:103340002A95E2F79F01215031092817390731F4F6
:10335000442309F451C0C4010E94FA16C301042C8D
:1033600001C0880F0A94EAF7982F9095F70186819B
:1033700089238683322C44CFAC01042C02C055959E
:1033800047950A94E2F7BA01617077279C012150B2
:10339000310982239323892B59F5672B49F1F701D2
:1033A00082819381892BF9F0EA85FB8527E01192D0
:1033B0002A95E9F70E947825282F8B839C8334E097
:1033C0003D83F70182819381782F888799870981CE
:1033D0001A813C8144E05E816F81892F0E94130D28
:1033E000F7011582BBCF60E0C4010E949916F8CFA7
:1033F000F42FF1702F2EB2CF232CB0CF9091A302D7
:103400008091A402981719F00E94A5173BCF0E9443
:103410009A1610921103109210030E94E91632CFEF
:1034200084E0089550E0440F551F98E1699F400DD6
:10343000511D112498E7899F400D511D1124CA0187
:10344000899608950F931F93CF93DF938430C8F428
:103450006530B8F44C30A8F40E94121A8C010E9416
:10346000B02DC82FD0E0DC2FCC27C80101960E94D8
:10347000B02D9E01282BC901DF91CF911F910F9193
:10348000089590E080E0F8CF0F931F93CF93DF93E0
:10349000122F032F843078F4653068F44C3058F4E0
:1034A0000E94121AEC01602F0E94CE2D612FCE01D6
:1034B00001960E94CE2DDF91CF911F910F9108951B
:1034C0009B01883070F49AE0899FB0011124675FF6
:1034D0007D4F4AE050E0C9010E94A02D90E080E0BD
:1034E00008958FEF9FEF08959B01883070F49AE064
:1034F000899FB0011124675F7D4F4AE050E0C90108
:103500000E94F22D90E080E008958FEF9FEF0895E4
:10351000AAE0B0E0EEE8FAE10C94392DC0909802F0
:10352000D090990281E090E0909399028093980264
:1035300000E010E012C04F2D612F802F0E941B036E
:103540009C014F2D612F802F0E94441AF3948CE030
:10355000F812F1CF1F5F153011F0F12CECCF0F5F97
:10356000043039F7FE0131967F018AE011928A9585
:10357000E9F710E0B701812F0E94741A1F5F18301D
:10358000C9F7D0929902C09298022A96E8E00C946A
:10359000552DEF92FF920F931F93CF93DF93EC0182
:1035A0008A017C01E60EF71ECE018996CE15DF0555
:1035B00029F4CDB7DEB7E6E00C94572DC03E21E0EC
:1035C000D20740F40E94B02DF80180830F5F1F4F97
:1035D0002196EACFF8011082F9CFB0E0A0E0E3EF46
:1035E000FAE10C94312DEC017B018A01803E91407F
:1035F000D8F480EE91E08C1B9D0B86179707A0F006
:103600003E0139E2630E711C8091980290919902FB
:103610002E01460E571E892B61F07E01C701899647
:10362000E414F50409F043C0CDB7DEB7E0E10C9433
:103630004D2D6E0181E0C822DD24C0FF0FC0CE01F8
:1036400088960E94B02DF8019081892798278927B4
:1036500081159C4719F48FEFF8018083570140FED4
:1036600013C0F1E0AF1AB10848018A0C9B1CC301DA
:103670008E0D9F1D0E94B02DF401908181159C47F5
:1036800019F48FEFF4018083F801EC0DFD1D2FEF8D
:10369000CA14DB0410F69081818181159C4711F4D6
:1036A0002083218382E0C80ED11C3296F1CFE0EE58
:1036B000EE16E1E0FE0640F4F701EC1BFD0BE00F17
:1036C000F11F60810E94CE2DFFEFEF1AFF0AA6CFF7
:1036D000843038F4653028F44C3018F40E94221AF3
:1036E000089590E080E0089580E1089587EA91E0F0
:1036F0000895EF92FF920F931F93CF93DF93EC0106
:103700008A017C01E60EF71ECE01875A9D4FCE1529
:10371000DF0529F4CDB7DEB7E6E00C94572DC73AA4
:1037200021E0D20740F40E94B02DF80180830F5FA2
:103730001F4F2196E9CFF8011082F9CFB0E0A0E049
:10374000E4EAFBE10C94392D7C016A018C01060F3F
:10375000171FEC01CE01875A9D4FC017D10729F4DE
:10376000CDB7DEB7E8E00C94552DC73A21E0D2077B
:1037700040F4FE01EE19FF09EC0DFD1D60810E9471
:10378000CE2D2196E7CFCF93DF93C9E5D2E060E05D
:10379000CE010E94CE2D2196C11584E0D807B9F73D
:1037A000DF91CF910895A4E0B0E0E9EDFBE10C9446
:1037B000382DF82E2FE0281708F4A5C08FEF93E0DE
:1037C0000E94B02D81119FC009E512E0F11036C0B2
:1037D00019821A821B821C82BB24BA9478015FEF83
:1037E000E51AF50AC8010E94B02D89831A82882340
:1037F00009F489C0813009F07FC0680182E0C80EF9
:10380000D11CC7010E94B02DE82E8A83882309F4B9
:103810007AC0C6010E94B02DF82E8FEF8E0D833036
:10382000D8F46801E3E0CE0ED11CFB82FF2021F02A
:10383000CE0101960E9432218601D0CF011544E0CD
:10384000140709F460C0C8010E94B02D811101C0A5
:10385000FA940F5F1F4FBACF8BEF8E0D833030F588
:10386000C8010396FB826C01FF2031F36801F4E08C
:10387000CF0ED11C0E94B02D8C838823E9F28B815E
:103880009C8181302FEF920710F0982F882746E017
:10389000E41631F057E0E51631F00E946B16CCCFFC
:1038A0000E942116C9CF0E944616C6CF84E0E812B6
:1038B000C3CF6801E4E0CE0ED11CC80103960E947C
:1038C000B02DFF2001F18823F1F08150990BB89EB3
:1038D0009001B99E300D11244F2D4150550BCA0156
:1038E000820F931F019708F4A7CFEFE9FFE031970C
:1038F000F1F700C00000F6CF60E0CE0101960E9413
:10390000C720670199CF2496E9E00C94542DCF93FA
:10391000DF93EB0186319C4711F50E94D50D9D8107
:10392000992399F08A7A91E009F490E09093120338
:10393000811109C089E20E948A240E94930E80E0CE
:10394000DF91CF91089585E3F6CF80911203811125
:1039500004C089E20E949224F0CF85E3FBCF81E08E
:10396000EFCFCF93DF93EC01FB018581882309F42E
:10397000D2C09E0130572332310508F0B2C00E94F8
:103980001D0F9093360380933503FE01E150F047FD
:10399000E232F10520F4EA5DF14D0C94222D809184
:1039A000350381608093350393C08091360388602E
:1039B000809336038DC0809135038260F3CF809170
:1039C00035038460EFCF809135038860EBCF809121
:1039D00036038160EDCF809136038260E9CF80911C
:1039E00035038061DFCF809135038062DBCF80912A
:1039F00035038064D7CF0E94EB088091350380683F
:103A0000D1CF809135038C60CDCF80913603836018
:103A1000CFCF809135038E7FC5CF80913603877FCE
:103A2000C7CF809135038D7FBDCF809135038B7FCC
:103A3000B9CF80913503877FB5CF809136038E7FD4
:103A4000B7CF809136038D7FB3CF809135038F7EC2
:103A5000A9CF809135038F7DA5CF809135038F7BD2
:103A6000A1CF0E94EB08809135038F779BCF809187
:103A70003503837F97CF809136038C7F99CF8091D8
:103A8000350382FB992790F921E0922790FB82F978
:103A900090FB83F987CF80913603982F9095917092
:103AA0008E7F892B90FB81F983CF90913503892FED
:103AB0008F7B96FF806476CF0E94EB089091350350
:103AC000892F97FB87F980586DCF81E00E94AD0F59
:103AD00080913503909136030E94220F0E94EB08DB
:103AE00080E0DF91CF91089580E0F0CF9091350391
:103AF000892F8F7E94FF806155CF90913503892F58
:103B00008E7F90FF81604ECF90913603892F877F03
:103B100093FF88604DCF81E0E4CF282F35EB23035E
:103B2000C001112497FF04C080589109892F08957E
:103B300080589F4FFBCF8091190380FF0DC060918B
:103B4000080170E0660F771F6038710570F5611528
:103B5000710569F1862F089581FF07C06091080102
:103B600084E0689FB0011124EFCF6091080182FDCD
:103B70000AC0809118038823A9F020910701609161
:103B80000801821710F088E0ECCF869FC001112455
:103B900033E0880F991F3A95E1F7622F70E00E9499
:103BA0000E2DD2CF68E070E0D5CF8FE7089581E089
:103BB00008958091190380FF0CC06091040170E0AA
:103BC00075956795759567956115710549F1862F0E
:103BD000089581FF06C06091040170E075956795B6
:103BE000F3CF6091040182FD0BC0909117039923DC
:103BF000A1F06091030180910401961738F0682FBD
:103C000070E06038710500F38FE70895899FC00167
:103C1000112470E00E940E2DF4CF61E070E0D7CF48
:103C200081E0089590911C0320911D03922B209117
:103C30001F03922B20911E03922B31F098E090935A
:103C4000180391E0909317038D3C31F40E949B1D63
:103C5000819580931D0308958E3C19F40E949B1D4D
:103C6000F8CF8F3C31F40E949B1D819580931C03FB
:103C70000895803D19F40E949B1DF8CF893D29F4D9
:103C80000E94D91D80931E0308958A3D21F40E944D
:103C9000D91D8195F7CF8B3D31F40E94D91D8195B7
:103CA00080931F0308958C3D19F40E94D91DF8CF0D
:103CB0009FE2980F983070F4815D990B21E030E01D
:103CC00001C0220F8A95EAF780911B03822B809313
:103CD0001B0308958D3D31F4809119038160809319
:103CE000190308958E3D21F4809119038260F7CF66
:103CF0008F3DB9F7809119038460F1CF40911C0387
:103D00008D3C59F480911D0387FF0DC010921D0357
:103D100041110BC01092180308C08E3C81F48091B1
:103D20001D0318169CF3442381F080911E0390918B
:103D30001F03892B09F05AC01092170308958F3C76
:103D400049F447FFF0CF10921C0380911D038111AD
:103D5000ECCFE0CF803D19F41416ACF3E4CF909192
:103D60001E03893D29F41916F4F610921E03DBCFC9
:103D70008A3D19F497FFD7CFF8CF90911F038B3D61
:103D800029F497FFD0CF10921F03CDCF8C3D19F4AB
:103D90001916CCF3C8CF9FE2980F983090F4815D4C
:103DA000990B21E030E0B90102C0660F771F8A95B8
:103DB000E2F7CB01809590911B03892380931B032D
:103DC000B2CF8D3D31F4809119038E7F809319031A
:103DD000AACF8E3D21F4809119038D7FF7CF8F3DBF
:103DE00009F0A1CF809119038B7FF0CF08950E9435
:103DF00078259C0190911C0380911D03982B21F044
:103E0000309316032093150390911E0380911F0396
:103E1000982B21F030931403209313038AE193E04D
:103E20000E94E223089586E0EAE1F3E0DF011D92BB
:103E30008A95E9F71092180310921703109219034C
:103E40000895FC01828181110EC0838181110BC014
:103E50008481811108C091E08581811101C090E0C9
:103E6000892F8170089581E0FCCFA6E0B0E0EBE3FC
:103E7000FFE10C943E2D86E0EAE1F3E0DE011196CD
:103E800001900D928A95E1F710921C0310921D0388
:103E900010921E0310921F038B819C81892B89F045
:103EA00080911503909116030E949025AC0190918A
:103EB00018039923C9F1809109018417150608F4A4
:103EC00040C08D819E81892B91F080911303909148
:103ED00014030E949025AC0190911703992309F4D3
:103EE0006AC0809105018417150608F472C0BE01EE
:103EF0006F5F7F4F8AE193E00E94A524811105C086
:103F00008AE193E00E94211F81110E94F71E86E042
:103F1000FE013196AAE1B3E001900D928A95E1F796
:103F20002696E3E00C945A2D20910A018AE0289FFE
:103F3000900111242417350720F69F5F90931803F2
:103F400002C09F3FD1F71B81112359F00E949B1D96
:103F50009FEF11160CF491E0899F802D112480931E
:103F60001C031C81112359F00E949B1D9FEF111609
:103F70000CF491E0899F802D112480931D03809182
:103F80001C03882309F49DCF10911D03112309F40C
:103F900098CF0E948D1D882351F080931C03812FA0
:103FA0000E948D1D882329F080931D038ACF81E014
:103FB000F4CF81E0F9CF209106018AE0289F90019B
:103FC00011242417350708F092CF9F5F90931703B1
:103FD00002C09F3FD1F71D81112359F00E94D91DC6
:103FE0009FEF11160CF491E0899F802D112480938E
:103FF0001E031E81112359F00E94D91D9FEF111637
:104000000CF491E0899F802D112480931F038091EF
:104010001E03882309F46BCF10911F03112309F4A9
:1040200066CF0E948D1D882351F080931E03812F3F
:104030000E948D1D882329F080931F0358CF81E0B3
:10404000F4CF81E0F9CFB0E0A0E0E9E2F0E20C9437
:10405000382DE82FF0E0E058FC4FB490282F26953B
:104060002695269530E0F901E05EFB4F04918770BC
:1040700010E0082E02C0159507950A94E2F701702A
:104080001127F901E05FFB4FE490F12C082E02C0EC
:10409000F594E7940A94E2F791E0E922FF24F9010C
:1040A000E050FC4FC491D0E002C0D595C7958A95E9
:1040B000E2F7C170DD27C62ED12C0115110549F597
:1040C000E114F10431F086EE0E945605C601009716
:1040D00071F5B6018B2D0E943E06C601009779F559
:1040E000E114F104A1F50115110531F081EE0E94F2
:1040F000E405C6010097C9F5CD2B31F08CE20E9492
:104100005606C114D104C9F5CDB7DEB7E9E00C9469
:10411000542D81EE0E945605C601009789F2EFE901
:10412000FFE03197F1F700C000000197F6CFEFE90B
:10413000FFE03197F1F700C000000197C8CFEFE929
:10414000FFE03197F1F700C000000197C7CF86EE7E
:104150000E94E405C601009731F2EFE9FFE03197D4
:10416000F1F700C000000197F6CFEFE9FFE03197CB
:10417000F1F700C000000197BDCF8FE99FE00197E4
:10418000F1F700C0000091E0C91AD108BACFEF9250
:10419000FF920F931F93CF93DF93EC01162F0AE04A
:1041A0008881882309F459C0813009F052C089817F
:1041B000813071F47E0182E0E80EF11C8A810E9458
:1041C0005606E701812F90E00097D9F52196E8CFB8
:1041D000823041F47E01E2E0EE0EF11C8A810E9401
:1041E0005605EFCF833041F47E01F2E0EF0EF11C73
:1041F0008A810E94E405E5CF843011F02196E2CF58
:104200002A81229690E080E0AE014F5F5F4F2053FD
:10421000330B2A30310550F00097A1F2EFE9FFE0AF
:104220003197F1F700C000000197F6CF089FB00169
:10423000099F700D1124C901860F971F2981EA017A
:10424000E3CFEFE9FFE03197F1F700C000000197FD
:10425000BBCF612F0E942320B9CFCDB7DEB7E6E0F8
:104260000C94572D60E00E94C72008950F931F9370
:10427000CF93DF93C42FD22FFC0185818823C9F00F
:10428000409322030E94782590932103809320037A
:1042900080E28C0F883040F4C77081E001C0880F45
:1042A000CA95EAF70E945F06DF91CF911F910F91A7
:1042B000089510912203141332C08091200390912D
:1042C00021030E949025883C910548F5C0E2CD0F5E
:1042D0001D17B9F080E2810F883040F4177081E03B
:1042E00001C0880F1A95EAF70E946606C83048F4A4
:1042F00081E09D2F977001C0880F9A95EAF70E9480
:104300005F06802F0E945606C83070F6D77081E095
:1043100001C0880FDA95EAF70E946606C5CF80E2F1
:104320008C0F883008F6C77081E001C0880FCA95ED
:10433000EAF7F2CF0F93DB0188519C478730910554
:10434000A0F5FC01E85BF14D0C94222D06E221EE74
:1043500041EE6AE17CE7CD010E94362180E00F91B9
:10436000089507E225EE45EE6BE17CE7F4CF06E227
:1043700021EE40EE68E17CE7EECF07E225EE44EE69
:1043800069E17CE7E8CF06E221EE42EE6CE17CE7F2
:10439000E2CF07E225EE46EE6DE17CE7DCCF08E2F6
:1043A00021E045EE6EE17CE7D6CF15968C9188230F
:1043B00019F010922203D3CF81E0D1CF1F93CF9376
:1043C000DF9387372CE7920759F0C1E088379C4785
:1043D000E1F4FB01C581CC2371F10E94212206C0CA
:1043E000FB01C581CC23B1F00E941E220E946A0904
:1043F0000E942422D82F0E942122C82F0E941E2210
:104400004D2F6C2F0E94920AC0E08C2FDF91CF912C
:104410001F9108950E941E220E9476090E94242264
:10442000182F0E942122D82F0E941E22412F6D2F6B
:104430000E94920AEACF0E942122EECF80910D01C4
:10444000089580910C01089580910B01089585E2F3
:1044500090E00E94B02D8F3089F486E290E00E94B7
:10446000B02D893459F487E290E00E94B02D91E09C
:10447000893A09F090E0892F8170089580E0FCCF9F
:10448000CF93C82F6FEF81116FE085E290E00E941B
:10449000CE2D6FEFC11169E486E290E00E94CE2D2F
:1044A0006FEFC11169EA87E290E00E94CE2DCF91B3
:1044B0000895089588E290E00E94B02D682F70E082
:1044C00090E080E008950895CF93C62F0E94632264
:1044D0006C2F88E290E00E94CE2DCF91089580E06D
:1044E0000E94402260E070E0CB010E9464220E94A2
:1044F000881A0E94C31B81E00E94402208950E94F6
:1045000059220E945A220E9463220E94272281116E
:1045100002C00E946F2208959C01FB0185818823BF
:1045200051F0A90157574038510530F4822F0E94AD
:10453000D31B80E0089581E008952FEFFC012083D4
:104540000895EF92FF920F931F93CF93DF93EC01A7
:10455000162F88812091960230919702232B79F0B3
:104560008E3F09F05CC08981833020F08550833014
:1045700008F055C0612FCE010E94B61450C08B3098
:1045800009F4EAC0D0F4843009F488C060F48230C1
:1045900009F44EC008F075C08130F1F1612FCE01F1
:1045A0000E949D223CC0863009F48EC008F481C070
:1045B0008A30A0F78FEF888332C0803109F4A4C01D
:1045C00000F58D3009F487C008F481C08E3009F4FD
:1045D0008AC08F3019F78091980290919902892BA7
:1045E000F1F06B8170E06D317105C8F489819A81B9
:1045F000AE014C5F5F4F9827892798270E949E1B2A
:104600000EC0823109F486C008F481C0833109F4F8
:1046100092C08E3F19F6AECF198289E08A83612F4E
:10462000CE010E943C26CDB7DEB7E6E00C94572DB4
:104630008981823071F0833079F0813009F0AECF1A
:104640000E9484250E94282D6A837B838C839D830E
:10465000E6CF0E945A22F6CF80919802909199025B
:10466000892BE9F27E0100E0802F0E94FD12F70104
:10467000928383830F5FF2E0EF0EF11C0530A1F708
:10468000CECF8981823009F089CF6A817B818C818C
:104690009D810E94282D0E946422C1CF4B816A8196
:1046A00089810E94221A9827892798279D838C83C5
:1046B000B6CF2C813D813227232732274B816A8157
:1046C00089810E94441AABCF0E94881AA8CF0E9409
:1046D000741B8983A4CF0E94761B9827892798276B
:1046E0009A8389839CCF6B8170E06D31710508F0EE
:1046F00096CF89819A81AE014C5F5F4F98278927B9
:1047000098270E94791B8BCF0E94C31B88CF0E94E1
:10471000101ADFCF6B8170E06D31710508F07FCF2B
:1047200089819A81AE014C5F5F4F9827892798272E
:104730000E94C91A74CF6B8170E06D31710508F069
:104740006ECF89819A81AE014C5F5F4F9827892790
:1047500098270E94ED1A63CF809198029091990258
:10476000892B09F45CCFCE010E943C262FEF81EE0D
:1047700094E0215080409040E1F700C000000E948A
:10478000C3254DCF90932803809327030895E0918C
:104790002703F0912803309729F00190F081E02D54
:1047A0000995089580E008950E94C7230895E09137
:1047B0002703F0912803309721F00280F381E02D48
:1047C00009950895E0912703F0912803309739F077
:1047D00022E0DC012C930680F781E02D09950895F5
:1047E000A3E0B0E0E6EFF3E20C943F2D2091250327
:1047F0003091260328173907A1F090932603809360
:104800002503E0912703F0912803309751F023E02E
:1048100029839B838A830084F185E02DCE01019654
:1048200009952396E2E00C945B2DA3E0B0E0EBE168
:10483000F4E20C943F2D2091230330912403281798
:104840003907A1F09093240380932303E091270379
:10485000F0912803309751F024E029839B838A83C9
:104860000084F185E02DCE01019609952396E2E0C2
:104870000C945B2D40910001509101019A012E5F33
:104880003F4F485F5F4F80E02417350709F40895D4
:10489000F90191919F019923B9F38F5FF5CF882397
:1048A00071F02091000130910101F9013296285FE9
:1048B0003F4F9191981729F0E217F307D1F780E065
:1048C000089581E008959C01FC0132969FEF80E0FD
:1048D0004191461751F09F3F19F4411101C0982FA3
:1048E0008F5F8630A9F79F3F09F40895290F311D86
:1048F00097FD3A95F90162830895FC013296089676
:104900002191261303C0DF0111971C92E817F907C4
:10491000B9F70895682F80910001909101010E94DC
:1049200063240895682F80910001909101010E94F5
:104930007D240895E0910001F0910101329686E016
:10494000DF011D928A95E9F70895DC01FB011196BC
:104950009C9111978181981322C012968C91129785
:10496000882319F0928189131AC013968C9113979A
:10497000882319F09381891312C015968C9115978D
:10498000882319F0958189130AC014969C91992364
:1049900021F081E02481291303C080E001C081E07F
:1049A0008170089508950E94D2240895811106C04F
:1049B00081E0809329030E94D324089582E0F9CFF7
:1049C00083E0809329030E94D32408950E94D62473
:1049D000089581E0809329030E94D32408950E94C2
:1049E000E9240895089508950E94F32408950895F0
:1049F00008950E94F2240895CF930E94F7240E9404
:104A0000C8130E94F824C0E08C2F0E94FD12892B4D
:104A100031F4CF5FC530C1F780E0CF91089581E0D8
:104A2000FCCF85B7806885BF85B7806885BF08954E
:104A30001F921FB61F9211248F939F93AF93BF9322
:104A400080912A03811113C080919D0390919E0350
:104A5000A0919F03B091A0034196A11DB11D809329
:104A60009D0390939E03A0939F03B093A003BF91D7
:104A7000AF919F918F911F901FBE1F9018958091AD
:104A8000A503843031F10E94A50410922A0388E125
:104A900090E020E40FB6F894A895809360000FBED4
:104AA0002093600083B7817F846083BF83B7816078
:104AB00083BF7894889583B78E7F83BF0FB6F894B1
:104AC000A8958091600088618093600010926000DA
:104AD0000FBE08950E94EB080E94AA04089582E088
:104AE00084BD93E095BD9AEF97BD80936E000895C5
:104AF0002FB7F89480919D0390919E03A0919F03FE
:104B0000B091A0032FBF08952FB7F89460919D0333
:104B100070919E0380919F039091A0032FBF0895F1
:104B20009C014FB7F89480919D0390919E03A091B2
:104B30009F03B091A0034FBF821B930B08957894FD
:104B40001F921FB61F9211248F939F93AF93BF9311
:104B500080919D0390919E03A0919F03B091A0032B
:104B60000196A11DB11D80939D0390939E03A09378
:104B70009F03B093A003BF91AF919F918F911F901E
:104B80001FBE1F90189581E08093E00080E2809323
:104B9000D8001092C9008FE19EE40197F1F700C0A0
:104BA000000087E090EBDC018093AE039093AF03AD
:104BB000A093B003B093B10388E19CE00FB6F894E2
:104BC000A895809360000FBE90936000FFCF88E1AE
:104BD0009CE00FB6F894A895809360000FBE909368
:104BE0006000FFCF80913303089508959B01BA01BF
:104BF0009091A5039430E9F48F708093E9009FEFC2
:104C00008091E800915085FD06C085ED8A95F1F709
:104C100000009111F5CF8091E80085FF0AC050E0B7
:104C200040E0C9010E9438288091E8008E77809387
:104C3000E800089543E050E0BC0184E00E94F625BE
:104C4000089546E050E0BC0184E00E94F6250895F6
:104C5000CF93DF93EC0148E050E0BC0181E00E947B
:104C6000F62588E0FE01ABE2B3E001900D928A9553
:104C7000E1F7DF91CF910895603231F440E250E0E6
:104C8000BC0182E00E94F62508958091A403811161
:104C900009C00E94172A0E94742A8091E200846051
:104CA0008093E20008951092A40308950E94E924DD
:104CB00008956091A10381E0611101C080E00E942C
:104CC000E02408959091A50381E0943009F080E0FC
:104CD0006091A1030E94E624089542E061EC81E026
:104CE0000E94932942E261EC84E00E94932942E20F
:104CF00061EC82E00E94932942E260EC83E00E9432
:104D000093299091A50381E0943009F080E06091AF
:104D1000A1030E94D62408958091A703833009F44B
:104D200063C030F48130E1F1823009F4A0C008950D
:104D30008A3009F48CC08B3009F471C0893009F0D5
:104D400052C08091A603813209F04DC08091AA0320
:104D50009091AB03009719F0029709F044C080913D
:104D6000E800877F8093E8008091E80082FF37C0E9
:104D70009091F3008091F200029731F48091F1005C
:104D8000813011F0863021F48091F100809333035B
:104D90008091E8008B778093E8000E94C72923C0A8
:104DA0008091A603813AF9F48091E800877F80938F
:104DB000E8008091AA039091AB03892B61F468E02D
:104DC0008BE293E070E00E94D6288091E8008B7718
:104DD0008093E800089560E090E080E0F3CF809158
:104DE000A5038111C1CF08958091A603813AD9F717
:104DF0008091AA039091AB03892BA9F78091E800D9
:104E0000877F8093E8008091E80080FFFCCF80914D
:104E100018018093F1008091E8008E77BCCF8091DB
:104E2000A603813201F78091AA039091AB03892BED
:104E3000D1F68091E800877F8093E8000E94C7291F
:104E40008091A803809318010E94EB080895809137
:104E5000A603813241F68091E800877F8093E800C5
:104E60000E94C7298091A9038093340308958091FB
:104E7000A603813A09F0B7CF8091E800877F80933D
:104E8000E8008091E80080FFFCCF80913403C1CF1F
:104E900084B7877F84BF0FB6F894A895809160008F
:104EA000886180936000109260000FBE80E890E0FF
:104EB0000FB6F89480936100909361000FBE0E943A
:104EC000EF2408950E94172A0E94742AE2EEF0E06F
:104ED00080818460808378940E94F32C08958EE012
:104EE00091E00E94C22308958091A503853031F49A
:104EF0008091A503853019F00E946A2508950E94CB
:104F00003F258091A303882399F30E94FC248823E2
:104F100079F30E9422280E94EB08EACFA0E2B0E0D9
:104F2000E4E9F7E20C943F2D8091A503843009F564
:104F300083E08093E9008091E80082FF1AC08091AD
:104F4000E80090E085FF09C050E040E060E270E0DA
:104F5000CE0101960E94872891E08091E8008B772E
:104F60008093E800992329F060E2CE0101960E9427
:104F7000A122A096E2E00C945B2D9A014091AC0333
:104F80005091AD030E94C5270895492F55274330FE
:104F9000510521F168F44130510509F449C042300E
:104FA000510509F44AC090E080E050E040E029C09B
:104FB0004132510581F142325105A9F76330710543
:104FC00090F7FB01EE0FFF1FE955FE4F4081518125
:104FD0006C557E4FFB01808190E013C09927813092
:104FE000910599F0009741F08230910589F003977F
:104FF000D1F6E0E3F4E002C0E0E7F4E0849190E071
:10500000AF01F901518340830895ECE5F4E0F6CF58
:10501000EEE4F4E0F3CF6330710528F6660F771FF6
:10502000FB01E355FE4F4081518189E090E0E9CFDB
:1050300082E190E04FEC54E0E4CF8BE590E044E770
:1050400054E0DFCF80E189BD82E189BD09B400FE73
:10505000FDCF8091D8008F7D8093D8008091E000B3
:1050600082608093E0008091E00081FDFCCF089594
:10507000AF92BF92CF92DF92FF920F931F93CF9385
:10508000DF936C01EB018A010E94E629F82E811161
:1050900023C00115110539F0F80180819181C81BE9
:1050A000D90BC80ED91EB12CA12C2097A9F0809144
:1050B000E80085FD22C08091E8008E778093E800AB
:1050C00001151105A1F0F80180819181A80EB91E8A
:1050D000B182A08285E0F82E8F2DDF91CF911F91B4
:1050E0000F91FF90DF90CF90BF90AF9008950E94F6
:1050F000E6298823D1F2F82EEFCFF60181916F01D6
:105100008093F1002197FFEFAF1ABF0ACECFAF9285
:10511000BF92CF92DF92FF920F931F93CF93DF93B3
:105120006C01EB018A010E94E629F82E811123C04F
:105130000115110539F0F80180819181C81BD90B47
:10514000C80ED91EB12CA12C2097A9F08091E8009F
:1051500085FD22C08091E8008B778093E8000115DF
:105160001105A1F0F80180819181A80EB91EB182CC
:10517000A08285E0F82E8F2DDF91CF911F910F91A6
:10518000FF90DF90CF90BF90AF9008950E94E629E6
:105190008823D1F2F82EEFCF8091F100F6018193B0
:1051A0006F012197FFEFAF1ABF0ACECFFC018091AC
:1051B000AC039091AD0386179707A0F061157105B8
:1051C00029F49091E8009E779093E80090E06115B3
:1051D000710551F4911108C08091E80082FF34C03C
:1051E00080E00895BC01F2CF8091A5038823C1F12E
:1051F0008530C1F18091E80083FD30C08091E800E6
:1052000082FDEACF8091E80080FFE1CF8091F3003A
:105210002091F200382F6115710519F02830310501
:1052200058F091E02830310509F090E02091E80035
:105230002E772093E800CBCF81918093F1006150CD
:1052400071092F5F3F4FE7CF8091A503882341F07D
:10525000853041F08091E80083FFBECF81E0089562
:1052600082E0089583E00895FC018091AC03909161
:10527000AD0386179707A0F06115710529F4809199
:10528000E8008E778093E80090E06115710551F495
:10529000911108C08091E80082FF35C080E0089538
:1052A000BC01F2CF8091A5038823C9F18530C9F1F3
:1052B0008091E80083FD31C08091E80082FDEACF53
:1052C0008091E80080FFE1CF8091F3002091F2000F
:1052D000382F6115710519F02830310558F091E02B
:1052E0002830310509F090E08091E8008E778093B6
:1052F000E800CBCF84918093F10031966150710921
:105300002F5F3F4FE6CF8091A503882341F0853082
:1053100041F08091E80083FFBDCF81E0089582E0F5
:10532000089583E00895982F973028F08F70809328
:10533000E90081E008959093E900242F762F50E052
:10534000981731F07091EC002091ED005091F00031
:1053500021FD02C09F5FE8CF3091EB003E7F30938C
:10536000EB003091ED003D7F3093ED003091EB008C
:1053700031603093EB007093EC002093ED0050937C
:10538000F0002091EE0027FDE5CF80E008958091A8
:10539000A60387FF13C08091E80082FF06C08091BA
:1053A000E8008B778093E80004C08091A503811109
:1053B000F2CF08958091A5038823D9F38091E80066
:1053C00080FFF8CF8091E8008E77ECCF2091E40049
:1053D0003091E50095E6A9012091EC00822F8170C3
:1053E00020FF06C08091E80080FF06C080E008959D
:1053F0002091E80022FD1AC08091A503882389F03E
:10540000853089F08091EB0085FD0FC02091E4008C
:105410003091E50042175307F9F29150E1F684E02C
:10542000089582E0089583E0089581E008950E9440
:10543000862A0E948E2AE0EEF0E0808181608083DF
:10544000E8EDF0E080818F77808319BCA7EDB0E0B4
:105450008C918E7F8C9380818F7E80831092A403A9
:1054600008950F931F93CF93DF930E94862A0E9483
:105470008E2AC8EDD0E088818F7788838881806804
:10548000888388818F7D888319BC1092A503109230
:10549000A1031092A3031092A20300EE10E0F80102
:1054A00080818B7F808388818160888342E060E097
:1054B00080E00E949329E1EEF0E080818E7F80837E
:1054C000E2EEF0E08081816080838081886080836B
:1054D000F80180818E7F8083888180618883DF915D
:1054E000CF911F910F910895E8EDF0E080818F7EBC
:1054F0008083E7EDF0E080818160808384E082BF7B
:1055000081E08093A4030E94312A0895E8EDF0E041
:1055100080818E7F80831092E20008951092DA00DD
:105520001092E10008951F920F920FB60F9211246E
:105530002F933F934F935F936F937F938F939F939B
:10554000AF93BF93EF93FF938091E10082FF0BC075
:105550008091E20082FF07C08091E1008B7F809301
:10556000E1000E94F22C8091DA0080FF19C0809146
:10557000D80080FF15C08091DA008E7F8093DA001A
:105580008091D90080FF96C080E189BD82E189BD0C
:1055900009B400FEFDCF81E08093A5030E9445265B
:1055A0008091E10080FF19C08091E20080FF15C06A
:1055B0008091E2008E7F8093E2008091E200806122
:1055C0008093E2008091D80080628093D80019BC5B
:1055D00085E08093A5030E9459268091E10084FF15
:1055E0002BC08091E20084FF27C080E189BD82E169
:1055F00089BD89B5982F917080FFFBCF8091D8002D
:105600008F7D8093D8008091E1008F7E8093E100B0
:105610008091E2008F7E8093E2008091E2008160C1
:105620008093E2008091A103882309F449C084E0BB
:105630008093A5030E9462268091E10083FF29C028
:105640008091E20083FF25C08091E100877F8093F5
:10565000E10082E08093A5031092A1038091E10014
:105660008E7F8093E1008091E2008E7F8093E20044
:105670008091E20080618093E20042E060E080E09F
:105680000E9493298091F00088608093F0000E942E
:105690005626FF91EF91BF91AF919F918F917F918E
:1056A0006F915F914F913F912F910F900FBE0F908F
:1056B0001F90189519BC1092A5030E94532670CF15
:1056C0008091E30087FD93E09093A503B3CF1F92F1
:1056D0000F920FB60F9211242F933F934F935F9326
:1056E0006F937F938F939F93AF93BF93CF93DF93EA
:1056F000EF93FF93D091E900DF708091EC00C82F09
:10570000C17080FDC0E81092E9008091F000877FB1
:105710008093F00078940E94AB2B1092E900809166
:10572000F00088608093F000CD2BCF70C093E9002B
:10573000FF91EF91DF91CF91BF91AF919F918F91A9
:105740007F916F915F914F913F912F910F900FBE7D
:105750000F901F901895AAE2B0E0E1EBFBE20C94E9
:105760003E2D86EA93E02091F100FC012193CF01C8
:10577000F3E08E3A9F07B9F70E948C268091E800EB
:1057800083FF1EC18091A6039091A7039A3008F071
:1057900017C1E92FF0E0E15BF14D0C94222D803828
:1057A00099F0823809F00CC18091AA038F7087307C
:1057B00008F006C18093E9008091EB0085FB882703
:1057C00080F91092E90006C08091A2039091A30392
:1057D000911182609091E800977F9093E800809308
:1057E000F1001092F1008091E8008E77E5C08823E7
:1057F00009F4D3C0823009F0E3C08091A80381117D
:10580000D6C08091AA038F702FEF280F263008F0A2
:10581000D7C08093E9002091EB0020FFC8C09330EF
:1058200031F48091EB0080628093EB00C0C09091D6
:10583000EB0090619093EB0021E030E001C0220F7B
:105840008A95EAF72093EA001092EA008091EB0033
:105850008860EACF8111B4C01091A8031F778091AE
:10586000E3008078812B8093E3008091E800877FBC
:105870008093E8000E94C7298091E80080FFFCCF58
:105880008091E30080688093E30082E0111183E05F
:105890008093A50395C08058823008F091C0809114
:1058A000A8039091A9038C3D23E09207A1F583E022
:1058B0008A838AE289834FB7F894DE01139620E049
:1058C0003EE051E2E32FF0E050935700E49120FFD7
:1058D00003C0E295EF703F5FEF708E2F90E0EA30EB
:1058E000C0F0C7968D939D932F5F243159F74FBF1A
:1058F0008091E800877F8093E8006AE270E0CE0143
:1059000001960E94D6288091E8008B778093E8006A
:1059100057C0C096E7CF6091AA037091AB03AE0168
:105920004F5F5F4F0E94BD27BC01892B09F448C01F
:105930009091E800977F9093E80089819A810E9476
:105940003429E1CF8038E1F58091E800877F8093AA
:10595000E8008091A1038093F10045CF811130C010
:105960009091A803923060F58091E800877F809342
:10597000E8009093A1030E94C7298091A103882386
:1059800011F084E005C08091E30087FDFACF81E04B
:105990008093A5030E946D2613C08091A8038130D7
:1059A00079F481E0933009F080E08093A3031092B2
:1059B000E9008091E800877F8093E8000E94C72972
:1059C0008091E80083FF0AC08091E800877F809380
:1059D000E8008091EB0080628093EB00AA96E3E000
:1059E0000C945A2D0895CF938091A5038823A1F09C
:1059F000C091E900CF709091EC00892F817090FDEB
:105A000080E8C82B1092E9008091E80083FD0E9495
:105A1000AB2BCF70C093E900CF91089597FB072E71
:105A200016F4009407D077FD09D00E94662D07FC7C
:105A300005D03EF4909581959F4F0895709561959E
:105A40007F4F0895EE0FFF1F0590F491E02D09940C
:105A500069279627692778278727782708952F921F
:105A60003F924F925F926F927F928F929F92AF92EE
:105A7000BF92CF92DF92EF92FF920F931F93CF933B
:105A8000DF93CDB7DEB7CA1BDB0B0FB6F894DEBFD2
:105A90000FBECDBF09942A88398848885F846E84F8
:105AA0007D848C849B84AA84B984C884DF80EE8042
:105AB000FD800C811B81AA81B981CE0FD11D0FB64B
:105AC000F894DEBF0FBECDBFED010895AA1BBB1B2E
:105AD00051E107C0AA1FBB1FA617B70710F0A61BEE
