:100000000C94F6020C942E030C942E030C942E03E5
:100010000C942E030C942E030C942E030C942E039C
:100020000C942E030C942E030C94112A0C94E52AA4
:100030000C9496240C942E030C942E030C942E03F3
:100040000C942E030C942E030C942E030C942E036C
:100050000C942E030C941D250C942E030C942E034B
:100060000C942E030C942E030C942E030C942E034C
:100070000C942E030C942E030C942E030C942E033C
:100080000C942E030C942E030C942E030C942E032C
:100090000C942E030C942E030C942E030C942E031C
:1000A0000C942E030C942E030C942E031F0021009D
:1000B0002300250027002A001E0020002200240023
:1000C00026002D0014000800170018001200380048
:1000D000167C1A0015001C000C0013000400070019
:1000E0000A000D000F0028412B41160009000B00EB
:1000F0000E0033001D0006000500100037001B7CB9
:100100001A7C1B001900110036005200E3004C421B
:100110000000000050004F00E000E20028422C00E8
:10012000340051003B003D003F00410043002A00E5
:100130003A003C003E004000420044001E00200007
:10014000220024002600380029001F00210023007F
:10015000250027003A003C003E002D000000010071
:1001600001003B003D0031022E0031003F00410004
:10017000430030003700E500E100400042002F005E
:1001800036004B00E3000100000000004A004D0073
:10019000E000E20001002C0034004E001F022102AA
:1001A0002302250227022A001E0220022202240224
:1001B0002602007C1E0220022202240226023102B4
:1001C00029001F022102230225022702000000004D
:1001D00000002D02000028002B000000000031006C
:1001E0002E02000000000000000030023700E50091
:1001F000E100000000002F023600A900E30001002A
:10020000000000004A004D00E000E20001002C0068
:100210003400AA00FD377A585A000004E6D6B446E6
:100220000200210116000000742FE5A3E002B701CF
:10023000415D003D888986D3DC0AE8510E4835F4DB
:10024000313E9685F1D1A89D246140DCFCA1538804
:100250003E6C851099263FF96FCFCCA508DE4A0E7B
:10026000BC6FA71AB14D4F1A041C40C0DD140840E2
:100270007B469259B0E997A62FCCA9DA162EAAB8D8
:10028000B9EBBEF7441C956C6CACB1C1A96D31EFF4
:10029000A7B1F528E633F1A6D720C26469526F09E9
:1002A00067B1C0BEFC715479F6134D8038F32E60EF
:1002B0005424E66DE91B1F4947D30FF8426C71CDFA
:1002C0007B542408B8FD9D4972665102C3586CE204
:1002D00092661AB8A2035B7AAD08B07713A963726D
:1002E00046C8D30A21065F3B5BEE8F98F983BFDCDB
:1002F0008624CDD72F63293A294297977E3E412BFA
:1003000023A5AFC045CDB705CAE1FC4F0B17407D13
:1003100061EEFD0108AA5CF27FB51689B1C96F33A1
:10032000FE57814EAA4F799C885C93B27E42D97B5E
:10033000D2CCD1AF33C9E85B9E6E8C134D6420F6EE
:100340004BA6F228A37F7A5834B109514DC742F821
:100350007B6CDC0A421537EB380A9CA2BCA707313C
:100360000797B40EDBE7EE97F63AA0082DACDA1942
:10037000890B9BF600000000B9991D3A34D54B1942
:100380000001DD02B8050000D22C38C9B1C467FBFA
:10039000020000000004595A0000000000000000A4
:1003A0002A2B2800000000000000000000000000D0
:1003B00000000029000000002C1E342021222434DB
:1003C0002627252E362D3738271E1F2021222324AD
:1003D00025263333362E37381F0405060708090A49
:1003E0000B0C0D0E0F101112131415161718191AE5
:1003F0001B1C1D2F3130232D350405060708090A63
:100400000B0C0D0E0F101112131415161718191AC4
:100410001B1C1D2F3130354C000000000000000077
:1004200000000000000000000000000000000000CC
:100430000000000000000000000000007E0F00D45B
:10044000FFFFFFC7000000781C0376006900610011
:100450006C003A006600360034006300320062002F
:100460003300630000001E0373006C007A00340048
:1004700030005F007200650064006100630074007A
:1004800065006400000012035300690074006800F6
:100490004C006F00720064000000040309040902AC
:1004A0005B00030100A0FA09040000010301010040
:1004B0000921110100012244000705810308000100
:1004C00009040100020300000009211101000122BA
:1004D0002200070582032000010705030320000115
:1004E000090402000103000000092111010001229A
:1004F0007B000705840320000112010002000000B8
:1005000008EDFE00000001010203010660FF096121
:10051000A1010962150026FF0095207508810209D6
:1005200063150026FF00952075089102C00501099A
:1005300002A10185020901A1000509190129081577
:100540000025019508750181020501093009311561
:1005500081257F95027508810609381581257F95CB
:100560000175088106050C0A38021581257F950161
:1005700075088106C0C005010980A1018503190124
:100580002AB700150126B700950175108100C00536
:100590000C0901A101850419012AA002150126A058
:1005A00002950175108100C005010906A10105072A
:1005B00019E029E7150025019508750181029501CB
:1005C000750881010507190029FF150026FF009510
:1005D00006750881000508190129051500250195F2
:1005E0000575019102950175039101C011241FBE8B
:1005F000CFEFDAE0DEBFCDBF04B603FE18C08091B6
:10060000AC039091AD03A091AE03B091AF038730DE
:10061000904BA740B04B59F41092AC031092AD032D
:100620001092AE031092AF03E0E0F8E3099511E0F9
:10063000A0E0B1E0EEEAFBE502C005900D92A23B1E
:10064000B107D9F723E0A2EBB1E001C01D92AC3AAB
:10065000B207E1F70E94D1130C94882D0C9400008E
:100660008330B8F46A30A8F4463098F450E096E04D
:10067000699F400D511D1124FA019CE3899FE00DF3
:10068000F11D1124EE0FFF1FE455FF4F859194914A
:10069000089581E090E008959C013A9521153F412D
:1006A00050F5FC01EE27F170BC0166277270AC01B9
:1006B000442754709C012227387094FF0EC080E1BB
:1006C000EF2B09F480E0672B09F08062452B09F0DD
:1006D0008064232B89F08068089581E0EF2B09F472
:1006E00080E0672B09F08260452B09F08460232BA2
:1006F00019F08860089580E00895CF93DF93EB01AF
:100700000E944C03FE010995DF91CF910895CF938C
:10071000DF93EC01805E9109089720F060E778E0B4
:10072000209711F468E076E0CE010E947D038C2FC3
:100730000E946B05DF91CF910895CF93DF93EC0179
:100740000E94B405CE01805E9109089720F067E70A
:1007500078E0209711F46FE076E0CE010E947D03EF
:10076000DF91CF91089581E008950E94B303089529
:1007700081E008950E94B30308950E94BA0308958A
:1007800008950E94C0030895A6E0B0E0EAECF3E00B
:100790000C94BC2C49835A839E833091B901898182
:1007A0009A8131111AC03E81332399F0222389F0B6
:1007B0000E94C309182F682F89819A810E949F097E
:1007C00069817A81812F0E9468112696E3E00C945A
:1007D000D82C0E94B109182FF3CF0E94C309698158
:1007E0007A81F1CFFC01262F87819085009741F413
:1007F0004081518162817381848195810E94C4030B
:1008000008950F931F93CF93DF93EC0161E00E9453
:10081000F2038C01BE010E94B503882351F0BE0192
:10082000C8010E94CF178170DF91CF911F910F9166
:10083000089580E0F8CFCF93DF93EC0160E00E9451
:10084000F203BE010E94C103DF91CF91089581E0C0
:1008500008950E9427040895CF93C82F0E949408FA
:100860008C2F0E9429042FEF84E39CE021508040CC
:100870009040E1F700C00000CF91089581E00E9410
:100880002C040E944125089580E00E942C040E94BF
:10089000652508950F931F93CF93DF93EC018B0190
:1008A0000E940E22811106C080E0DF91CF911F913E
:1008B0000F910895B801CE010E94F9158823A1F384
:1008C000B801CE010E94BD03882371F3B801CE01A7
:1008D0000E941C21882341F3B801CE010E94331CE1
:1008E000882311F3B801CE010E94091C8823E1F28C
:1008F000B801CE010E9460218823B1F2F801858100
:10090000882361F0C330FCE7DF07E9F058F4C11534
:10091000ECE7DE07A9F0C130DC47B9F0C8010E945E
:10092000B803C3CFCB358CE7D807A9F0CC35ECE7BB
:10093000DE0771F0CA35DC4789F70E94A10EEECFC1
:100940000E943E04B1CF0E94A90E0E944404ACCF85
:100950000E94970EE3CF0E94A50EE0CFCF93DF93C6
:10096000EC0161E00E94F203BE010E944A04DF91A3
:10097000CF9108950E9473240E94F20408950E946A
:10098000F6040E9478240895982F92959F7011F094
:10099000892F94E0282F2695269511F09E5F822FAF
:1009A000869509F09F5F892F0895089581E0089545
:1009B0000895CF93DF93D82F0E94D604C82F8823A1
:1009C00019F08D2F0E94D8048C2FDF91CF910895BC
:1009D0000895CF93C82F0E94D5048C2F0E94D9046C
:1009E000CF91089580E00E94E90408950E94492370
:1009F0000E94E9040895CF930E944923C82F809153
:100A0000B4018C1779F0C093B4010E940225609361
:100A1000B5017093B6018093B7019093B8018C2F04
:100A20000E94E904CF910895AFE0B0E0EAE1F5E07B
:100A30000C94BB2C4A875B876C877D878E879F874A
:100A400091110E949E0D1F821886198686E0FE0174
:100A50003A96DE01119601900D928A95E1F7809108
:100A6000340382FF0CC00E94610D882319F082E0DC
:100A70000E946B0E0E94480D81110E94F10D8D8124
:100A800081110FC009811A812B813C814D815E81CA
:100A90006F81788589850E94BC0C2F96E4E00C94C8
:100AA000D72CCE0101960E9401048111EBCFF5CF26
:100AB000FC012481213021F4808191810E94F00980
:100AC0000895662329F00E94941D0E94791E0895BE
:100AD0000E94001EFACFCF93C82F882399F08CEF85
:100AE0008C0F813A88F48C2F0E94CE23882329F022
:100AF0008C2F0E9411240E943C0E8C2F0E940924EE
:100B00000E943C0ECF91089580E28C0F883048F40B
:100B1000C77081E001C0880FCA95EAF70E94810D75
:100B2000EFCFEBE5EC0FE33040F4F0E0E95AFE4F95
:100B3000808190E00E946F23E5CFE8E5EC0FEB3178
:100B400050F4F0E0EE0FFF1FEF5DFE4F80819181CA
:100B50000E949423D7CF83E38C0F833198F661E012
:100B60008C2F0E946105CECF882381F19CEF980FD6
:100B7000913A28F40E9411240E943C0E089590E2BC
:100B8000980F983050F4877091E001C0990F8A95C2
:100B9000EAF7892F0E94870DEFCF9BE5980F9330DE
:100BA00028F490E080E00E946F23089598E5980F64
:100BB0009B3128F490E080E00E949423089593E311
:100BC000980F933118F460E00E94610508951F9317
:100BD000CF93DF93182FEB010E946B05209739F418
:100BE000812F0E94B405DF91CF911F9108958FE965
:100BF0009FE00197F1F700C000002197EFCF70E070
:100C000060E0893311F460E570E00E94E705089523
:100C1000882321F00E94810D0E943C0E08958823B4
:100C200021F00E94870D0E943C0E0895B0E0A0E0E4
:100C3000ECE1F6E00C94B62C6C01D62FC72FFC012A
:100C40000581F680F2949FE0F9220E94770DE82E4C
:100C50008823F9F0E02E0023E1F08C2F807F803490
:100C600061F080E28D0F883010F18C2F807E803211
:100C700021F4D230E0F0FF20D1F08091340382FFE4
:100C800016C082E00E946B0E0E94770D91E0E82E64
:100C9000E926BC2EB2948FE0B822FBE0FB1508F4E5
:100CA00060C0EB2DF0E0E657F24D0C94A02CE12C47
:100CB000F0CF1C2F1F70C07F11F01295107F002302
:100CC00099F0112359F080E28D0F883010F0D11186
:100CD00007C0812F0E94810D0E943C0E8D2F39C0CC
:100CE000812F0E94910DF8CF8D2F0E94B405112302
:100CF000C1F180E28D0F883010F0D11104C0812F36
:100D00000E94870D03C0812F0E94970D0E943C0E08
:100D100028C01C2F1F70C07FC03211F01295107FA9
:100D2000DD2349F0D13009F46EC0002309F47AC004
:100D3000FF20E1F1D3CF8091340382FD33C0002343
:100D400059F0112329F0812F0E94810D0E943C0E41
:100D500080E00E946B0505C080E00E94B40511117F
:100D6000CECFEB2DE850FF0B349720F40E9449239F
:100D70000E94E904EE2089F00E945D0D80FD0DC007
:100D8000F60115820E94570D0E941309C6010E94A8
:100D90004D080E94570D0E941F09CDB7DEB7E9E04C
:100DA0000C94D22C0023D1F0F11004C0812F0E94AA
:100DB0000806D7CF21E0F21204C0812F0E94C10D96
:100DC000D0CF35E0F312CDCF812F0E940806812FBE
:100DD0000E94D80D812F0E94A50DC3CFF1100AC02B
:100DE000812F0E940F06812F0E94D80D812F0E9413
:100DF000B10DB7CF81E0F812B4CF0E947E0D8123F0
:100E000009F4AFCFEDCF002329F095E09F1508F44A
:100E1000A8CFCCCFE4E0EF1508F4A3CF812F0E9438
:100E20000F069FCFFF20D1F3D93349F4FFEF27EE10
:100E300033E0F15020403040E1F700C000008D2F3A
:100E40000E94B4058ECF8C2F86958695837069F0AD
:100E5000813009F086CF8D2F9C2F9370011102C035
:100E600080E090E00E9494237CCF8D2F9C2F937084
:100E7000011102C080E090E00E946F2372CF602FCA
:100E80008D2F0E9461056DCF8C2F837079F5011134
:100E900068CF4D2F429546954770440F440F8D2FD4
:100EA0008F70042E01C0880F0A94EAF72D2F20714D
:100EB000D4FF07C02FE030E001C0220F4A95EAF7C7
:100EC0002095C695C695C370822BC23049F058F460
:100ED000C13019F00E94EF0844CF0E94E90841CFC9
:100EE0000E94F5083ECF0E94E6083BCF869500237E
:100EF00011F08C2F8170882309F433CF4D2F429548
:100F000046954770440F440F8D2F8F70042E01C0FB
:100F1000880F0A94EAF72D2F2071D4FF07C02FE025
:100F200030E001C0220F4A95EAF72095C695C69594
:100F3000C370822BC23049F058F4C13019F00E94BE
:100F40003E090FCF0E9438090CCF0E94440909CFF7
:100F50000E94010906CFCF70002329F08C2F0E9438
:100F600013098D2F24CF8D2F0E940F068C2F0E94E6
:100F70001F09F7CED23F51F160F4D03FB9F0D13F15
:100F800081F0002309F45AC0F110A8CE8C2F8F7184
:100F900021C0D33F11F1D43FA1F78091340382FDEA
:100FA00026C08C2F8F71002311F314C0002349F049
:100FB00084E08F1508F4D5CE8C2F8F710E942C09F8
:100FC000D0CE95E09F1508F4CCCEF6CF8C2F8F7144
:100FD0000111CDCF0E941309C4CE002329F08C2F1C
:100FE0008F710E940A09BDCE0E940609BACE002365
:100FF000C1F00E945D0D843041F40E94610E8C2F7F
:101000008F710E941F09E12CACCEE4E0EF15D8F3FC
:10101000CF718C2F0E94130963E08C2F0E94430E26
:10102000F2CFF4E0FF1530F40E94610E64E08C2FE3
:101030008F71F4CF81E00E946B0EE5CFFF2059F055
:10104000D93309F0FCCE2FEF37EE83E0215030404A
:101050008040E1F7F2CE8C2F8F7189CF0F931F93D1
:10106000CF93DF93EC018F819885009781F00E94E8
:101070004A108C010E944A090E94E508B801CE017D
:101080000E941606DF91CF911F910F9108956881FC
:1010900079818D810E94FB09ECCFCF93DF93EC0126
:1010A0008C81882399F0CE010E94AE04811111C079
:1010B0000E94770D882351F08D81882339F080912B
:1010C000340382FF03C082E00E946B0EDF91CF9158
:1010D0000895CE010E942E08CE010E941B04F6CF77
:1010E000882321F00E94910D0E943C0E08958823D0
:1010F00021F00E94970D0E943C0E089590E080E040
:101100000E946F2390E080E00E9494230E949E0D35
:101110000E943C0E0E94951E0E94791E08950E9416
:1011200019240E947E0808950E948E0D0E948F0847
:10113000089592959F70963091F058F4925F9F7049
:10114000923058F4803F19F030F4883E30F481E05A
:1011500008959A5FF4CF843FD1F380E00895883EEC
:10116000B0F3813FD1F7F3CFFC018481882371F084
:1011700087819085009729F00E944A100E94990863
:101180000895808191810E94F009F8CF80E0089550
:10119000A6E0B0E0EEECF8E00C94BD2C2696E2E080
:1011A0000C94D92CA9E0B0E0E8EDF8E00C94BB2C4D
:1011B0002996E4E00C94D72C08950E94DC08089549
:1011C0000E94DD088093D301089508950E94E008ED
:1011D00008959091D301892B0E94E0080895909181
:1011E000D30189230E94E00808959091D3018927B3
:1011F0000E94E00808950E94DC0808950E94FB0800
:1012000008950E94FE088093D201089580E00E9414
:101210000109089591E001C0990F8A95EAF7892F95
:101220000E940109089521E030E001C0220F8A9553
:10123000EAF78091D201822B0E940109089521E0F2
:1012400030E001C0220F8A95EAF720958091D20103
:1012500082230E940109089521E030E001C0220F9D
:101260008A95EAF78091D20182270E9401090895A8
:101270009091D201892B0E94010908959091D20189
:1012800089230E94010908959091D20189270E9423
:10129000010908950895262F277091E001C0990F44
:1012A0002A95EAF723E0769567952A95E1F7FB0101
:1012B000EE0FFF1FE60FF71FE40FF51F50E040E0B1
:1012C000682F70E08191DF0111979B01042E02C00D
:1012D000369527950A94E2F721702195282729232E
:1012E00028272C934F5F5F4F4330510559F70895DE
:1012F000A82FA77023E0969587952A95E1F7FC0122
:10130000EE0FFF1FE80FF91FE60FF71F50E040E058
:1013100080E0219130E00A2E02C0369527950A948C
:10132000E2F721703327042E01C0220F0A94EAF756
:10133000822B4F5F5F4F4330510559F70895262F99
:101340009A3070F4863060F4682F70E086E0989FE1
:10135000600D711D11244AEB51E0822F0E944B0950
:101360000895292F9A3068F4863058F490E06AEB9B
:1013700071E036E0239F800D911D11240E947809B1
:10138000089580E00895CF92DF92FF920F931F930C
:10139000CF93DF936C010091D2018091D301082B90
:1013A000C3E0D0E010E0FC2EC8010C2E02C09595E1
:1013B00087950A94E2F780FD0CC02197A0F7F12CE5
:1013C0008F2DDF91CF911F910F91FF90DF90CF90E4
:1013D0000895B6018C2F0E948311019771F3F0CF0D
:1013E000CF93DF93EC010E94C309BE010E948311D9
:1013F000DF91CF9108951F93CF93DF93EB019091ED
:10140000B901992339F0CB010E94F009DF91CF9106
:101410001F910895882369F0CB010E94C309182FFA
:10142000682FCE010E949F09BE01812F0E94831167
:10143000EDCFCB010E94B109182FF6CFE1E0F0E02B
:10144000DF0102C0AA0FBB1F6A95E2F7BD01DF01F1
:1014500002C0AA0FBB1F4A95E2F76A2B01C0EE0F2C
:101460002A95EAF7962F9823961302C08E2B08959B
:10147000E0958E230895242F462F682F8091D20166
:101480000E941E0A0E9401090895FF920F931F9364
:10149000CF93DF93C091D40189E0F82E8091D501DC
:1014A0008C1305C0CDB7DEB7E5E00C94D62CD0E0A8
:1014B000FC9EF001FD9EF00D1124EA52FE4F0081CA
:1014C00011812281338144815581668177818085B4
:1014D0000E94D2082196C770E1CF0F931F9300910D
:1014E0001E0210911F022091200230912102409192
:1014F0002202509123026091240270912502809172
:1015000026020E94D2081F910F910895CF93DF9376
:1015100080912402807F09F04DC0809123028823AE
:1015200009F448C0E091D4015091D501C0911F0247
:10153000D0911E02609120027091210249E05E1755
:10154000C9F18E2F90E0E49FF0011124EA52FE4F82
:101550002481222391F1489FF001499FF00D11242D
:10156000DF01AA52BE4F11962C9111972C1325C062
:101570002C912D1322C015962C91159721111DC069
:1015800012962D913C91261B370B283C3105A8F46F
:10159000809124028F70806180932402E452FE4F78
:1015A00080818F70806180838EE192E00E944D087F
:1015B0000E94450ADF91CF910895FC013196E770B2
:1015C000BECF482F2091D4019091D50159E0291325
:1015D00002C080E0089530E0529FF001539FF00D6B
:1015E0001124EA52FE4F8181681306C0808148139E
:1015F00003C085818111EECF2F5F3F4F2770E7CF6A
:10160000A8E1B0E0E6E0FBE00C94B32C8C0186E0AE
:10161000F801DE01539601900D928A95E1F7F801E9
:101620008481E5809EE1A92E92E0B92E909122025C
:1016300091111FC08823D1F0EE20A9F0C8010E94AB
:10164000B408F82E882379F089E0F801D5010190DB
:101650000D928A95E1F7C5010E9458050E94860AFD
:101660000E946D0A68C0C8010E944D08FF24F394CF
:1016700062C0C080D18082809380F090230220914C
:10168000200230912102A401421B530BFF2009F4D8
:1016900020C1483C510508F0BFC0882309F44BC065
:1016A00090911F0280912402282F207F09F065C0AD
:1016B0009D111FC090911E02C9121BC040912502AE
:1016C00050912602278130854217530791F4E1108B
:1016D0004EC08F708061809324020E946D0A8EE15B
:1016E00092E00E944D0880912402F8018683F12C3B
:1016F00022C0E1103CC06D2D8C2D0E94E10A6D2DA1
:101700008C2D0E94E10AE82E8111F1CFCB8ADC8A70
:101710008B899C890E94F009292F22952F702430F3
:1017200078F49F702230A8F09923B9F0F8019681DF
:10173000907F99F4FE2C8F2D6896ECE00C94CF2CC2
:101740002A5F2F70223068F0C8010E944D08EF2CEC
:10175000F1CF992311F0882369F3805E883050F32C
:10176000F3CF803F38F3815F833070F7E3CF809110
:101770002402816080932402BACF9D111CC09091F5
:101780001E02C91218C040912502509126022781DD
:1017900030854217530779F4E1100DC08683C801E4
:1017A0000E944D0889E0F801AEE1B2E001900D928F
:1017B0008A95E1F755CFC8010E94B408882309F43F
:1017C00052CFEE2009F44FCF809124028032B8F03E
:1017D00020911E0230911F023B872A879D868C86AE
:1017E000909122029E871F86888B8091250290917E
:1017F00026029A8B898BCE010A960E944D0889E0B9
:10180000F801AEE1B2E001900D928A95E1F70E94F5
:10181000860A0E946D0A2ACF90912402292F207FE8
:10182000A1F4682D9E8A8D8AA6017E899E2D0E9434
:10183000C8088EE192E00E944D0889E0F5011192FE
:101840008A95E9F70E946D0A52CF882309F473CF75
:1018500080911F028D1119C080911E02C81215C0FF
:101860004091250250912602278130854217530767
:1018700061F4E1100AC09683C8010E944D0889E016
:10188000F50111928A95E9F756CFC8010E94B40874
:10189000882309F4E8CEEE2009F4E5CE80912402F5
:1018A000803208F4ACCF20911E0230911F023A839F
:1018B00029839C828B82909122029D831E828F833A
:1018C000809125029091260299878887CE01019602
:1018D00094CF483C510508F041C0882309F4C6CE96
:1018E000FE2CEE2009F4BFCE80911F028D1128C07E
:1018F00080911E02C81224C0209125023091260238
:101900008781908528173907D9F49091240290FD9A
:101910000EC0907F61F0809124028683903F09F48D
:101920003ECF982F907F905F8F70892B37CF89E0C3
:10193000F801AEE1B2E001900D928A95E1F7FBCE9D
:10194000C8010E94B40881115ACF8091240281609D
:1019500080932402C8010E944D08EDCE682D9E8A16
:101960008D8AA6017E899E2D0E94C80889E0F50116
:1019700011928A95E9F774CEA2E1B0E0E2ECFCE0C6
:101980000C94BA2C0A871B872C873D874E875F876C
:10199000688B798B8A8BCE010A960E94000B882374
:1019A000C9F04E85442351F00A851B852C853D8561
:1019B0005F85688979898A890E94D20889E0F82E32
:1019C0008091D4019091D50189133DC06296E5E0E4
:1019D0000C94D62C89E0FE013A96DE011196019016
:1019E0000D928A95E1F78E85882341F32091D501E8
:1019F00030E0C9010196877099274091D4014817BA
:101A0000190699F099E0929FD001939FB00D11248F
:101A1000AA52BE4FFE01319601900D929A95E1F7C0
:101A20008093D5010E94450AC9CF0E949408109264
:101A3000D5011092D40189E0EEE1F2E0DF011D92C0
:101A40008A95E9F7BBCF8F9DC00111248A529E4F22
:101A50000E94000B882309F4B9CFE091D401FE9EC7
:101A6000F0011124EA52FE4F00811181228133815D
:101A7000448155816681778180850E94D20880915A
:101A8000D40190E00196877099278093D40198CF74
:101A90000E94F6242091320230913302821B930B74
:101AA0009C0181E02838334108F480E0089580915A
:101AB00031028695869586950895809131028770CA
:101AC00008950E94F62420912F0230913002821B4B
:101AD000930B8838934148F08091310282FB88272C
:101AE00080F991E089278170089580E0FCCF909182
:101AF0003102977081E009F480E0089580913F02FF
:101B0000089590913F02892B80933F02089580951C
:101B100090913F02982390933F02089510923F02C4
:101B2000089590913E02892B80933E0208958095FE
:101B300090913E02982390933E02089510923E02A7
:101B4000089508950E94A10D089590913402292FBF
:101B50002823281729F0892B809334020E94A20D94
:101B6000089590913402292F282331F080958923FC
:101B7000809334020E94A20D089508950E94BD0D25
:101B80000895CF93C82F809135028C238C1771F064
:101B90000E94F624909333028093320280913502A2
:101BA0008C2B809335028C2F0E94BE0DCF9108950F
:101BB00090913502292F282381F0809589238093E5
:101BC0003502882359F00E94F624909333028093C3
:101BD0003202809135020E94BE0D089590E080E0AF
:101BE000F4CF80913502882349F01092350210928B
:101BF00033021092320280E00E94BE0D08950F93CE
:101C00001F93CF93DF930091000110910101C091C8
:101C10003F0280913E02C82B80913502882369F0F3
:101C20000E94480D81110E94F10D80913502C82B50
:101C30000E94B92381110E94F10DF801C083C09167
:101C40000001D091010148E050E067E272E0CE016E
:101C50000E94012D892B59F088E0FE01A7E2B2E035
:101C600001900D928A95E1F7CE010E945623DF91F3
:101C7000CF911F910F9108950E94FF0D089508952F
:101C80000E943F0E08959091340392FF17C098E090
:101C9000899F90011124622B609331020E941309E5
:101CA0000E94F6249093300280932F02809131029B
:101CB0008695869586950E94400E08950E94130988
:101CC0000895109231021092300210922F0280E09B
:101CD0000E94400E0895909131028095892380934F
:101CE0003102282F277069F4891759F09091340335
:101CF00092FF07C08695869586950E941F090E94CF
:101D0000610E08959091340392FB222720F9281741
:101D100069F080FB92F990933403809133039091A2
:101D200034030E94CB0E82E00E946B0E08958091D6
:101D3000340382FB882780F991E089270E94820E74
:101D4000089581E00E94820E089580E00E94820E34
:101D500008956FEF7FEF90E080E00E946A2D089574
:101D600090E080E00E94362D863E9E4F19F40E943E
:101D7000A921089580E0089582E090E00E942E2D30
:101D8000089583E090E00E942E2D089584E090E075
:101D90000E94362D0895BC0184E090E00E946A2DD7
:101DA0000895AB01BC018FE090E00E945E2D089584
:101DB000AB01BC0183E190E00E945E2D089560E0DC
:101DC00070E0CB010E94D80E089560E070E0CB0176
:101DD0000E94D10E0E94DF0E0895A8E0B0E0E3EF6C
:101DE000FEE00C94BD2C66EE7EEF90E080E00E9459
:101DF0006A2D60E082E090E00E944C2D81E08093AB
:101E0000D30161E083E090E00E944C2D60E074E13A
:101E100084E090E00E946A2D60E086E090E00E94FD
:101E20004C2D60E087E090E00E944C2D40E050E0B7
:101E3000BA0188E090E00E945E2D60E084E290E0CC
:101E40000E944C2D60E087E190E00E944C2D60E004
:101E50008CE090E00E944C2D60E08DE090E00E94CC
:101E60004C2D19821A821B821C821D821E821F82A7
:101E7000188648E050E068E170E0CE0101960E94CB
:101E80003C2D40E050E0BA0180E290E00E945E2DDF
:101E900080E00E94C2210E94F1210E94E50E289656
:101EA000E2E00C94D92C0E94ED0E0895682F8EE08C
:101EB00090E00E944C2D0895A6E0B0E0E2E6FFE03D
:101EC0000C94BB2C0E94F6248C01809140029091CE
:101ED00041028017910781F019821A820E94F6242C
:101EE000682F49815A81792F80E090E00E94140583
:101EF00010934102009340022696E4E00C94D72C04
:101F00000E94022560935002709351028093520206
:101F10009093530260934C0270934D0280934E0253
:101F200090934F020895089508950E94930F089585
:101F300008950E94980F089589E792E10E94DE13A8
:101F40000E9437140E94940F0E94950F089581E01B
:101F500008950E94A70F08950E94A70F089508955D
:101F600008950E94AF0F0E94B00F08950E94B00E16
:101F7000811102C00E94530F0E94BC0E8093540234
:101F80000E94C60E90933403809333030E94191667
:101F90000E94C10E0E94E6088091D2010E94FE08B4
:101FA00008950E94ED240E9401220E9438130E948D
:101FB000B60F0E94E8040E94990F0895A6E0B0E0D1
:101FC000E4EEFFE00C94B42C0E94A90F81110CC028
:101FD0000E945C0F0E9488170E94B71E0E94FB049B
:101FE0002696EBE00C94D02C0E944E1382E4A82E8F
:101FF00082E0B82E750110E0F70101917F01812F79
:102000000E9497121F5F1A3009F441C00817A1F30C
:102010008091540281FD0E949D120E94AC0FC82E37
:1020200010E099249394812F0E949712082FF501B4
:1020300081915F01081729F1D02ED826F12CEE24CA
:10204000E3948D2D8E21A9F0CC2099F0F9821A838A
:102050000E94F6249C838B839D8291E0802F8E21A9
:1020600009F490E049815A816B817C818D810E94C5
:102070001405F394EE0CF6E0FF12E3CFF50131976F
:1020800000831F5F1A3079F60E94800FA3CF0813D8
:10209000BFCF9ECF1F93CF93DF930E948811EC0197
:1020A000C11580E5D807F0F5C11580E4D80708F020
:1020B0009CC0C03ED10520F5CD3CD10508F082C0C2
:1020C000C83AD10578F4C53AD10508F073C0C130DB
:1020D000D10519F1209709F1C430D105F0F4D0E011
:1020E000C0E01BC0C33CD105D0F7C85AD0E0CC0F2C
:1020F000DD1FC65ADE4F0990D881C02DD4640DC0B3
:10210000C11580E2D80708F0D1C0C11581E0D80719
:1021100008F05AC0C83ED10510F7CE01DF91CF912B
:102120001F910895C03682E5D80718F5C03482E5BE
:10213000D80708F06BC0C03282E5D80708F05FC04E
:10214000C11582E5D80708F497C02C2F269526954F
:1021500080E2289F900111248C2F8370C1E0D0E091
:1021600002C0CC0FDD1F8A95E2F7C22BD32BDD68AE
:10217000D4CFC03A82E5D80760F4C03882E5D807EA
:1021800008F459C0CF71D0E0DC2FCC27C46FD06ADF
:10219000C4CFC03C82E5D80708F462C0C03E82E5E7
:1021A000D80708F09CCFDC2FCC27CC27DF71C06F7D
:1021B000D06AB3CFC55AD0E0C057DE4FC881D0E057
:1021C000D064ABCFD065A9CF8D2F0E942A12182FD3
:1021D000CE0199270E948811C12FD0E0DC2FCC2797
:1021E000CC27DF71C82BD92B98CFCE0199270E941D
:1021F0008811CC27DF70C82BD92BD06A8ECFCF7136
:10220000D0E0DC2FCC27C16FD06A87CF2C2F26954A
:102210002695277080E2289F900111248C2F8370CF
:10222000C1E0D0E002C0CC0FDD1F8A95E2F7C22BDF
:10223000D32BDC6872CF2C2F26952695277080E251
:10224000289F900111248C2F8370C1E0D0E002C040
:10225000CC0FDD1F8A95E2F7C22BD32BDA685DCF56
:102260008C2F8F710E942A12C82FD0E0DC2FCC2730
:10227000CC27DF71D06251CF8C2F8F710E942A1230
:1022800055E0D695C7955A95E1F7CF70D0E0DC2F91
:10229000CC27282F30E084FF05C044E0220F331FF5
:1022A0004A95E1F7C22BD32BD06937CF8D2F8F7191
:1022B0000E942A12182FCE0199270E948811C12F3F
:1022C000D0E0DC2FCC27CC27DF71C82BD92BD2CF85
:1022D000462F2091940230919502232B89F4703F70
:1022E00039F4603F69F48091990390919A030895BD
:1022F0007A3030F4663020F4672F0E94EA1A08958D
:1023000090E080E008950E9468110E944A100895AC
:1023100082389105B9F1B0F48133910509F47DC09B
:1023200048F48932910509F46DC08A32910509F4A7
:102330007BC008958533910509F45FC08933910509
:1023400009F10895833E9105D9F138F4803E910555
:1023500029F1823E910579F10895863E9105D9F1E2
:10236000873E910509F43EC0843E910541F52091D8
:10237000340321FF24C08091330384FD19C087EE0C
:1023800090E0089520913303237009F05AC0209102
:10239000340323FF14C089E290E0089520913303B1
:1023A00020FD38C03091340330FF09C024FF43C002
:1023B00090E080E008952091330322FDF7CF089547
:1023C0002091330322FD3AC03091340330FD39C0EF
:1023D00024FFF5CFEDCF2091330323FFF0CF24FD71
:1023E000E7CFCDCF2091330323FD2EC030913403AE
:1023F00031FFEECF84EE90E008952091330325FF66
:10240000DECFC9CF2091330325FD21C020913403B5
:1024100023FFD5CF89E390E0D2CF2091330326FF6D
:10242000CECF8AE290E008952091330326FFC7CFF4
:1024300081E390E0089583EE90E0089582EE90E0CD
:10244000089580EE90E0089586EE90E0089585E38B
:1024500090E008959091330392FF10C041E0282F3F
:102460002471243009F040E031E0282F2871283011
:1024700009F030E0431711F02CE0822793FF10C0E1
:1024800041E0282F2471243109F040E031E0282F69
:102490002871283109F030E0431711F02CE0822731
:1024A0003091340330FF10C051E0282F21712130CA
:1024B00009F050E041E0282F2871283009F040E071
:1024C000541711F029E0822731FF10C041E0282F76
:1024D0002171213109F040E031E0282F28712831A5
:1024E00009F030E0431711F029E0822794FD877E40
:1024F000089580E0089508950E947B12089508953C
:102500000E947F120895E82FF0E0E15CFC4F2081EB
:1025100030E081E090E002C0880F991F6A95E2F7F1
:102520002823392381E0232B09F480E00895E82F44
:10253000F0E0E15CFC4F80810895089580EA8A957F
:10254000F1F7089500C008950E949E120895F8942E
:10255000E82FE295EF70F0E031A1282F2F7081E095
:1025600090E001C0880F2A95EAF7982F9095932361
:1025700091A392A1892B82A378940895CF93DF939E
:10258000C9E9D1E089918F3F11F00E94A71281E043
:10259000C33AD807B9F7C3E9D1E089918F3F11F069
:1025A0000E94A71281E0C939D807B9F7DF91CF910E
:1025B0000895B0E0A0E0EFEDF2E10C94B72CEC014F
:1025C000D62E062F10E0C80187569E4F7C01FC01D5
:1025D00080818F3F09F445C0F894E82FE295EF70B1
:1025E000F0E091A18F7021E030E001C0220F8A95C8
:1025F000EAF7892F822B81A382A12095282322A389
:1026000078940E94A212E3E9F1E049E951E031E057
:10261000C12C21912F3F51F1A22FA295AF70B0E0B4
:1026200090968C9190E02F7002C0959587952A9591
:10263000E2F780FD1BC0832FC82A330F4E175F07B8
:1026400041F7F70180818F3F11F00E94A71261E0EE
:10265000C11001C060E08D2D0E94A412C00FD11FD7
:10266000C882CDB7DEB7E8E00C94D32C80E0E4CF8D
:102670000E94BE128AE0EFE3F3E0DF01982F1D9283
:102680009A95E9F7E5E3F3E0DF011D928A95E9F712
:102690008AE00E9489130E947C120895AAE0B0E0AB
:1026A000E4E5F3E10C94BA2C8E010F5F1F4F8AE032
:1026B000F80111928A95E9F7F12C6F2DC8010E945B
:1026C000D912F394FAE0FF12F8CF4AE050E0B801D3
:1026D00085E393E00E94012D21E0009709F420E0BA
:1026E000892B41F08AE0F801A5E3B3E001900D9257
:1026F0008A95E1F74AE06FE373E085E393E00E9497
:102700008A13182F0E948012812F2A96E5E00C94DC
:10271000D62C0895B0E0A0E0E0E9F3E10C94B72CEA
:102720006C017B01042FC22F222379F081E080937A
:1027300057020E94F624909356028093550280E03F
:10274000CDB7DEB7E8E00C94D32CD0915702DD234F
:10275000B1F380915502909156020E940E25059783
:1027600070F310E0A801B601C7010E94012D892B6A
:1027700031F0A801B601C7010E940E2DCD2F109295
:1027800057028C2FDDCF0E94E0260E94D10F0E94BD
:10279000ED2608950E94F2260E94DE0F0E940C276B
:1027A00008950E948F240E94C6260E949C0F0E94BA
:1027B000C3130E94CA130E94B10FFBCF9093B301C1
:1027C0008093B2010895CF92DF92EF92FF921F9310
:1027D000CF93DF93CDB7DEB72A970FB6F894DEBF5D
:1027E0000FBECDBFE9E4F3E080E5DF011D928A95DD
:1027F000E9F7E8E5F2E088E3DF011D928A95E9F761
:1028000089E4C82E83E0D82E7F0110E0F701D18241
:10281000C082BE016F5F7F4F812F0E94E319892B19
:1028200079F488E0FE013196D60101900D928A95E7
:10283000E1F789859A85D70113969C938E93129719
:10284000BAE0CB0ED11CE7E0EE0EF11C1F5F183092
:10285000E9F62A960FB6F894DEBF0FBECDBFDF9122
:10286000CF911F91FF90EF90DF90CF9008950E943D
:10287000E3130895CF92DF92FF920F931F93CF93AC
:10288000DF93CDB7DEB72A970FB6F894DEBF0FBE41
:10289000CDBF8C01603269F5DC011196EC91119786
:1028A000EE3038F5F0E0EA56F24D0C94A02C88E0BA
:1028B000E9E1F1E0DE01119601900D928A95E1F7D0
:1028C00080E2F80111928A95E9F786E0D8018C93AD
:1028D00011961C92119712961C92129713961C92A5
:1028E000139788E0FE013196149601900D928A9517
:1028F000E1F72A960FB6F894DEBF0FBECDBFDF9189
:10290000CF911F910F91FF90DF90CF90089584E8B1
:10291000F801808381E0818312821382EACF1396CB
:102920008C911397682F70E0762F662712968C9102
:10293000860F972F911D092E000CAA0BBB0B35E0BB
:10294000880F991FAA1FBB1F3A95D1F7AC01BD0193
:10295000405E5F4F6F4F7F4F481759076A077B07ED
:1029600040F28438E1E09E07A105B10510F6453834
:10297000F1E05F076105710520F044E851E060E097
:1029800070E0481B590BBC016C5E7D4FC8010E9472
:10299000F82CAFCF40E250E06FEF70E00E94172DAF
:1029A00080919602D8018C938091940211968C9319
:1029B000119712961C92129785E013968C93139799
:1029C00088E014968C93149784E015968C9391CF9D
:1029D00081E090E0909395028093940282E390E0EE
:1029E00090939302809392020E94F6249093910216
:1029F000809390027ECF8091940290919502892BD2
:102A000091F165E080E00E948312D82E64E088E0B6
:102A10000E948312F82E80919002909191020E9460
:102A20000E258536910550F1DD2041F1FF2031F171
:102A30000E94F624909391028093900280919202DA
:102A40009091930201979093930280939202892B25
:102A500051F4109295021092940281E090E09093CC
:102A600097028093960280919602F801808380916C
:102A7000940281838091920282833BCF82E390E033
:102A80009093930280939202EECF1092970210924D
:102A900096022FCF40E250E06FEF70E00E94172DBA
:102AA00028CF12968C911297833089F0843039F1B7
:102AB00081111FCF80E2F80111928A95E9F71C92EB
:102AC00088E011968C93119712961C9212CFF80100
:102AD00083819AE0F92E9E012F5F3F4F6901D90152
:102AE000EF2D1D92EA95E9F7B9010E94E319D8018B
:102AF0008D93F60101900D92FA94E1F7FACE1396B8
:102B00008C919AE0F8013496DE01119601900D92B5
:102B10009A95E1F729853A852115BCE73B0741F4F1
:102B20004091960250919702452B11F430E020E03D
:102B30003A872987BE016F5F7F4F0E94F719F8011E
:102B400080830E94E313D5CEA6E0B0E0EAEAF5E187
:102B50000C94BD2C90939A0380939903811520E2E5
:102B6000920730F40E9487032696E2E00C94D92C59
:102B700080EF89838A830E94F6248160682F9C837A
:102B80008B8349815A817C8181E091E00E94140508
:102B9000EBCFA6E0B0E0EFECF5E10C94BD2C909308
:102BA0009A0380939903811520E2920730F40E94E2
:102BB0009D032696E2E00C94D92C80EF89838A83CA
:102BC0000E94F6248160682F9C838B8349815A81FF
:102BD0007C8181E090E00E941405EBCFCF93DF93DE
:102BE000EC010E94A415CE010E94C915DF91CF917E
:102BF000089581E008950E94A90E089580E00E9442
:102C00009712817008950E944E132FEF86E791E08E
:102C1000215080409040E1F700C000000E944E1318
:102C20000E94FE15882321F00E94FB150E94412579
:102C300008950E94031608950895EF92FF920F934E
:102C40001F93CF93DF9380910B03882361F0E09172
:102C500098028DE0F82E80910B03E81748F010924F
:102C60000B0310929802CDB7DEB7E6E00C94D52C9A
:102C7000EE24E394EE0EE0929802CE2FD0E0EF9D8A
:102C8000F0011124ED55FD4F84818823B1F0878137
:102C90009085892BA1F4818592858F3F980779F0E3
:102CA00061E00E941C16FC9EF001FD9EF00D1124B7
:102CB000ED55FD4F14820E949E0DEE2DCCCF00816C
:102CC000118122813381448155816681778180859C
:102CD0000E94BC0CE8CF089510920D0310920C03D3
:102CE000E8E5F2E08581811102C0148216823796F0
:102CF00082E0E039F807B1F70895DC016091A102A4
:102D00008091A202962F891301C00895292F30E0E7
:102D1000F901EE0FFF1FE756FD4F408151814A1721
:102D20005B07A1F487E08A9FA0018B9F500D1124BF
:102D3000485A5D4F81E0FA0184839613E6CF2F5FF6
:102D40003F4F237033272093A10208952F5F3F4FF9
:102D5000922F9370D8CF6F927F929F92AF92BF9233
:102D6000CF92DF92EF92FF920F931F93CF93DF9357
:102D7000DB0114962C911497211157C0A0900B03DE
:102D8000E3EAF2E030E020E0B12C66246394712C99
:102D90002A1508F048C0C384D484ED90FC901197A4
:102DA0006FEF7FEF912C492D50E08A01000F111F2A
:102DB0000E0D1F1DE801088119810115110531F063
:102DC000C016D10609F4BA019394EDCF6F3F760790
:102DD000D9F1E30102C0CC0FDD1F6A95E2F7BC2AEE
:102DE000B30102C0660F771F9A94E2F7AB0141501E
:102DF0005109B416150639F512964D915C91139749
:102E00006DE0629FF001639FF00D1124ED55FD4FC1
:102E10005087478324E02483108211829287818720
:102E200021E015962C930E947D16DF91CF911F9182
:102E30000F91FF90EF90DF90CF90BF90AF909F9059
:102E40007F906F90089514822F5F3F4F3D96A0CFE3
:102E50001F93CF93DF93C091A10217E08091A2024C
:102E60008C1308C00E941D160E946C16DF91CF9132
:102E70001F910895D0E0FE01EE0FFF1FE756FD4FB2
:102E800080819181189FB001199F700D1124685A9B
:102E90007D4F0E94AB162196C370E0CF0F931F9316
:102EA000CF93DF93DC012D913C91119740E090E0AE
:102EB00080E0E82FF0E0EE0FFF1FE20FF31FC0816C
:102EC000D1812097B9F0FB010081118190E005C00C
:102ED000CE17DF0709F441E09F5FE92FF0E0EE0F26
:102EE000FF1FE00FF11F0190F081E02D309781F777
:102EF0008F5FDFCF442349F0981708F4DB01CD0141
:102F0000DF91CF911F910F910895B0E0A0E0F7CF2E
:102F100080910201882341F180910E0390910F036B
:102F2000009711F10E940E2520910C0330910D03A2
:102F300028173907C8F49091A1028091A20298172E
:102F400059F00E94281710920D0310920C03109252
:102F50000F0310920E0308950E941D1610920F0386
:102F600010920E030E946C16089510920F03109297
:102F70000E03109202018091A2028093A1020E948E
:102F80006C160E941D16089580910201882319F085
:102F90000E94B517089581E0809302010895ADE085
:102FA000B0E0E5EDF7E10C94AD2C5C016B018035F0
:102FB0002CE7920761F4FB0115811123E9F081E010
:102FC00080930201812F2D96E2E10C94C92C81356A
:102FD000FCE79F0739F4FB011581112369F00E947A
:102FE000B517F0CF82359C4739F4FB0115811123C9
:102FF00019F00E94C417E6CF9091D2018091D301BD
:10300000892B0E94C404182F0E946B16181731F0E8
:10301000F601608171810E9468115C0178E5E72EFC
:1030200072E0F72E912C812C1C8666246394712CFF
:103030009E012F5F3F4F3B872A87F70140815181D7
:1030400044244A94542C20E0822F90E0FC01EE0F9F
:10305000FF1FE40FF51F608171816115710531F06B
:10306000A616B70609F42C012F5FEECF312CFFEF27
:103070004F165F0609F447C0F70144813090020102
:10308000832D411180E0F82FF1703F2EF70125804C
:103090008681F6019581992309F4CEC0332009F485
:1030A000CBC0211015C0A301042C01C0440F0A9409
:1030B000EAF7842BF701868380910C0390910D032E
:1030C000C29730F462E370E070930D0360930C03D9
:1030D000C30102C0880F991F2A95E2F70197F701F3
:1030E00026812817190679F480910E0390910F0319
:1030F000009709F44EC00E940E25C39708F449C0FA
:1031000021E0F7012483FC85F329FC872FEF821A45
:10311000920A37E0E30EF11C68E08616910409F08C
:103120008CCFF6018581882309F4EBC0FC85FF2351
:1031300009F4E7C00E94F62490930F0380930E03D6
:1031400080910B03883008F591E0980F90930B0362
:1031500099E0F601DE01119601900D929A95E1F742
:103160002DE0829FC00111248D559D4F29E0FE0165
:103170003196DC0101900D922A95E1F72FEF3FEF98
:10318000FC0132872187B486A38611E0FC851F27C6
:1031900019CF2090A1023091A2023D8790E080E0FB
:1031A0007D85271216C08E159F0509F4ACCF422CE1
:1031B000512CF201EE0FFF1FE756FD4F91828082E6
:1031C0008FEF481A580A93E0492255244092A202F0
:1031D0009ACF422C512CF201EE0FFF1FE756FD4F04
:1031E0008081918167E0689F8001699F100D1124A3
:1031F000085A1D4FB701C8010E944E170097A9F049
:1032000021E0FC0124838E159F0509F47CCF2091D9
:10321000A10222120AC08017910739F492012F5F90
:103220003F4F237033272093A1023FEF431A530AE5
:10323000642D6370262EB4CF90E0211020C0F301DE
:1032400002C0EE0FFF1F2A95E2F79F0121503109BE
:103250002817390731F4442309F451C0C4010E94EE
:103260007D16C301042C01C0880F0A94EAF7982F39
:103270009095F701868189238683322C44CFAC0157
:10328000042C02C0559547950A94E2F7BA01617083
:1032900077279C012150310982239323892B59F5EB
:1032A000672B49F1F70182819381892BF9F0EA8537
:1032B000FB8527E011922A95E9F70E94F624282F32
:1032C0008B839C8334E03D83F70182819381782F47
:1032D0008887998709811A813C8144E05E816F81EA
:1032E000892F0E94BC0CF7011582BBCF60E0C4019E
:1032F0000E941C16F8CFF42FF1702F2EB2CF232C82
:10330000B0CF9091A1028091A202981719F00E946B
:1033100028173BCF0E941D1610920F0310920E0328
:103320000E946C1632CF84E0089550E0440F551F80
:103330009CE0699F400D511D112498E7899F400D25
:10334000511D1124CA01899608950F931F93CF939D
:10335000DF938430C8F46A30B8F44630A8F40E9491
:1033600095198C010E942E2DC82FD0E0DC2FCC2780
:10337000C80101960E942E2D9E01282BC901DF91C4
:10338000CF911F910F91089590E080E0F8CF0F93B7
:103390001F93CF93DF93122F032F843078F46A307A
:1033A00068F4463058F40E949519EC01602F0E9491
:1033B0004C2D612FCE0101960E944C2DDF91CF91B3
:1033C0001F910F9108959B01883070F49AE0899FB6
:1033D000B0011124675F7D4F4AE050E0C9010E94AF
:1033E0001E2D90E080E008958FEF9FEF08959B01E0
:1033F000883070F49AE0899FB0011124675F7D4F97
:103400004AE050E0C9010E94702D90E080E00895EC
:103410008FEF9FEF0895AAE0B0E0E1E1FAE10C94AC
:10342000B72CC0909602D090970281E090E09093E4
:1034300097028093960200E010E012C04F2D612F9A
:10344000802F0E9430039C014F2D612F802F0E94FE
:10345000C719F39486E0F812F1CF1F5F1A3011F00C
:10346000F12CECCF0F5F043039F7FE0131967F016C
:1034700011921A95E9F710E0B701812F0E94F71910
:103480001F5F1830C9F7D0929702C09296022A9611
:10349000E8E00C94D32CEF92FF920F931F93CF93FD
:1034A000DF93EC018A017C01E60EF71ECE018996BE
:1034B000CE15DF0529F4CDB7DEB7E6E00C94D52CA8
:1034C000C03E21E0D20740F40E942E2DF8018083F7
:1034D0000F5F1F4F2196EACFF8011082F9CFB0E0BD
:1034E000A0E0E5E7FAE10C94AF2CEC017B018A0146
:1034F000803E9140D8F480EE91E08C1B9D0B8617A6
:103500009707A0F03E0139E2630E711C809196028C
:10351000909197022E01460E571E892B61F07E0175
:10352000C7018996E414F50409F043C0CDB7DEB7AE
:10353000E0E10C94CB2C6E0181E0C822DD24C0FFB9
:103540000FC0CE0188960E942E2DF8019081892708
:103550009827892781159C4719F48FEFF8018083FC
:10356000570140FE13C0F1E0AF1AB10848018A0CC0
:103570009B1CC3018E0D9F1D0E942E2DF401908176
:1035800081159C4719F48FEFF4018083F801EC0D4D
:10359000FD1D2FEFCA14DB0410F690818181811587
:1035A0009C4711F42083218382E0C80ED11C3296FF
:1035B000F1CFE0EEEE16E1E0FE0640F4F701EC1B81
:1035C000FD0BE00FF11F60810E944C2DFFEFEF1A01
:1035D000FF0AA6CF843038F46A3028F4463018F455
:1035E0000E94A519089590E080E0089580E1089573
:1035F00087EA91E00895EF92FF920F931F93CF9384
:10360000DF93EC018A017C01E60EF71ECE01875A9A
:103610009D4FCE15DF0529F4CDB7DEB7E6E00C945B
:10362000D52CC73A21E0D20740F40E942E2DF80194
:1036300080830F5F1F4F2196E9CFF8011082F9CFE9
:10364000B0E0A0E0E6E2FBE10C94B72C7C016A015B
:103650008C01060F171FEC01CE01875A9D4FC01732
:10366000D10729F4CDB7DEB7E8E00C94D32CC73AE4
:1036700021E0D20740F4FE01EE19FF09EC0DFD1D1B
:1036800060810E944C2D2196E7CFCF93DF93C9E54F
:10369000D2E060E0CE010E944C2D2196C11584E05D
:1036A000D807B9F7DF91CF910895A4E0B0E0EBE53A
:1036B000FBE10C94B62CF82E2FE0281708F4A5C0D7
:1036C0008FEF93E00E942E2D81119FC009E512E03B
:1036D000F11036C019821A821B821C82BB24BA9454
:1036E00078015FEFE51AF50AC8010E942E2D898343
:1036F0001A82882309F489C0813009F07FC06801EB
:1037000082E0C80ED11CC7010E942E2DE82E8A83AC
:10371000882309F47AC0C6010E942E2DF82E8FEF5F
:103720008E0D8330D8F46801E3E0CE0ED11CFB820D
:10373000FF2021F0CE0101960E94B4208601D0CF57
:10374000011544E0140709F460C0C8010E942E2D41
:10375000811101C0FA940F5F1F4FBACF8BEF8E0D0E
:10376000833030F5C8010396FB826C01FF2031F3F2
:103770006801F4E0CF0ED11C0E942E2D8C8388238B
:10378000E9F28B819C8181302FEF920710F0982F06
:10379000882746E0E41631F057E0E51631F00E9444
:1037A000EE15CCCF0E94A415C9CF0E94C915C6CF73
:1037B00084E0E812C3CF6801E4E0CE0ED11CC8015A
:1037C00003960E942E2DFF2001F18823F1F08150F5
:1037D000990BB89E9001B99E300D11244F2D415088
:1037E000550BCA01820F931F019708F4A7CFEFE989
:1037F000FFE03197F1F700C00000F6CF60E0CE01A6
:1038000001960E944920670199CF2496E9E00C9423
:10381000D22CCF93DF93EB0186319C4711F50E94A8
:103820007E0D9D81992399F08A7A91E009F490E0C8
:1038300090931003811109C089E20E9409240E941B
:103840003C0E80E0DF91CF91089585E3F6CF809123
:103850001003811104C089E20E941124F0CF85E396
:10386000FBCF81E0EFCFCF93DF93EC01FB018581AC
:10387000882309F4D2C09E0130572332310508F065
:10388000B2C00E94C60E9093340380933303FE01AE
:10389000E150F047E232F10520F4EC55F24D0C9482
:1038A000A02C8091330381608093330393C0809177
:1038B00034038860809334038DC080913303826029
:1038C000F3CF809133038460EFCF8091330388601E
:1038D000EBCF809134038160EDCF8091340382601F
:1038E000E9CF809133038061DFCF80913303806221
:1038F000DBCF809133038064D7CF0E9494088091FE
:1039000033038068D1CF809133038C60CDCF809119
:1039100034038360CFCF809133038E7FC5CF8091F6
:103920003403877FC7CF809133038D7FBDCF8091D4
:1039300033038B7FB9CF80913303877FB5CF8091DD
:1039400034038E7FB7CF809134038D7FB3CF8091C6
:1039500033038F7EA9CF809133038F7DA5CF8091D4
:1039600033038F7BA1CF0E949408809133038F771C
:103970009BCF80913303837F97CF809134038C7FDB
:1039800099CF8091330382FB992790F921E0922708
:1039900090FB82F990FB83F987CF80913403982FB5
:1039A000909591708E7F892B90FB81F983CF9091B8
:1039B0003303892F8F7B96FF806476CF0E94940813
:1039C00090913303892F97FB87F980586DCF81E061
:1039D0000E94560F80913303909134030E94CB0EC6
:1039E0000E94940880E0DF91CF91089580E0F0CFAD
:1039F00090913303892F8F7E94FF806155CF9091F2
:103A00003303892F8E7F90FF81604ECF90913403D6
:103A1000892F877F93FF88604DCF81E0E4CF282FE7
:103A200035EB2303C001112497FF04C0805891098E
:103A3000892F089580589F4FFBCF8091170380FFF7
:103A40000DC06091080170E0660F771F6038710546
:103A500070F56115710569F1862F089581FF07C022
:103A60006091080184E0689FB0011124EFCF60915C
:103A7000080182FD0AC0809116038823A9F02091D5
:103A8000070160910801821710F088E0ECCF869F53
:103A9000C001112433E0880F991F3A95E1F7622F96
:103AA00070E00E948C2CD2CF68E070E0D5CF8FE719
:103AB000089581E008958091170380FF0CC0609104
:103AC000040170E0759567957595679561157105A9
:103AD00049F1862F089581FF06C06091040170E0CE
:103AE00075956795F3CF6091040182FD0BC09091AD
:103AF00015039923A1F060910301809104019617A9
:103B000038F0682F70E06038710500F38FE7089592
:103B1000899FC001112470E00E948C2CF4CF61E0D9
:103B200070E0D7CF81E0089590911A0320911B0394
:103B3000922B20911D03922B20911C03922B31F08C
:103B400098E09093160391E0909315038D3C31F427
:103B50000E941D1D819580931B0308958E3C19F4CE
:103B60000E941D1DF8CF8F3C31F40E941D1D8195D0
:103B700080931A030895803D19F40E941D1DF8CF0B
:103B8000893D29F40E945B1D80931C0308958A3DA2
:103B900021F40E945B1D8195F7CF8B3D31F40E948B
:103BA0005B1D819580931D0308958C3D19F40E943F
:103BB0005B1DF8CF9FE2980F983070F4815D990BF0
:103BC00021E030E001C0220F8A95EAF780911903C5
:103BD000822B8093190308958D3D31F48091170352
:103BE00081608093170308958E3D21F4809117031F
:103BF0008260F7CF8F3DB9F7809117038460F1CFD2
:103C000040911A038D3C59F480911B0387FF0DC02E
:103C100010921B0341110BC01092160308C08E3C7A
:103C200081F480911B0318169CF3442381F080914A
:103C30001C0390911D03892B09F05AC010921503A3
:103C400008958F3C49F447FFF0CF10921A038091FA
:103C50001B038111ECCFE0CF803D19F41416ACF3B7
:103C6000E4CF90911C03893D29F41916F4F61092C3
:103C70001C03DBCF8A3D19F497FFD7CFF8CF909183
:103C80001D038B3D29F497FFD0CF10921D03CDCF9C
:103C90008C3D19F41916CCF3C8CF9FE2980F9830D9
:103CA00090F4815D990B21E030E0B90102C0660F0C
:103CB000771F8A95E2F7CB018095909119038923AC
:103CC00080931903B2CF8D3D31F4809117038E7F1D
:103CD00080931703AACF8E3D21F4809117038D7F27
:103CE000F7CF8F3D09F0A1CF809117038B7FF0CFE5
:103CF00008950E94F6249C0190911A0380911B0361
:103D0000982B21F0309314032093130390911C03FC
:103D100080911D03982B21F03093120320931103FF
:103D200088E193E00E946123089586E0E8E1F3E0F2
:103D3000DF011D928A95E9F7109216031092150380
:103D4000109217030895FC01828181110EC08381B6
:103D500081110BC08481811108C091E0858181119E
:103D600001C090E0892F8170089581E0FCCFA6E02A
:103D7000B0E0EDEBFEE10C94BC2C86E0E8E1F3E072
:103D8000DE01119601900D928A95E1F710921A03C7
:103D900010921B0310921C0310921D038B819C81B7
:103DA000892B89F080911303909114030E940E25B2
:103DB000AC01909116039923C9F1809109018417F0
:103DC000150608F440C08D819E81892B91F0809169
:103DD0001103909112030E940E25AC0190911503DE
:103DE000992309F46AC0809105018417150608F427
:103DF00072C0BE016F5F7F4F88E193E00E94242470
:103E0000811105C088E193E00E94A31E81110E94E8
:103E1000791E86E0FE013196A8E1B3E001900D9293
:103E20008A95E1F72696E3E00C94D82C20910A01BC
:103E30008AE0289F900111242417350720F69F5F00
:103E40009093160302C09F3FD1F71B81112359F0B5
:103E50000E941D1D9FEF11160CF491E0899F802D8B
:103E6000112480931A031C81112359F00E941D1DF7
:103E70009FEF11160CF491E0899F802D11248093FF
:103E80001B0380911A03882309F49DCF10911B0313
:103E9000112309F498CF0E940F1D882351F08093BD
:103EA0001A03812F0E940F1D882329F080931B0382
:103EB0008ACF81E0F4CF81E0F9CF209106018AE03A
:103EC000289F900111242417350708F092CF9F5F97
:103ED0009093150302C09F3FD1F71D81112359F024
:103EE0000E945B1D9FEF11160CF491E0899F802DBD
:103EF000112480931C031E81112359F00E945B1D25
:103F00009FEF11160CF491E0899F802D112480936E
:103F10001D0380911C03882309F46BCF10911D03AE
:103F2000112309F466CF0E940F1D882351F080935E
:103F30001C03812F0E940F1D882329F080931D03ED
:103F400058CF81E0F4CF81E0F9CFB0E0A0E0EBEA18
:103F5000FFE10C94B62CE82FF0E0E856FC4FB4904B
:103F6000282F26952695269530E0F901E85CFB4F31
:103F70000491877010E0082E02C0159507950A94E9
:103F8000E2F701701127F901E85DFB4FE490F12C95
:103F9000082E02C0F594E7940A94E2F791E0E92232
:103FA000FF24F901E85EFB4FC491D0E002C0D59533
:103FB000C7958A95E2F7C170DD27C62ED12C011571
:103FC000110549F5E114F10431F086EE0E946B050C
:103FD000C601009771F5B6018B2D0E94E705C60159
:103FE000009779F5E114F104A1F50115110531F0FF
:103FF00081EE0E94B405C6010097C9F5CD2B31F0C2
:104000008CE20E94FF05C114D104C9F5CDB7DEB71B
:10401000E9E00C94D22C81EE0E946B05C60100975A
:1040200089F2EFE9FFE03197F1F700C00000019756
:10403000F6CFEFE9FFE03197F1F700C000000197FC
:10404000C8CFEFE9FFE03197F1F700C0000001971A
:10405000C7CF86EE0E94B405C601009731F2EFE9A2
:10406000FFE03197F1F700C000000197F6CFEFE9CC
:10407000FFE03197F1F700C000000197BDCF8FE955
:104080009FE00197F1F700C0000091E0C91AD10844
:10409000BACFEF92FF920F931F93CF93DF93EC0170
:1040A000162F0AE08881882309F459C0813009F06D
:1040B00052C08981813071F47E0182E0E80EF11CEA
:1040C0008A810E94FF05E701812F90E00097D9F5D2
:1040D0002196E8CF823041F47E01E2E0EE0EF11C41
:1040E0008A810E946B05EFCF833041F47E01F2E0BC
:1040F000EF0EF11C8A810E94B405E5CF843011F0E7
:104100002196E2CF2A81229690E080E0AE014F5FB7
:104110005F4F2053330B2A30310550F00097A1F246
:10412000EFE9FFE03197F1F700C000000197F6CF0B
:10413000089FB001099F700D1124C901860F971FB8
:104140002981EA01E3CFEFE9FFE03197F1F700C001
:1041500000000197BBCF612F0E94A51FB9CFCDB73B
:10416000DEB7E6E00C94D52C60E00E94492008956B
:104170000F931F93CF93DF93C42FD22FFC01858120
:104180008823C9F0409320030E94F62490931F03D4
:1041900080931E0380E28C0F883040F4C77081E06A
:1041A00001C0880FCA95EAF70E940806DF91CF91F7
:1041B0001F910F91089510912003141332C0809124
:1041C0001E0390911F030E940E25883C910548F51F
:1041D000C0E2CD0F1D17B9F080E2810F883040F4A6
:1041E000177081E001C0880F1A95EAF70E940F0648
:1041F000C83048F481E09D2F977001C0880F9A95D0
:10420000EAF70E940806802F0E94FF05C83070F66A
:10421000D77081E001C0880FDA95EAF70E940F0697
:10422000C5CF80E28C0F883008F6C77081E001C0EE
:10423000880FCA95EAF7F2CF0F93DB0188519C47AC
:1042400087309105A0F5FC01EA53F24D0C94A02CA7
:1042500006E221EE41EE6AE17CE7CD010E94B82042
:1042600080E00F91089507E225EE45EE6BE17CE7D3
:10427000F4CF06E221EE40EE68E17CE7EECF07E204
:1042800025EE44EE69E17CE7E8CF06E221EE42EE5E
:104290006CE17CE7E2CF07E225EE46EE6DE17CE7DC
:1042A000DCCF08E221E045EE6EE17CE7D6CF159643
:1042B0008C91882319F010922003D3CF81E0D1CFC5
:1042C0001F93CF93DF9387372CE7920759F0C1E014
:1042D00088379C47E1F4FB01C581CC2371F10E9432
:1042E000A32106C0FB01C581CC23B1F00E94A0210F
:1042F0000E9413090E94A621D82F0E94A321C82F33
:104300000E94A0214D2F6C2F0E943B0AC0E08C2FF1
:10431000DF91CF911F9108950E94A0210E941F0953
:104320000E94A621182F0E94A321D82F0E94A0210D
:10433000412F6D2F0E943B0AEACF0E94A321EECFAE
:1043400080910D01089580910C01089580910B01D9
:10435000089585E290E00E942E2D8C3189F486E24A
:1043600090E00E942E2D803D59F487E290E00E945B
:104370002E2D91E0863A09F090E0892F8170089502
:1043800080E0FCCFCF93C82F6FEF81116CE185E205
:1043900090E00E944C2D6FEFC11160ED86E290E03D
:1043A0000E944C2D6FEFC11166EA87E290E00E94F7
:1043B0004C2DCF910895089588E290E00E942E2D13
:1043C000682F70E090E080E008950895CF93C62FA5
:1043D0000E94E5216C2F88E290E00E944C2DCF9145
:1043E000089580E00E94C22160E070E0CB010E944D
:1043F000E6210E940B1A0E94451B81E00E94C22107
:1044000008950E94DB210E94DC210E94E5210E9488
:10441000A921811102C00E94F12108959C01FB0194
:104420008581882351F0A90157574038510530F450
:10443000822F0E94551B80E0089581E008952FEFA0
:10444000FC0120830895EF92FF920F931F93CF9367
:10445000DF93EC01162F8881209194023091950210
:10446000232B79F08E3F09F05CC08981833020F0E6
:104470008550833008F055C0612FCE010E943A1458
:1044800050C08B3009F4EAC0D0F4843009F488C0FD
:1044900060F4823009F44EC008F075C08130F1F14B
:1044A000612FCE010E941F223CC0863009F48EC0CD
:1044B00008F481C08A30A0F78FEF888332C0803142
:1044C00009F4A4C000F58D3009F487C008F481C058
:1044D0008E3009F48AC08F3019F78091960290913E
:1044E0009702892BF1F06B8170E06D317105C8F492
:1044F00089819A81AE014C5F5F4F98278927982761
:104500000E94201B0EC0823109F486C008F481C0CD
:10451000833109F492C08E3F19F6AECF198289E03B
:104520008A83612FCE010E94BA25CDB7DEB7E6E0BF
:104530000C94D52C8981823071F0833079F08130F0
:1045400009F0AECF0E9402250E94A62C6A837B83CD
:104550008C839D83E6CF0E94DC21F6CF809196026A
:1045600090919702892BE9F27E0122E0E20EF11C84
:1045700000E0802F0E949712F70181937F010F5F67
:104580000A30B9F7CECF8981823009F089CF6A81AC
:104590007B818C819D810E94A62C0E94E621C1CF47
:1045A0004B816A8189810E94A519982789279827BC
:1045B0009D838C83B6CF2C813D81322723273227E0
:1045C0004B816A8189810E94C719ABCF0E940B1A67
:1045D000A8CF0E94F61A8983A4CF0E94F81A9827C0
:1045E000892798279A8389839CCF6B8170E06D31EE
:1045F000710508F096CF89819A81AE014C5F5F4FBB
:104600009827892798270E94FB1A8BCF0E94451B69
:1046100088CF0E949319DFCF6B8170E06D317105F7
:1046200008F07FCF89819A81AE014C5F5F4F982758
:10463000892798270E944B1A74CF6B8170E06D31E7
:10464000710508F06ECF89819A81AE014C5F5F4F92
:104650009827892798270E946F1A63CF8091960226
:1046600090919702892B09F45CCFCE010E94BA2564
:10467000FFEF21EE84E0F15020408040E1F700C0E0
:1046800000000E9441254DCF90932603809325037F
:104690000895E0912503F0912603309729F00190C9
:1046A000F081E02D0995089580E00895E0912503BB
:1046B000F0912603309721F00280F381E02D0995D7
:1046C0000895E0912503F0912603309739F022E018
:1046D000DC012C930680F781E02D09950895A3E075
:1046E000B0E0E5E7F3E20C94BD2C20912303309178
:1046F000240328173907A1F0909324038093230300
:10470000E0912503F0912603309751F023E02983AF
:104710009B838A830084F185E02DCE010196099563
:104720002396E2E00C94D92CA3E0B0E0EAE9F3E2AE
:104730000C94BD2C209121033091220328173907B6
:10474000A1F09093220380932103E0912503F0913F
:104750002603309751F024E029839B838A830084C9
:10476000F185E02DCE01019609952396E2E00C94A7
:10477000D92C40910001509101019A012E5F3F4FC9
:10478000485F5F4F80E02417350709F40895F90169
:1047900091919F019923B9F38F5FF5CF882371F031
:1047A0002091000130910101F9013296285F3F4FBD
:1047B0009191981729F0E217F307D1F780E0089557
:1047C00081E008959C01FC0132969FEF80E04191C9
:1047D000461751F09F3F19F4411101C0982F8F5F88
:1047E0008630A9F79F3F09F40895290F311D97FDE1
:1047F0003A95F90162830895FC0132960896219159
:10480000261303C0DF0111971C92E817F907B9F7C7
:104810000895682F80910001909101010E94E22388
:104820000895682F80910001909101010E94FC235E
:104830000895E0910001F0910101329686E0DF01D8
:104840001D928A95E9F70895DC01FB0111969C9170
:1048500011978181981322C012968C911297882308
:1048600019F0928189131AC013968C91139788239B
:1048700019F09381891312C015968C91159788238E
:1048800019F0958189130AC014969C91992321F0FF
:1048900081E02481291303C080E001C081E08170A0
:1048A000089508950E9451240895811106C081E061
:1048B000809327030E945224089582E0F9CF83E079
:1048C000809327030E94522408950E94552408953E
:1048D00081E0809327030E94522408950E94682457
:1048E0000895089508950E947224089508950895E2
:1048F0000E9471240895CF930E9476240E944E1343
:104900000E947724C0E08C2F0E949712811105C06D
:10491000CF5FCA30C1F7CF91089581E0FCCF85B752
:10492000806885BF85B7806885BF08951F921FB6D0
:104930001F9211248F939F93AF93BF93809128036D
:10494000811113C080919B0390919C03A0919D03C2
:10495000B0919E034196A11DB11D80939B0390933E
:104960009C03A0939D03B0939E03BF91AF919F9131
:104970008F911F901FBE1F9018958091A3038430C4
:1049800031F10E94BA041092280388E190E020E4FB
:104990000FB6F894A895809360000FBE2093600036
:1049A00083B7817F846083BF83B7816083BF78943E
:1049B000889583B78E7F83BF0FB6F894A8958091B2
:1049C0006000886180936000109260000FBE0895BF
:1049D0000E9494080E94BF04089582E084BD93E081
:1049E00095BD9AEF97BD80936E0008952FB7F89408
:1049F00080919B0390919C03A0919D03B0919E0395
:104A00002FBF08952FB7F89460919B0370919C037A
:104A100080919D0390919E032FBF08959C014FB7F5
:104A2000F89480919B0390919C03A0919D03B09179
:104A30009E034FBF821B930B089578941F921FB65D
:104A40001F9211248F939F93AF93BF9380919B03E9
:104A500090919C03A0919D03B0919E030196A11D8E
:104A6000B11D80939B0390939C03A0939D03B093EF
:104A70009E03BF91AF919F918F911F901FBE1F907A
:104A8000189581E08093E00080E28093D800109236
:104A9000C9008FE19EE40197F1F700C0000087E0B4
:104AA00090EBDC018093AC039093AD03A093AE0335
:104AB000B093AF0388E19CE00FB6F894A89580937B
:104AC00060000FBE90936000FFCF88E19CE00FB6BE
:104AD000F894A895809360000FBE90936000FFCF7C
:104AE00080913103089508959B01BA019091A30329
:104AF0009430E9F48F708093E9009FEF8091E80093
:104B0000915085FD06C085ED8A95F1F70000911161
:104B1000F5CF8091E80085FF0AC050E040E0C90170
:104B20000E94B6278091E8008E778093E800089570
:104B300043E050E0BC0184E00E947425089546E003
:104B400050E0BC0184E00E9474250895CF93DF9368
:104B5000EC0148E050E0BC0181E00E94742588E04F
:104B6000FE01A9E2B3E001900D928A95E1F7DF9191
:104B7000CF910895603231F440E250E0BC0182E010
:104B80000E94742508958091A203811109C00E949A
:104B900095290E94F2298091E20084608093E200CE
:104BA00008951092A20308950E94682408956091C8
:104BB0009F0381E0611101C080E00E945F2408959D
:104BC0009091A30381E0943009F080E060919F030D
:104BD0000E946524089542E061EC81E00E94112961
:104BE00042E261EC84E00E94112942E261EC82E041
:104BF0000E94112942E260EC83E00E941129909109
:104C0000A30381E0943009F080E060919F030E944B
:104C1000552408958091A503833009F463C030F4CE
:104C20008130E1F1823009F4A0C008958A3009F49E
:104C30008CC08B3009F471C0893009F052C080916A
:104C4000A403813209F04DC08091A8039091A9037B
:104C5000009719F0029709F044C08091E800877F1F
:104C60008093E8008091E80082FF37C09091F300C4
:104C70008091F200029731F48091F100813011F0BF
:104C8000863021F48091F100809331038091E80017
:104C90008B778093E8000E94452923C08091A4036C
:104CA000813AF9F48091E800877F8093E800809151
:104CB000A8039091A903892B61F468E089E293E04D
:104CC00070E00E9454288091E8008B778093E80080
:104CD000089560E090E080E0F3CF8091A30381111C
:104CE000C1CF08958091A403813AD9F78091A80398
:104CF0009091A903892BA9F78091E800877F809381
:104D0000E8008091E80080FFFCCF8091180180933B
:104D1000F1008091E8008E77BCCF8091A4038132AE
:104D200001F78091A8039091A903892BD1F6809176
:104D3000E800877F8093E8000E9445298091A603C0
:104D4000809318010E94940808958091A4038132F1
:104D500041F68091E800877F8093E8000E94452912
:104D60008091A7038093320308958091A403813A30
:104D700009F0B7CF8091E800877F8093E8008091A9
:104D8000E80080FFFCCF80913203C1CF84B7877FDA
:104D900084BF0FB6F894A8958091600088618093D5
:104DA0006000109260000FBE80E890E00FB6F894AB
:104DB00080936100909361000FBE0E946E2408955D
:104DC0000E9495290E94F229E2EEF0E08081846041
:104DD000808378940E94712C08958EE091E00E9467
:104DE000442308958091A303853031F48091A30377
:104DF000853019F00E94E82408950E94BD24809116
:104E0000A103882399F30E947B24882379F30E94CD
:104E1000A0270E949408EACFA0E2B0E0E2E1F7E226
:104E20000C94BD2C8091A303843009F583E080931A
:104E3000E9008091E80082FF1AC08091E80090E0CC
:104E400085FF09C050E040E060E270E0CE010196CD
:104E50000E94052891E08091E8008B778093E8001C
:104E6000992329F060E2CE0101960E942322A096A8
:104E7000E2E00C94D92C9A014091AA035091AB0323
:104E80000E9443270895492F55274330510521F1AA
:104E900068F44130510509F449C04230510509F424
:104EA0004AC090E080E050E040E029C04132510526
:104EB00081F142325105A9F76330710590F7FB018A
:104EC000EE0FFF1FEA55FE4F408151816D557E4F19
:104ED000FB01808190E013C099278130910599F002
:104EE000009741F08230910589F00397D1F6E8E40C
:104EF000F4E002C0EAE9F4E0849190E0AF01F90146
:104F0000518340830895E6E8F4E0F6CFE6E6F4E066
:104F1000F3CF6330710528F6660F771FFB01E45568
:104F2000FE4F4081518189E090E0E9CF82E190E03D
:104F300049EF54E0E4CF8BE590E04EE954E0DFCF59
:104F400080E189BD82E189BD09B400FEFDCF809179
:104F5000D8008F7D8093D8008091E000826080939C
:104F6000E0008091E00081FDFCCF0895AF92BF92F8
:104F7000CF92DF92FF920F931F93CF93DF936C0139
:104F8000EB018A010E946429F82E811123C00115CA
:104F9000110539F0F80180819181C81BD90BC80E29
:104FA000D91EB12CA12C2097A9F08091E80085FD95
:104FB00022C08091E8008E778093E80001151105EA
:104FC000A1F0F80180819181A80EB91EB182A08262
:104FD00085E0F82E8F2DDF91CF911F910F91FF90DB
:104FE000DF90CF90BF90AF9008950E9464298823EE
:104FF000D1F2F82EEFCFF60181916F018093F1008D
:105000002197FFEFAF1ABF0ACECFAF92BF92CF92D8
:10501000DF92FF920F931F93CF93DF936C01EB010D
:105020008A010E946429F82E811123C001151105FF
:1050300039F0F80180819181C81BD90BC80ED91EA7
:10504000B12CA12C2097A9F08091E80085FD22C009
:105050008091E8008B778093E80001151105A1F09D
:10506000F80180819181A80EB91EB182A08285E0ED
:10507000F82E8F2DDF91CF911F910F91FF90DF9030
:10508000CF90BF90AF9008950E9464298823D1F2F9
:10509000F82EEFCF8091F100F60181936F012197F7
:1050A000FFEFAF1ABF0ACECFFC018091AA03909107
:1050B000AB0386179707A0F06115710529F490914D
:1050C000E8009E779093E80090E06115710551F437
:1050D000911108C08091E80082FF34C080E00895FB
:1050E000BC01F2CF8091A3038823C1F18530C1F1C7
:1050F0008091E80083FD30C08091E80082FDEACF16
:105100008091E80080FFE1CF8091F3002091F200D0
:10511000382F6115710519F02830310558F091E0EC
:105120002830310509F090E02091E8002E77209397
:10513000E800CBCF81918093F100615071092F5F1E
:105140003F4FE7CF8091A303882341F0853041F0A2
:105150008091E80083FFBECF81E0089582E008954A
:1051600083E00895FC018091AA039091AB03861718
:105170009707A0F06115710529F48091E8008E77FA
:105180008093E80090E06115710551F4911108C019
:105190008091E80082FF35C080E00895BC01F2CF25
:1051A0008091A3038823C9F18530C9F18091E8007B
:1051B00083FD31C08091E80082FDEACF8091E80054
:1051C00080FFE1CF8091F3002091F200382F61152C
:1051D000710519F02830310558F091E0283031057B
:1051E00009F090E08091E8008E778093E800CBCFC3
:1051F00084918093F1003196615071092F5F3F4F88
:10520000E6CF8091A303882341F0853041F080915F
:10521000E80083FFBDCF81E0089582E0089583E038
:105220000895982F973028F08F708093E90081E0DF
:1052300008959093E900242F762F50E0981731F0CD
:105240007091EC002091ED005091F00021FD02C022
:105250009F5FE8CF3091EB003E7F3093EB003091C1
:10526000ED003D7F3093ED003091EB0031603093E5
:10527000EB007093EC002093ED005093F000209130
:10528000EE0027FDE5CF80E008958091A40387FF1D
:1052900013C08091E80082FF06C08091E8008B7700
:1052A0008093E80004C08091A3038111F2CF089598
:1052B0008091A3038823D9F38091E80080FFF8CF81
:1052C0008091E8008E77ECCF2091E4003091E500EA
:1052D00095E6A9012091EC00822F817020FF06C085
:1052E0008091E80080FF06C080E008952091E800EA
:1052F00022FD1AC08091A303882389F0853089F0AC
:105300008091EB0085FD0FC02091E4003091E50015
:1053100042175307F9F29150E1F684E0089582E0D4
:10532000089583E0089581E008950E94042A0E9470
:105330000C2AE0EEF0E0808181608083E8EDF0E00F
:1053400080818F77808319BCA7EDB0E08C918E7F30
:105350008C9380818F7E80831092A20308950F9397
:105360001F93CF93DF930E94042A0E940C2AC8ED5A
:10537000D0E088818F77888388818068888388815E
:105380008F7D888319BC1092A30310929F03109203
:10539000A1031092A00300EE10E0F80180818B7F42
:1053A000808388818160888342E060E080E00E94A1
:1053B0001129E1EEF0E080818E7F8083E2EEF0E063
:1053C000808181608083808188608083F801808112
:1053D0008E7F8083888180618883DF91CF911F9148
:1053E0000F910895E8EDF0E080818F7E8083E7EDF6
:1053F000F0E080818160808384E082BF81E08093DF
:10540000A2030E94AF290895E8EDF0E080818E7F2D
:1054100080831092E20008951092DA001092E10069
:1054200008951F920F920FB60F9211242F933F935E
:105430004F935F936F937F938F939F93AF93BF939C
:10544000EF93FF938091E10082FF0BC08091E20017
:1054500082FF07C08091E1008B7F8093E1000E9472
:10546000702C8091DA0080FF19C08091D80080FFF5
:1054700015C08091DA008E7F8093DA008091D90088
:1054800080FF96C080E189BD82E189BD09B400FE3C
:10549000FDCF81E08093A3030E94C3258091E100AA
:1054A00080FF19C08091E20080FF15C08091E2006A
:1054B0008E7F8093E2008091E20080618093E20021
:1054C0008091D80080628093D80019BC85E08093D9
:1054D000A3030E94D7258091E10084FF2BC0809117
:1054E000E20084FF27C080E189BD82E189BD89B5E2
:1054F000982F917080FFFBCF8091D8008F7D809393
:10550000D8008091E1008F7E8093E1008091E200DD
:105510008F7E8093E2008091E20081608093E200C0
:1055200080919F03882309F449C084E08093A303FA
:105530000E94E0258091E10083FF29C08091E20074
:1055400083FF25C08091E100877F8093E10082E0A6
:105550008093A30310929F038091E1008E7F80933C
:10556000E1008091E2008E7F8093E2008091E20072
:1055700080618093E20042E060E080E00E941129B7
:105580008091F00088608093F0000E94D425FF9104
:10559000EF91BF91AF919F918F917F916F915F91AB
:1055A0004F913F912F910F900FBE0F901F90189524
:1055B00019BC1092A3030E94D12570CF8091E30003
:1055C00087FD93E09093A303B3CF1F920F920FB682
:1055D0000F9211242F933F934F935F936F937F9379
:1055E0008F939F93AF93BF93CF93DF93EF93FF93EB
:1055F000D091E900DF708091EC00C82FC17080FD70
:10560000C0E81092E9008091F000877F8093F0005D
:1056100078940E94292B1092E9008091F000886014
:105620008093F000CD2BCF70C093E900FF91EF91F4
:10563000DF91CF91BF91AF919F918F917F916F91AA
:105640005F914F913F912F910F900FBE0F901F9040
:105650001895AAE2B0E0EFE2FBE20C94BC2C84EADD
:1056600093E02091F100FC012193CF01F3E08C3A0B
:105670009F07B9F70E940A268091E80083FF1EC1A8
:105680008091A4039091A5039A3008F017C1E92FE7
:10569000F0E0E353F24D0C94A02C803899F082385E
:1056A00009F00CC18091A8038F70873008F006C103
:1056B0008093E9008091EB0085FB882780F91092A8
:1056C000E90006C08091A0039091A103911182602E
:1056D0009091E800977F9093E8008093F1001092FA
:1056E000F1008091E8008E77E5C0882309F4D3C0EB
:1056F000823009F0E3C08091A6038111D6C0809169
:10570000A8038F702FEF280F263008F0D7C08093A2
:10571000E9002091EB0020FFC8C0933031F4809164
:10572000EB0080628093EB00C0C09091EB00906131
:105730009093EB0021E030E001C0220F8A95EAF758
:105740002093EA001092EA008091EB008860EACF93
:105750008111B4C01091A6031F778091E300807877
:10576000812B8093E3008091E800877F8093E8009D
:105770000E9445298091E80080FFFCCF8091E300E2
:1057800080688093E30082E0111183E08093A3039B
:1057900095C08058823008F091C08091A603909106
:1057A000A7038C3D23E09207A1F583E08A838AE278
:1057B00089834FB7F894DE01139620E03EE051E272
:1057C000E32FF0E050935700E49120FF03C0E295EF
:1057D000EF703F5FEF708E2F90E0EA30C0F0C79619
:1057E0008D939D932F5F243159F74FBF8091E8002F
:1057F000877F8093E8006AE270E0CE0101960E9404
:1058000054288091E8008B778093E80057C0C096B9
:10581000E7CF6091A8037091A903AE014F5F5F4F7E
:105820000E943B27BC01892B09F448C09091E800F5
:10583000977F9093E80089819A810E94B228E1CFF6
:105840008038E1F58091E800877F8093E8008091BF
:105850009F038093F10045CF811130C09091A60342
:10586000923060F58091E800877F8093E800909304
:105870009F030E94452980919F03882311F084E0B3
:1058800005C08091E30087FDFACF81E08093A303F8
:105890000E94EB2513C08091A603813079F481E04A
:1058A000933009F080E08093A1031092E900809189
:1058B000E800877F8093E8000E9445298091E800F6
:1058C00083FF0AC08091E800877F8093E800809181
:1058D000EB0080628093EB00AA96E3E00C94D82C56
:1058E0000895CF938091A3038823A1F0C091E9008C
:1058F000CF709091EC00892F817090FD80E8C82BCB
:105900001092E9008091E80083FD0E94292BCF705E
:10591000C093E900CF91089597FB072E16F40094E9
:1059200007D077FD09D00E94E42C07FC05D03EF497
:10593000909581959F4F0895709561957F4F08953B
:10594000EE0FFF1F0590F491E02D0994692796272B
:10595000692778278727782708952F923F924F92BB
:105960005F926F927F928F929F92AF92BF92CF92EF
:10597000DF92EF92FF920F931F93CF93DF93CDB7F8
:10598000DEB7CA1BDB0B0FB6F894DEBF0FBECDBF70
:1059900009942A88398848885F846E847D848C8441
:1059A0009B84AA84B984C884DF80EE80FD800C814A
:1059B0001B81AA81B981CE0FD11D0FB6F894DEBF2D
:1059C0000FBECDBFED010895AA1BBB1B51E107C05F
:1059D000AA1FBB1FA617B70710F0A61BB70B881F7F
:1059E000991F5A95A9F780959095BC01CD0108950E
:1059F000FB01DC0102C005900D9241505040D8F7E8
:105A00000895FB01DC0104C08D910190801921F4FF
:105A100041505040C8F7881B990B0895FB01DC01E9
:105A200002C001900D9241505040D8F70895DC011A
:105A300001C06D9341505040E0F70895DC01CB0167
:105A4000FC01F999FECF06C0F2BDE1BDF89A31968E
:105A500000B40D9241505040B8F70895F999FECF27
:105A600092BD81BDF89A992780B50895A8E1B0E06C
:105A700042E050E00C94202DDC01A40FB51F4150F2
:105A8000504048F0CB01840F951F2E910E944D2D60
:105A900041505040D0F70895262FF999FECF92BD7E
:105AA00081BDF89A019700B4021639F01FBA20BDE3
:105AB0000FB6F894FA9AF99A0FBE08950396272F15
:105AC0000E944D2D0E944C2D252F0E944D2D242FDC
:105AD0000C944D2D0196272F0E944D2D0C944C2D8A
