:100000000C94C8010C9400020C9400020C940002A1
:100010000C9400020C9400020C9400020C94000258
:100020000C9400020C9400020C946A1C0C943E1D6B
:100030000C943B170C9400020C9400020C940002E8
:100040000C9400020C9400020C9400020C94000228
:100050000C9400020C94C2170C9400020C94000241
:100060000C9400020C9400020C9400020C94000208
:100070000C9400020C9400020C9400020C940002F8
:100080000C9400020C9400020C9400020C940002E8
:100090000C9400020C9400020C9400020C940002D8
:1000A0000C9400020C9400020C9400021F0021002A
:1000B0002300250027002A001E0020002200240023
:1000C00026002D0014000800170018001200380048
:1000D000165C1A0015001C000C0013000400070039
:1000E0000A000D000F0028412B41160009000B00EB
:1000F0000E0033001D000600050010003700D95C1B
:10010000D85C1B001900110036005200E3004C427D
:100110000000000050004F00E000E20028422C00E8
:10012000340051003B003D003F00410043002A00E5
:100130003A003C003E004000420044001E00200007
:10014000220024002600380029001F00210023007F
:10015000250027003A003C003E002D000000010071
:1001600001003B003D0031022E0031003F00410004
:10017000430030003700E500E100400042002F005E
:1001800036004B00E3000100000000004A004D0073
:10019000E000E20001002C0034004E001F022102AA
:1001A0002302250227022A001E0220022202240224
:1001B0002602005C1E0220022202240226023102D4
:1001C00029001F022102230225022702000000004D
:1001D00000002D02000028002B000000000031006C
:1001E0002E02000000000000000030023700E50091
:1001F000E100000000002F023600A900E30001002A
:10020000000000004A004D00E000E20001002C0068
:100210003400AA001E0373006C007A003400300022
:100220005F00720065006400610063007400650097
:1002300064000000120353006900740068004C0061
:100240006F007200640000000403090409023B000F
:10025000020100A0FA0904000001030101000921C4
:100260001101000122400007058103080001090473
:100270000100010300000009211101000122B60064
:10028000070582032000011201000200000008EDB2
:10029000FE000000010102000105010902A1018523
:1002A000020901A100050919012908150025019578
:1002B00008750181020501093009311581257F95F5
:1002C000027508810609381581257F950175088119
:1002D00006050C0A38021581257F950175088106EF
:1002E000C0C005010980A101850319012AB70015C5
:1002F0000126B700950175108100C0050C0901A108
:1003000001850419012AA002150126A00295017594
:10031000108100C005010906A1018506050719E045
:1003200029E71500250195087501810205071900C7
:1003300029EF1500250195F07501810205081901C5
:100340002905950575019102950175039101C00577
:10035000010906A101050719E029E7150025019506
:1003600008750181029501750881010507190029A9
:10037000FF150026FF009506750881000508190184
:100380002905950575019102950175039101C0003C
:1003900011241FBECFEFDAE0DEBFCDBF04B603FEEF
:1003A00018C08091B5029091B602A091B702B091A9
:1003B000B8028730904BA740B04B59F41092B50269
:1003C0001092B6021092B7021092B802E0E0F8E381
:1003D000099511E0A0E0B1E0E2E6FFE302C005907C
:1003E0000D92AA38B107D9F722E0AAE8B1E001C01E
:1003F0001D92A53BB207E1F70E9411110C94991FC1
:100400000C94000081E0089581E008950E940402A8
:10041000089508950E9409020895A5E0B0E0E3E17F
:10042000F2E00C940E1F49835A8330918D0189812B
:100430009A81311119C0662399F0222389F00E9414
:100440001D08182F682F89819A810E94F9076981F8
:100450007A81812F0E94940E2596E3E00C942A1F46
:100460000E940B08182FF3CF0E941D0869817A8122
:10047000F1CFFC01262F40815181628173818481FB
:100480000E940D02089581E00895CF93DF93EC015F
:1004900060E00E943902BE010E940A02DF91CF9102
:1004A00008950E94D30F08950E94D70F08950895CC
:1004B0000E9448060E9457022FEF84E39CE02150DF
:1004C00080409040E1F700C0000008950E9458026B
:1004D0000E94E61708950E9458020E940A18089583
:1004E0000F931F93CF93DF938C0161E00E94390239
:1004F000EC01B8010E940602811106C080E0DF9184
:10050000CF911F910F910895B801CE010E946D15F2
:100510008823A1F3B801CE010E94A213882371F3AE
:10052000B801CE010E94DF14882341F3F8018281D3
:10053000882361F0CB35FDE5DF0701F158F4C115E3
:10054000ECE5DE0791F0CF3DDC4591F0C8010E945B
:100550000202D5CFCD358DE5D80769F090F0C83AC5
:10056000DD45A1F70E946B02C9CF0E946602C6CF8B
:100570000E94E30CF7CF0E941D0CE8CF0E94270CCD
:10058000E5CF0E942B0CE2CF0E9418170E94E102D7
:1005900008950E94E5020E941D17089508950E9483
:1005A000CE02089581E008950E94D2020895089530
:1005B000CF93C82F0E94CF028C2F0E94D402CF91DC
:1005C000089580E00E94D80208950E94C9150E94F3
:1005D000D80208950E94C91590918C01981721F0B6
:1005E00080938C010E94D8020895ABE0B0E0EBEF5D
:1005F000F2E00C940F1F4F83588769877A878B87A7
:1006000061110E94680B1E821D8285E0FE013796F3
:10061000DE01119601900D928A95E1F78C819D8102
:10062000892B61F449815A816B817C818D819E8106
:100630000E94910A2B96E2E00C942B1F89819A81EB
:1006400089238F3F79F3CE0101960E9443028111E5
:10065000E9CFF0CFFC01808191810E945708089575
:10066000CF93C82F8823B9F08CEF8C0F813AA8F470
:100670006C2F80910001909101010E943E16882309
:1006800029F08C2F0E94280B0E94890B8C2F0E942E
:10069000200B0E94890BCF91089580E28C0F883047
:1006A00048F4C77081E001C0880FCA95EAF70E943C
:1006B0004B0BEFCFEBE5EC0FE33040F4F0E0EB5BFE
:1006C000FE4F808190E00E94FE15E5CFE8E5EC0F3B
:1006D000E73150F4F0E0EE0FFF1FE95EFE4F80813E
:1006E00091810E941416D7CFCD3EA8F28C2F0E9484
:1006F00095110E946812CFCF882379F19CEF980F53
:10070000913A28F40E94280B0E94890B089590E2E8
:10071000980F983050F4877091E001C0990F8A9536
:10072000EAF7892F0E94510BEFCF9BE5980F93308A
:1007300028F490E080E00E94FE15089598E5980F57
:10074000973128F490E080E00E94141608958D3EC1
:1007500020F00E94EF110E94681208951F93CF931A
:10076000DF93182FEB010E943003209739F4812F7B
:100770000E947C03DF91CF911F9108958FE99FE044
:100780000197F1F700C000002197EFCF70E060E023
:10079000893311F460E570E00E94AE030895882368
:1007A00021F00E944B0B0E94890B0895882321F0B1
:1007B0000E94510B0E94890B0895B0E0A0E0E3EE87
:1007C000F3E00C94081F6C01D62FC72FFC01128197
:1007D000F580F2949FE0F9220E94410BE82E8823D5
:1007E000B9F0E12E1123A1F08C2F807F803421F00D
:1007F00080E28D0F8830D0F080918F0282FF16C08A
:1008000082E00E94EC0B0E94410B91E0E82EE92669
:10081000BC2EB2948FE0B822FBE0FB1508F468C050
:10082000EB2DF0E0E556F04E0C94F91EE12CF0CFE4
:100830000C2F0F70C07F11F00295007F112399F0EB
:10084000002359F080E28D0F883010F0D11107C0DD
:10085000802F0E944B0B0E94890B8D2F41C0802F4F
:100860000E945B0BF8CF8D2F0E947C03002309F4BC
:100870003FC080E28D0F883010F0D11104C0802F6E
:100880000E94510B03C0802F0E94610B0E94890BB4
:100890002FC00C2F0F70C07FC03211F00295007F67
:1008A000DD2381F0D13009F463C0112309F46DC058
:1008B000FF2009F463C0F601858180FFCECF8F70E1
:1008C00085835CC080918F0282FD33C0112359F073
:1008D000002329F0802F0E944B0B0E94890B80E09F
:1008E0000E94300305C080E00E947C030111C7CF45
:1008F000EB2DE850FF0B349720F40E94C9150E949D
:10090000D802EE2089F00E943D0B80FD0DC0F6015B
:1009100012820E94370B0E940107C6010E9408063E
:100920000E94370B0E942307CDB7DEB7E9E00C9495
:10093000241F112389F0F11006C00E946B0B802B3D
:100940000E94CF03D5CF21E0F212F7CF0E946B0BAC
:10095000802B0E94720BCCCFF11006C00E947F0B3F
:10096000802F0E94D603C4CF31E0F31609F2F6CFF0
:10097000112331F085E08F1508F4BACF802FE0CF36
:1009800094E09F1508F4B4CFEBCFFF2049F3D9339F
:1009900049F4FFEF27EE33E0F15020403040E1F71B
:1009A00000C000008D2F0E947C03A2CF8C2F869563
:1009B0008695837069F0813009F09ACF8D2F9C2F36
:1009C0009370111102C090E080E00E94141690CF45
:1009D0008D2F9C2F9370111102C090E080E00E9437
:1009E000FE1586CF8D2F112329F00E9495110E94AC
:1009F00068127ECF0E94EF11FACF8C2F837009F01E
:100A000041C0111175CF4D2F429546954770440F47
:100A1000440F0D2F0F7010E030E020E0042E04C0D2
:100A2000000F111F221F331F0A94D2F760E070E0FD
:100A3000CB01D4FF0FC06FE070E080E090E004C015
:100A4000660F771F881F991F4A95D2F7609570959A
:100A500080959095C695C695C370602B712B822B9F
:100A6000932BC23049F058F4C13019F00E94AC0603
:100A70003FCF0E9499063CCF0E94BF0639CF0E940B
:100A8000960636CF8695112311F08C2F817088231E
:100A900009F42ECF4D2F429546954770440F440FD1
:100AA0000D2F0F7010E030E020E0042E04C0000F86
:100AB000111F221F331F0A94D2F760E070E0CB01B0
:100AC000D4FF0FC06FE070E080E090E004C0660FDC
:100AD000771F881F991F4A95D2F76095709580956A
:100AE0009095C695C695C370602B712B822B932B66
:100AF000C23049F058F4C13019F00E947C07F8CE9A
:100B00000E946907F5CE0E948F07F2CE0E94D80698
:100B1000EFCECF70112329F08C2F0E9401078D2F6B
:100B20000FCF8D2F0E94D6038C2F0E942307E0CE7B
:100B3000D23F51F160F4D03FB9F0D13F81F01123A1
:100B400009F449C0F11089CE8C2F8F7121C0D33F99
:100B500011F1D43FA1F780918F0282FD26C08C2F26
:100B60008F71112311F314C0112349F084E08F1504
:100B700008F4BECE8C2F8F710E944707B9CE95E046
:100B80009F1508F4B5CEF6CF8C2F8F711111CDCFF4
:100B90000E940107ADCE112329F08C2F8F710E9486
:100BA000EB06A6CE0E94E506A3CE112349F0CF7135
:100BB0008C2F0E94010763E08C2F0E94CE0B98CEF1
:100BC00081E00E94EC0BE1E0EF1508F091CE82E0AD
:100BD0000E94EC0B8DCEF110DACE8C2F8F71A5CF49
:100BE0000F931F93CF93DF93EC01688179818A8102
:100BF0000E9462088C010E94A2070E949506B8011B
:100C0000CE010E94DD03DF91CF911F910F910895D6
:100C1000CF93DF93EC018B819C81892B29F0888114
:100C2000998189238F3F51F4DF91CF910895CE01AF
:100C30000E94F005CE010E944502F6CFCE010E942F
:100C400070028111F4CF0E94410B882369F38A81DD
:100C5000882351F380918F0282FFE6CF82E00E94C9
:100C6000EC0BE2CF90E080E00E94FE1590E080E087
:100C70000E9414160E94680B0E94890B0E94841225
:100C80000E94681208950E94300B0E943206089557
:100C90000E94580B0E944306089592959F709630CB
:100CA00091F058F4925F9F70923058F4803F19F0A1
:100CB00030F4883E30F481E008959A5FF4CF843FA9
:100CC000D1F380E00895883EB0F3813FD1F7F3CFB0
:100CD000FC01808191810E9457080E944D06089571
:100CE000A5E0B0E0E6E7F6E00C940F1F2596E2E001
:100CF0000C942B1FA6E0B0E0E0E8F6E00C940F1F88
:100D00002696E2E00C942B1F08950E948406089515
:100D10000E9485066093BA017093BB018093BC0169
:100D20009093BD010E943206089508950E9488069E
:100D300008950F931F930091BA011091BB01209168
:100D4000BC013091BD01602B712B822B932B0E9433
:100D500088061F910F9108950F931F930091BA0178
:100D60001091BB012091BC013091BD016023712322
:100D7000822393230E9488061F910F9108950F9359
:100D80001F930091BA011091BB012091BC013091D9
:100D9000BD0160277127822793270E9488061F9133
:100DA0000F9108950E94840608950E94D206089526
:100DB0000E94D5066093B6017093B7018093B80185
:100DC0009093B9010E943206089560E070E0CB0173
:100DD0000E94D80608950F931F9341E050E060E011
:100DE00070E08A019B0104C0000F111F221F331FF6
:100DF0008A95D2F7C901B8010E94D8061F910F91B8
:100E000008950F931F9341E050E060E070E004C04C
:100E1000440F551F661F771F8A95D2F78091B60140
:100E20009091B701A091B801B091B9018A019B01DD
:100E3000082B192B2A2B3B2BC901B8010E94D8067D
:100E40001F910F9108950F931F9341E050E060E0D0
:100E500070E004C0440F551F661F771F8A95D2F7B4
:100E6000CB01BA0160957095809590950091B6017F
:100E70001091B7012091B8013091B901602371231D
:100E8000822393230E94D8061F910F9108950F93F8
:100E90001F9341E050E060E070E004C0440F551F34
:100EA000661F771F8A95D2F78091B6019091B7019E
:100EB000A091B801B091B9018A019B0108271927B7
:100EC0002A273B27C901B8010E94D8061F910F911C
:100ED00008950F931F930091B6011091B7012091CF
:100EE000B8013091B901602B712B822B932B0E949A
:100EF000D8061F910F9108950F931F930091B6018B
:100F00001091B7012091B8013091B901602371238C
:100F1000822393230E94D8061F910F9108950F9367
:100F20001F930091B6011091B7012091B801309143
:100F3000B90160277127822793270E94D8061F9145
:100F40000F9108950895262F277091E001C0990F01
:100F50002A95EAF723E0769567952A95E1F725E04B
:100F6000269FF001279FF00D1124E40FF51F50E09C
:100F700040E0682F70E08191DF0111979B01042E02
:100F800002C0369527950A94E2F72170219528270B
:100F9000292328272C934F5F5F4F4530510559F780
:100FA0000895A82FA77023E0969587952A95E1F7D5
:100FB00025E0289FF001299FF00D1124E60FF71F6F
:100FC00050E040E080E0219130E00A2E02C03695EA
:100FD00027950A94E2F721703327042E01C0220FCF
:100FE0000A94EAF7822B4F5F5F4F4530510559F75E
:100FF0000895262F9A3070F4863060F4682F70E0E0
:1010000086E0989F600D711D11244EE851E0822FFB
:101010000E94A3070895292F9A3068F4863058F467
:1010200090E06EE871E036E0239F800D911D112461
:101030000E94D107089580E00895B0E0A0E0E3E2C7
:10104000F8E00C94081F8C01C090B601D090B70155
:10105000E090B801F090B9018091BA019091BB0184
:10106000A091BC01B091BD01C82AD92AEA2AFB2A65
:10107000CFE1D0E0BC2ED701C6010C2E04C0B6953E
:10108000A795979587950A94D2F780FD09C0219777
:1010900088F7B12C8B2DCDB7DEB7E9E00C94241F77
:1010A000B8018C2F0E94AF0E019789F3F3CFCF9335
:1010B000DF93EC010E941D08BE010E94AF0EDF917C
:1010C000CF9108951F93CF93DF93EB0190918D0102
:1010D000992339F0CB010E945708DF91CF911F91DE
:1010E0000895882369F0CB010E941D08182F682FEE
:1010F000CE010E94F907BE01812F0E94AF0EEDCFF5
:10110000CB010E940B08182FF6CF1F93CF93DF93CC
:10111000C091BE0116E08091BF018C1304C0DF9125
:10112000CF911F910895D0E01C9FF0011D9FF00DFD
:101130001124E054FE4F408151816281738184818A
:1011400095810E947A062196C770E5CF4091F00103
:101150005091F1016091F2017091F3018091F401DD
:101160009091F5010E947A0608951F93CF93DF9323
:101170008091F501807F09F049C08091F2018823B8
:1011800009F444C08091BE01C091BF016091F0019B
:101190007091F101A091F301B091F401D62FD72302
:1011A00016E0C81799F190E0109711F0DF3F19F49D
:1011B00001968770F6CF189F9001199F300D11246A
:1011C000F901E054FE4F41814713F2CF40814613AD
:1011D000EFCF42814111ECCF438154814A1B5B0B1D
:1011E000483C510528F78091F5018F70806180930C
:1011F000F501F901EB53FE4F80818F708061808390
:1012000080EF91E00E9408060E948508DF91CF914F
:101210001F910895A1E1B0E0E0E1F9E00C94071F0F
:101220008C0185E0F801DE011D9601900D928A95F2
:10123000E1F7F801E28080EFC82E81E0D82E6091BE
:10124000F3017091F4016115710509F44EC190919B
:10125000F0012091F101892F82238F3F09F445C1CC
:1012600040815181A380B480F090F201F501E61B2A
:10127000F70BFF2009F4EAC08091F501382F307F89
:10128000E83CF10508F0A3C031116DC0FE2C251318
:1012900016C0941314C0E11012C08F708061809347
:1012A000F5010E94A608C6010E9408068091F5017A
:1012B000F80185838F2D6196EAE00C94231FA11419
:1012C000B10429F0842F85238F3F09F027C180E0E6
:1012D000F82FF170DF2E80FF3CC08091BE0120917D
:1012E000BF0136E0821315C04D875E878D859E85D0
:1012F0000E945708292F22952F702230F0F02430B9
:1013000018F59F70F1F0F8019581907FD1F4D12C00
:101310001EC090E0389FF001399FF00D1124E05479
:10132000FE4F6181651306C06081641303C0628152
:10133000E6120FC001968770D5CF9F7011F08823F9
:1013400031F3805E883018F3C8010E940806FD2C36
:10135000B1CFEE2009F4AECF8091F501816080938A
:10136000F501F12CA7CF251306C0941304C0F80192
:10137000EE2009F487C0C8010E946806882319F18D
:10138000EE2009F18091F501803270F02091F0019A
:101390003091F10138872F831986BB86AA868C8706
:1013A000CE0107960E94080686E0F801A0EFB1E0A2
:1013B00001900D928A95E1F70E94B5080E94A60857
:1013C000FF24F39477CFC8010E940806F9CF3111AA
:1013D00013C07A2DB98AA88A6E2D89890E94700659
:1013E00080EF91E00E94080686E0F60111928A954E
:1013F000E9F70E94A608B5CF25130FC094130DC0BE
:10140000E1100BC0F8018583C8010E94080686E040
:10141000F60111928A95E9F74DCFC8010E9468063E
:10142000882389F2EE2079F28091F501803208F468
:10143000BBCF2091F0013091F1013A8329831B82C7
:10144000BD82AC828E83CE010196ACCFE83CF10523
:1014500008F03EC0FE2CEE2009F4B5CF25132AC0BB
:10146000941328C08091F50180FD1BC0982F907FB8
:10147000C1F0F8018583903F31F0982F907F905F05
:101480008F70892B8583C8010E94080686E0F801C9
:10149000A0EFB1E001900D928A95E1F70E94A608B5
:1014A00009CF86E0F801A0EFB1E001900D928A9596
:1014B000E1F700CFC8010E946806811175CF8091C5
:1014C000F50181608093F501C8010E940806F2CE03
:1014D0007A2DB98AA88A6E2D89890E94700686E0C5
:1014E000F60111928A95E9F7D9CFEE2009F46BCF76
:1014F000C8010E946806F82E882309F464CF86E0AC
:10150000F801A0EFB1E001900D928A95E1F780EF2C
:1015100091E00E942A030E94B508C0CF81E08E2589
:10152000D7CEACE0B0E0E7E9FAE00C940E1F4F83B1
:10153000588769877A878B879C87CE0107960E9498
:101540000A09882369F08A859B85892B39F04F81A8
:101550005885842F85238F3F09F06BC016E05FC04C
:1015600086E0FE013796DE01119601900D928A9574
:10157000E1F78A859B85892B89F38F81988589235B
:101580008F3F61F32091BF0130E0C9010196877060
:1015900099274091BE014817190671F40E94480628
:1015A0001092BF011092BE0186E0E0EFF1E0DF0192
:1015B0001D928A95E9F7D2CF96E0929FD001939F32
:1015C000B00D1124A054BE4FFE01319601900D9232
:1015D0009A95E1F78093BF010E948508BFCF819F54
:1015E000C001112480549E4F0E940A098823E9F00B
:1015F000E091BE011E9FF0011124E054FE4F408196
:10160000518162817381848195810E947A068091E3
:10161000BE0190E00196877099278093BE0180916A
:10162000BE019091BF018913DACF2C96E3E00C94B0
:101630002A1F69857A858B859C850E947A068ECFC4
:10164000682F80910001909101010E94BE160895BB
:10165000682F80910001909101010E94CC1608959D
:1016600080910001909101010E94DA160895809105
:101670001602859585958595089580911602877047
:10168000089590911602977081E009F480E0089522
:1016900080913902089590913902892B8093390203
:1016A0000895809590913902982390933902089576
:1016B00010923902089590913802892B8093380254
:1016C0000895809590913802982390933802089558
:1016D00010923802089580911702089508950E948B
:1016E0006E0B089590918F0292FF08C0909117029F
:1016F000981721F0809317020E946F0B0895809134
:101700001702882329F01092170280E00E946F0BC5
:101710000895CF93DF93E0910001F0910101809152
:1017200039028083E0910001F09101018081909164
:101730003802892B808390911702992381F0E091E0
:101740000001F09101018081892B8083809100014B
:10175000909101010E942A1681110E947F0BC09175
:101760000001D091010140E250E066EF71E0CE014E
:101770000E944A1F892B59F080E2FE01A6EFB1E0DA
:1017800001900D928A95E1F7CE010E94D615DF9166
:10179000CF91089508950E94CA0B089590918F02E9
:1017A00092FF11C098E0899F90011124622B6093F1
:1017B00016020E94010780911602859585958595F0
:1017C0000E94CB0B08950E94010708951092160203
:1017D00080E00E94CB0B089590911602809589239A
:1017E00080931602282F277091F4282F082E000CC2
:1017F000330B9217130659F090918F0292FF07C096
:101800008595859585950E9423070E94E60B08958E
:1018100090918F0292FB222720F9281769F080FB14
:1018200092F990938F0280918E0290918F020E9484
:10183000590C82E00E94EC0B089580918F0282FB8C
:10184000882780F991E089270E94080C089581E09B
:101850000E94080C089580E00E94080C08956FEF24
:101860007FEF90E080E00E94831F089590E080E089
:101870000E945F1F21E0883E9E4F09F020E0822FEA
:10188000089582E090E00E94571F089583E090E061
:101890000E94571F0895CF9384E090E00E94571F45
:1018A000C82F82E290E00E94571F982F8C2FCF9173
:1018B0000895CF93C92F682F84E090E00E94651FA0
:1018C0006C2F82E290E00E94651FCF910895AB01DA
:1018D000BC018FE090E00E94771F0895AB01BC012E
:1018E00083E190E00E94771F089560E070E0CB01F3
:1018F0000E946E0C089560E070E0CB010E94670CBE
:101900000E94750C089568EE7EEF90E080E00E94E2
:10191000831F60E082E090E00E94651F60E083E04A
:1019200090E00E94651F1092BA011092BB011092C4
:10193000BC011092BD0160E084E090E00E94651F50
:1019400064E082E290E00E94651F60E085E090E044
:101950000E94651F60E086E090E00E94651F6FEFC7
:1019600087E090E00E94651F40E050E0BA0188E007
:1019700090E00E94771F60E08DE090E00E94651F7C
:1019800040E050E0BA0188E190E00E94771F60E0FB
:1019900087E190E00E94651F40E050E0BA018CE1D1
:1019A00090E00E94771F70E060E080E290E00E948B
:1019B000831F40E050E0BA0188E190E00E94771F69
:1019C0000E947B0C08950E94830C0895682F8EE07E
:1019D00090E00E94651F08950E94A7176093480237
:1019E0007093490280934A0290934B0260934402A1
:1019F000709345028093460290934702089508959C
:101A000008950E94000D089508950E94040D089500
:101A10008EE89FE00E94BF150E94FF0C0E94010DFE
:101A2000089581E008950E94110D08950895089584
:101A30000E94160D0E94170D08950E94AD0F0E947E
:101A4000D70208950E9492170E947B100E941D0DDC
:101A50000E94050D0895AAE0B0E0E1E3FDE00C94DA
:101A6000061F0E949110C82E81110E94EC0C8AE37F
:101A7000A82E82E0B82E10E000E0902E802F0E9469
:101A8000DA0FE82EF501F1905F01F816B9F18091B7
:101A90004C0281FD0E94E00F8F2D8E25D12CFF245A
:101AA000F394982F9F2129F10E94130D882399F018
:101AB000DE829F82EF2081E009F480E088870E9427
:101AC0009B178160782F9A8789874E815F8168850F
:101AD0008A850E94F502F801E65CFD4F8081F826B8
:101AE000F08281E0C11001C080E02A96EBE00C9406
:101AF000221FD394FF0CF6E0DF12D3CF0F5F1F4FEE
:101B00000A30110509F0B9CF8FEF89838A831B82D0
:101B10000E949B178160782F9D838C8349815A8115
:101B20006B818D810E94F502DCCF0E942B0D0E94FB
:101B3000A6120E94EA020895CF93DF930E94B40E8A
:101B4000EC01811521E5920708F042C0811530E5CE
:101B5000930708F09DC0883E910530F5803E9105C1
:101B600008F092C0883A910588F4853A910508F00A
:101B700084C08130910509F487C0009709F484C0BE
:101B8000049708F081C0D0E0C0E07EC08F3B910593
:101B9000D0F7C85AD0E0CC0FDD1FC85BDE4F0990EC
:101BA000D881C02DD46470C08115904250F4C11505
:101BB00081E0D80708F068C0CD3ED10520F3D0659C
:101BC00063C0C11590E4D907F0F2DF70D06A5CC041
:101BD000811525E5920700F5811534E5930708F096
:101BE0008BC0811543E5940708F073C0C11582E5E9
:101BF000D80708F469C0CE018370992721E030E04E
:101C000002C0220F331F8A95E2F7C695C69580E27F
:101C1000C89FE001112454C0C11599E5D907A8F463
:101C2000C11528E5D20708F06CC0C11536E5D30709
:101C300008F0A9CF8C2F0E944B0FC82FD0E0DC2FCB
:101C4000CC27CC27DF71D0621FC0C1154AE5D4076D
:101C500008F45CC0CE0190568115904208F093CFF5
:101C60008D2F8F710E944B0F90E0982F8827882727
:101C70009F719C012C2BE901E6CFC55AD0E0CA58D0
:101C8000DE4FC881D0E0D064CE01DF91CF910895BE
:101C9000E4E096958795EA95E1F783702C2F2695D9
:101CA0002695237040E2249F90011124382B8C2F1D
:101CB0008370C1E0D0E002C0CC0FDD1F8A95E2F74F
:101CC000C22BD32BDC68E0CFDC2FCC27C16FD06ACE
:101CD000DBCF8370992721E030E002C0220F331F51
:101CE0008A95E2F7C695C69590E2C99FE001112456
:101CF000C22BD32BDA68C8CFD82FCC27C46FD06AB9
:101D0000C3CFDC2FCC27C06FD06ABECF8C2F8F7093
:101D10000E944B0F34E0D695C7953A95E1F7CF7006
:101D20009C2FEC01D069B0CF972F7A30A8F46630A1
:101D300098F470E026E0929F600D711D1124FB0164
:101D40009CE3899FE00DF11D1124EE0FFF1FE45568
:101D5000FF4F85919491089580E090E008950E944E
:101D6000940E0E949C0D089582389105B1F1B0F453
:101D70008133910509F475C048F48932910509F45D
:101D800069C08A32910509F473C0089585339105BD
:101D900009F459C08933910501F10895833E9105F5
:101DA000A9F138F4803E9105F9F0823E910549F1A0
:101DB0000895863E9105A9F1873E9105C9F1843EBB
:101DC000910519F520918F0221FF1FC080918E028D
:101DD00084FD14C087EE90E0089520918E02237058
:101DE000A1F080EE90E0089520918E0220FD47C082
:101DF00030918F0230FF09C024FF44C090E080E0A2
:101E000004C020918E0222FDF7CF089520918E020A
:101E100022FD3BC030918F0230FDE3CF24FFF5CF90
:101E2000EDCF20918E0223FFF0CF24FDE7CFD2CF5C
:101E300020918E0223FD2CC030918F0231FFEECF16
:101E400084EE90E0089520918E0225FFDECF89E296
:101E500090E0089520918E0225FFD7CF85E390E092
:101E6000089520918E0226FFD0CF8AE290E0089557
:101E700020918E0226FFC9CF81E390E0089589E387
:101E800090E0089583EE90E0089582EE90E008954A
:101E900086EE90E0089590918E0292FF06C0282F62
:101EA00028712830F9F4877F846093FF06C0282FBB
:101EB00028712831F1F4877E846120918F0220FF00
:101EC00006C0382F38713830D9F4877F816021FF00
:101ED00006C0282F28712831D1F4877E816194FDB6
:101EE000877E0895282F24712430F9F68B7F88602F
:101EF000DCCF282F2471243101F78B7E8861DDCF60
:101F0000382F3171313019F78E7F8860E0CF282F5C
:101F10002171213121F78E7E8861E1CF80E0089523
:101F20000E942F0C08950E9491102FEF86E791E0F8
:101F3000215080409040E1F700C000000E949110C5
:101F400080E00E94DA0F80FF04C00E94900F0E9480
:101F5000E61708950E94930F08950E94360C811190
:101F600002C00E94E30C0E94410C80934C020E942C
:101F70004B0C90938F0280938E020E94AA0F0E94B6
:101F8000460C682F70E090E080E00E949606609119
:101F9000B6017091B7018091B8019091B9010E948A
:101FA000D506089508950E94D20F089508950E94BD
:101FB000D60F0895E82FF0E0E656FD4F8081089592
:101FC000089580EA8A95F1F7089500C008950E9467
:101FD000E10F0895F894E82FE295EF70F0E031A159
:101FE000282F2F7081E090E001C0880F2A95EAF732
:101FF000982F9095932391A392A1892B82A37894F3
:102000000895CF93DF93CFE7D1E089918F3F11F00F
:102010000E94EA0F81E0C938D807B9F7C9E7D1E0D3
:1020200089918F3F11F00E94EA0F81E0CF37D807E6
:10203000B9F7DF91CF910895B0E0A0E0E2E2F0E1DE
:102040000C94091FEC01D62E062F10E0C801815810
:102050009E4F7C01FC0180818F3F09F445C0F894BC
:10206000E82FE295EF70F0E091A18F7021E030E071
:1020700001C0220F8A95EAF7892F822B81A382A1C2
:102080002095282322A378940E94E50FE9E7F1E048
:102090004FE751E031E0C12C21912F3F51F1A22FA8
:1020A000A295AF70B0E090968C9190E02F7002C036
:1020B000959587952A95E2F780FD1BC0832FC82A46
:1020C000330F4E175F0741F7F70180818F3F11F003
:1020D0000E94EA0F61E0C11001C060E08D2D0E94F6
:1020E000E70FC00FD11FC882CDB7DEB7E8E00C9470
:1020F000251F80E0E4CF0E9401108AE0EAE9F2E0C7
:10210000DF01982F1D929A95E9F7E0E9F2E0DF01EF
:102110001D928A95E9F78AE00E94CD100E94510233
:102120000895AAE0B0E0E7E9F0E10C940C1F8E01FD
:102130000F5F1F4F8AE0F80111928A95E9F7F12CA1
:102140006F2DC8010E941C10F394FAE0FF12F8CF23
:102150004AE050E0B80180E992E00E944A1FFF2463
:10216000F394009709F4F12C892B41F08AE0F801EF
:10217000A0E9B2E001900D928A95E1F72F2D4AE097
:102180006AE972E080E992E00E94CE100E94540257
:102190008F2D2A96E5E00C94281F0895FF920F9347
:1021A0001F93CF93DF93F82E092F162FD72FC42F0D
:1021B000222349F081E080934F020E949B17909365
:1021C0004E0280934D0280914F028823A1F08091AE
:1021D0004D0290914E020E94B317059760F0EF2DCB
:1021E000F02FA12FBD2FCE0FDF2FD11DEC17FD0734
:1021F00039F410924F02CDB7DEB7E5E00C94281FFA
:1022000081918D93F3CF0E94C0190E94220D0E94EC
:10221000CD1908950E94D2190E94950D0E94EC19C3
:1022200008950E9434170E94A6190E94080D0E946A
:1022300003110E940A110E94180DFBCF80915602D3
:1022400080FF0DC06091070170E0660F771F603856
:10225000710570F56115710569F1862F089581FF8B
:1022600007C06091070184E0689FB0011124EFCF9F
:102270006091070182FD0AC0809155028823A9F070
:102280002091060160910701821710F088E0ECCFE1
:10229000869FC001112433E0880F991F3A95E1F71A
:1022A000622F70E00E94E51ED2CF68E070E0D5CFCB
:1022B0008FE7089581E008958091560280FF0CC059
:1022C0006091030170E07595679575956795611547
:1022D000710549F1862F089581FF06C060910301C1
:1022E00070E075956795F3CF6091030182FD0BC097
:1022F000909154029923A1F0609102018091030111
:10230000961738F0682F70E06038710500F38FE79A
:102310000895899FC001112470E00E94E51EF4CF4A
:1023200061E070E0D7CF81E008958D3E31F40E94E6
:102330001E11819580935A0208958E3E19F40E94D1
:102340001E11F8CF8F3E31F40E941E1181958093AB
:1023500059020895803F19F40E941E11F8CF893F59
:1023600029F40E945C1180935B0208958A3F21F456
:102370000E945C118195F7CF8B3F31F40E945C1174
:10238000819580935C0208958C3F19F40E945C1142
:10239000F8CF9FE0980F983070F4815F990B21E09F
:1023A00030E001C0220F8A95EAF780915802822B13
:1023B0008093580208958D3F31F4809156028160D8
:1023C0008093560208958E3F21F4809156028260D8
:1023D000F7CF8F3FB9F7809156028460F1CF4091DB
:1023E00059028D3E59F480915A0287FF0DC0109218
:1023F0005A0241110BC01092550208C08E3E81F462
:1024000080915A0218169CF3442381F080915B025C
:1024100090915C02892B09F05AC0109254020895E1
:102420008F3E49F447FFF0CF1092590280915A0233
:102430008111ECCFE0CF803F19F41416ACF3E4CF58
:1024400090915B02893F29F41916F4F610925B0211
:10245000DBCF8A3F19F497FFD7CFF8CF90915C027A
:102460008B3F29F497FFD0CF10925C02CDCF8C3FE9
:1024700019F41916CCF3C8CF9FE0980F983090F458
:10248000815F990B21E030E0B90102C0660F771F30
:102490008A95E2F7CB018095909158028923809329
:1024A0005802B2CF8D3F31F4809156028E7F8093D7
:1024B0005602AACF8E3F21F4809156028D7FF7CF2E
:1024C0008F3F09F0A1CF809156028B7FF0CF089506
:1024D0000E949B179C019091590280915A02982B5F
:1024E00021F0309353022093520290915B0280912D
:1024F0005C02982B21F0309351022093500287E523
:1025000092E00E94F015089586E0E7E5F2E0DF0131
:102510001D928A95E9F7109255021092540210927A
:1025200056020895FC01828181110EC083818111C0
:102530000BC08481811108C091E08581811101C0A7
:1025400090E0892F8170089581E0FCCFA6E0B0E093
:10255000ECEAF2E10C940E1F86E0E7E5F2E0DE0122
:10256000119601900D928A95E1F7109259021092FE
:102570005A0210925B0210925C028B819C81892B23
:1025800089F080915202909153020E94B317AC01DE
:10259000909155029923C9F180910801841715067D
:1025A00008F440C08D819E81892B91F0809150026A
:1025B000909151020E94B317AC019091540299235B
:1025C00009F471C0809104018417150608F479C0DC
:1025D000BE016F5F7F4F87E592E00E94EC1681118C
:1025E00005C087E592E00E94921281110E94681254
:1025F00086E0FE013196A7E5B2E001900D928A9542
:10260000E1F72696E3E00C942A1F209109018AE065
:10261000289F900111242417350720F69F5F90937F
:10262000550202C09F3FD1F71B81112359F00E9430
:102630001E119FEF11160CF491E0899F802D11243B
:10264000809359021C81112359F00E941E119FEFA3
:1026500011160CF491E0899F802D112480935A0269
:1026600030915902332309F49DCF20915A0222233D
:1026700009F498CF45EB3403C0011124992359F094
:102680009093590245EB240390011124332339F030
:1026900030935A0287CF81E080935902F3CF81E0D3
:1026A00080935A027FCF209105018AE0289F9001F4
:1026B00011242417350708F08BCF9F5F90935402A5
:1026C00002C09F3FD1F71D81112359F00E945C1178
:1026D0009FEF11160CF491E0899F802D11248093B7
:1026E0005B021E81112359F00E945C119FEF1116AD
:1026F0000CF491E0899F802D112480935C0230912D
:102700005B02332309F464CF20915C02222309F495
:102710005FCF45EB3403C0011124992359F0909306
:102720005B0245EB240390011124332339F03093ED
:102730005C024ECF81E080935B02F3CF81E0809317
:102740005C0246CFCF93DF93EC01FB0182818823AB
:1027500009F433C1C430FDE5DF07C0F5CB3F9CE58C
:10276000D90730F49E0122503C4524313105B0F5A3
:102770000E944B0C90938F0280938E02C1318CE5A6
:10278000D80709F4EEC008F069C0C930ECE5DE07EF
:1027900009F4D5C0C8F5C5308CE5D80709F4C7C021
:1027A00000F5C330ECE5DE0709F4B9C008F0BBC0A2
:1027B000C230DC4509F4ADC080918E0290918F0249
:1027C0000E94590C0E94480680E008C0C236EDE520
:1027D000DE0771F2C63AFDE5DF0751F2DF91CF91D6
:1027E000089580918E028062C7309CE5D90709F474
:1027F00093C080918E028061C830DC4508F48CC0A3
:1028000080918E02806488C080918E028B7FCD3053
:10281000FCE5DF0709F480C098F480918E028E7F7A
:10282000CB309CE5D90709F477C080918E028C608B
:10283000CC30DC4508F470C080918E028D7F6CC076
:1028400080918E028F7ECF30FCE5DF0709F464C0F3
:1028500008F47BC080918E028F7D5EC0CE3F9CE5E8
:10286000D90709F47AC050F5C531FCE5DF0709F452
:1028700086C098F480918E02837FC3319CE5D9078E
:1028800009F44AC008F471C00E94480690918E0273
:10289000892F97FB87F980583FC0CC3FFCE5DF07C5
:1028A00009F449C008F055C080918F028160CB3F88
:1028B000DC4509F081CF80938F027ECFC230EDE5F9
:1028C000DE0709F468C0A8F4C1158DE5D80709F43E
:1028D00052C080918F028360C130DD4560F38091EA
:1028E0008F02982F909591708E7F892B90FB81F9A4
:1028F000E2CFC236EDE5DE0709F451C0C63AFDE588
:10290000DF0709F453C0C330DD4509F055CF80E03F
:1029100043C080918E02816080938E024DCF809162
:102920008E028260F9CF80918E028460F5CF809113
:102930008E028860F1CF80918F028260BCCF0E94AE
:10294000480680918E028068E7CF80918E02877F53
:10295000E3CF80918F028E7FAECF80918F028D7FEB
:10296000AACF80918E028F7BD7CF0E94480680919C
:102970008E028F77D1CF80918F028C7F9CCF8091F8
:102980008E0282FB992790F921E0922790FB82F931
:1029900090FB83F9C1CF81E00E94E60C0DCF9091AE
:1029A0008E02892F8F7E94FF8061B6CF90918E0228
:1029B000892F8E7F90FF8160AFCF81E00FCFCF93C3
:1029C000DF93EB0186319C4511F50E94480B9A81FB
:1029D000992399F08A7A91E009F490E090935D024E
:1029E000811109C089E20E94200B0E94890B80E0BE
:1029F000DF91CF91089585E3F6CF80915D0281113B
:102A000004C089E20E94280BF0CF85E3FBCF81E070
:102A1000EFCF0F931F93CF93DF93C42FD22FFC01DF
:102A200082818823C9F0409360020E949B17909393
:102A30005F0280935E0280E28C0F883040F4C770A2
:102A400081E001C0880FCA95EAF70E94CF03DF91A9
:102A5000CF911F910F91089510916002141332C00D
:102A600080915E0290915F020E94B317883C9105AD
:102A700048F5C0E2CD0F1D17B9F080E2810F883014
:102A800040F4177081E001C0880F1A95EAF70E94A0
:102A9000D603C83048F481E09D2F977001C0880F9D
:102AA0009A95EAF70E94CF03802F0E94C603C83090
:102AB00070F6D77081E001C0880FDA95EAF70E94BE
:102AC000D603C5CF80E28C0F883008F6C77081E04E
:102AD00001C0880FCA95EAF7F2CF0F939C01CB0192
:102AE000243F4CE5340759F1A8F4293DFCE53F07A4
:102AF00001F12A3D4CE53407D1F1283D3C4591F4E4
:102B000006E221EE41EE68ED7CE50E94091580E0C9
:102B10000F910895263FFCE53F07E9F0B0F0273F0D
:102B20003C45F9F0FC018281882339F11092600262
:102B3000EFCF07E225EE45EE69ED7CE5E6CF06E254
:102B400021EE40EE64EF7CE5E0CF07E225EE44EEB7
:102B500065EF7CE5DACF06E221EE42EE66EF7CE53A
:102B6000D4CF07E225EE46EE67EF7CE5CECF08E254
:102B700021E045EE6AED7CE5C8CF81E0C9CF9093B6
:102B80008B0180938A010895909366028093650279
:102B90000895E0916502F0916602309729F0019066
:102BA000F081E02D0995089580E00895E091650297
:102BB000F0916602309799F020911601222359F086
:102BC00020918E0227FF07C0DC012C9111962C93D7
:102BD000119726E02C930280F381E02D099508954A
:102BE000E0916502F0916602309739F022E0DC0155
:102BF0002C930480F581E02D0995089520916302BE
:102C0000309164022817390771F090936402809321
:102C10006302E0916502F0916602309721F0068030
:102C2000F781E02D099508952091610230916202AB
:102C30002817390771F09093620280936102E09146
:102C40006502F0916602309721F00084F185E02D55
:102C500009950895FC01329680911601882321F090
:102C600080918E029EE187FF96E080E0915008F40B
:102C7000089521912223D1F38F5FF8CF662301F1CC
:102C8000209116012223F1F020918E0227FF1AC015
:102C9000462F4695469546954E3190F4677021E053
:102CA00030E002C0220F331F6A95E2F7840F911DB6
:102CB000FC01828190E02823392381E0232B69F4F1
:102CC00080E00895FC01329608962191261721F0A4
:102CD000E817F907D1F7F4CF81E008959C01FC01D2
:102CE00032969FEF80E04191461751F09F3F19F4D3
:102CF000411101C0982F8F5F8630A9F79F3F09F4DB
:102D00000895290F311D97FD3A95F90162830895C1
:102D1000FC01329608962191261303C0DF0111971A
:102D20001C92E817F907B9F70895E62FE695E6959E
:102D3000E695EE3168F4E80FF92FF11D677021E098
:102D400030E001C0220F6A95EAF78281822B8283EC
:102D50000895E62FE695E695E695EE3170F4E80FD6
:102D6000F92FF11D677021E030E001C0220F6A9554
:102D7000EAF7209582812823228308952091160165
:102D8000222339F020918E0227FF03C00E9495165E
:102D900008950E946E16089520911601222339F09D
:102DA00020918E0227FF03C00E94A91608950E9459
:102DB00088160895FC01329680911601882351F0FF
:102DC00080918E0287FF06C08EE1DF011D928A95F9
:102DD000E9F7089586E0F9CF46E050E00E944A1FE7
:102DE00021E0892B09F420E0822F089508950E94A4
:102DF000F6160895811106C081E0809367020E9453
:102E0000F716089582E0F9CF83E0809367020E946D
:102E1000F71608950E94FA16089581E080936702DC
:102E20000E94F71608950E940D17089508950895B9
:102E30000E9417170895089508950E94161708957F
:102E4000CF930E941B170E9491100E941C17C0E094
:102E50008C2F0E94DA0F811105C0CF5FCA30C1F7F5
:102E6000CF91089581E0FCCF85B7806885BF85B795
:102E7000806885BF08951F921FB61F9211248F93FB
:102E80009F93AF93BF9380916802811113C080918B
:102E9000A4029091A502A091A602B091A70241962A
:102EA000A11DB11D8093A4029093A502A093A60238
:102EB000B093A702BF91AF919F918F911F901FBEBA
:102EC0001F9018958091AC02843031F10E94C402A9
:102ED0001092680288E190E020E40FB6F894A8957B
:102EE000809360000FBE2093600083B7817F846071
:102EF00083BF83B7816083BF7894889583B78E7FC3
:102F000083BF0FB6F894A895809160008861809384
:102F10006000109260000FBE08950E9448060E9453
:102F2000C902089582E084BD93E095BD9AEF97BDF4
:102F300080936E0008952FB7F8948091A402909129
:102F4000A502A091A602B091A7022FBF08952FB7A6
:102F5000F8946091A4027091A5028091A6029091CC
:102F6000A7022FBF08959C014FB7F8948091A40247
:102F70009091A502A091A602B091A7024FBF821B1B
:102F8000930B089578941F921FB61F9211248F936C
:102F90009F93AF93BF938091A4029091A502A091BB
:102FA000A602B091A7020196A11DB11D8093A402B3
:102FB0009093A502A093A602B093A702BF91AF91F0
:102FC0009F918F911F901FBE1F90189581E0809355
:102FD000E00080E28093D8001092C9008FE19EE467
:102FE0000197F1F700C0000087E090EBDC018093CF
:102FF000B5029093B602A093B702B093B80288E1ED
:103000009CE00FB6F894A895809360000FBE909353
:103010006000FFCF88E19CE00FB6F894A8958093FC
:1030200060000FBE90936000FFCF80918C020895E6
:1030300008959C0182E08093E9009FEF8091E80071
:10304000915085FD06C085ED8A95F1F7000091113C
:10305000F5CF8091E80085FF0CC050E040E066E0CD
:1030600070E0C9010E945E1A8091E8008E7780931B
:10307000E8000895CF93DF93EC0180911601882337
:10308000B1F180918E0287FF32C060E282E08093CE
:10309000E9008FEF9091E800815095FD06C095ED15
:1030A0009A95F1F700008111F5CF8091E80085FF36
:1030B0001BC08091160170E050E040E0811104C017
:1030C00050E040E068E070E0CE010E945E1A80911E
:1030D000E8008E778093E80080E2FE01ACE6B2E083
:1030E00001900D928A95E1F7DF91CF91089568E004
:1030F00081E0CDCF8093690270936B0260936A0286
:103100008091AC02843001F582E08093E9008FEF7A
:103110009091E800815095FD06C095ED9A95F1F7E4
:1031200000008111F5CF8091E80085FF0DC050E0CF
:1031300040E063E070E089E692E00E945E1A8091D0
:10314000E8008E778093E8000895BC0184E00E9437
:103150007A180895BC0183E00E947A18089580913E
:10316000AB02811109C00E94EE1B0E944B1C809192
:10317000E20084608093E20008951092AB0208950B
:103180000E940D1708956091A80281E0611101C0AD
:1031900080E00E94041708959091AC0281E0943081
:1031A00009F080E06091A8020E940A17089542E0A9
:1031B00061EC81E00E946A1B42E261EC82E00E94C5
:1031C0006A1B9091AC0281E0943009F080E060913C
:1031D000A8020E94FA1608958091AE02833009F485
:1031E00061C030F48130D1F1823009F49EC008957D
:1031F0008A3009F48AC08B3009F46FC0893009F035
:1032000050C08091AD02813209F04BC08091B10273
:103210009091B202029708F044C08091E800877F45
:103220008093E8008091E80082FF37C09091F3001E
:103230008091F200029731F48091F100813011F019
:10324000863021F48091F10080938C028091E80017
:103250008B778093E8000E949E1B23C08091AD0273
:10326000813AF9F48091E800877F8093E8008091AB
:10327000B1029091B202892B61F460E28CE692E097
:1032800070E00E94AD1A8091E8008B778093E8008F
:10329000089560E090E080E0F3CF8091AC0281116E
:1032A000C1CF08958091AD02813AD9F78091B102E2
:1032B0009091B202892BA9F78091E800877F8093D3
:1032C000E8008091E80080FFFCCF80911601809398
:1032D000F1008091E8008E77BCCF8091AD02813201
:1032E00001F78091B1029091B202892BD1F68091C1
:1032F000E800877F8093E8000E949E1B8091AF02C8
:10330000809316010E94480608958091AD02813293
:1033100041F68091E800877F8093E8000E949E1B21
:103320008091B00280938D0208958091AD02813A20
:1033300009F0B7CF8091E800877F8093E800809103
:10334000E80080FFFCCF80918D02C1CF84B7877FDA
:1033500084BF0FB6F894A89580916000886180932F
:103360006000109260000FBE80E890E00FB6F89405
:1033700080936100909361000FBE0E94131708951F
:103380000E94EE1B0E944B1CE2EEF0E08081846004
:10339000808378940E94CA1E08958AE091E00E947A
:1033A000C41508958091AC02853031F48091AC024F
:1033B000853019F00E948D1708950E946217809140
:1033C000AA02882399F30E942017882379F30E9488
:1033D000481A0E944806EACF08950E94F0190895FD
:1033E000292F33272330310519F168F421303105B5
:1033F00009F444C02230310509F445C090E080E072
:1034000030E020E025C02132310549F1223231057A
:10341000A9F780E490E02FE433E061157105C1F075
:1034200086EB90E029E932E06130710589F0E6CF62
:1034300099278130910581F0009729F00297F1F6E4
:10344000E4E1F2E002C0E8E4F2E0849190E09F0160
:10345000FA01318320830895E4E3F2E0F6CF89E0B6
:1034600090E02EE532E06115710591F389E090E07E
:1034700027E732E06130710559F3C0CF82E190E077
:1034800027E832E0E5CF8BE390E02CE432E0E0CFB8
:1034900080E189BD82E189BD09B400FEFDCF809144
:1034A000D8008F7D8093D8008091E0008260809367
:1034B000E0008091E00081FDFCCF0895AF92BF92C3
:1034C000CF92DF92FF920F931F93CF93DF936C0104
:1034D000EB018A010E94BD1BF82E811123C001154A
:1034E000110539F0F80180819181C81BD90BC80EF4
:1034F000D91EB12CA12C2097A9F08091E80085FD60
:1035000022C08091E8008E778093E80001151105B4
:10351000A1F0F80180819181A80EB91EB182A0822C
:1035200085E0F82E8F2DDF91CF911F910F91FF90A5
:10353000DF90CF90BF90AF9008950E94BD1B88236D
:10354000D1F2F82EEFCFF60181916F018093F10057
:103550002197FFEFAF1ABF0ACECFFC018091B302D3
:103560009091B40286179707A0F06115710529F4B0
:103570009091E8009E779093E80090E061157105C6
:1035800051F4911108C08091E80082FF34C080E0BE
:103590000895BC01F2CF8091AC028823C1F185303F
:1035A000C1F18091E80083FD30C08091E80082FD88
:1035B000EACF8091E80080FFE1CF8091F300209175
:1035C000F200382F6115710519F02830310558F0D7
:1035D00091E02830310509F090E02091E8002E7745
:1035E0002093E800CBCF81918093F1006150710965
:1035F0002F5F3F4FE7CF8091AC02882341F08530A9
:1036000041F08091E80083FFBECF81E0089582E021
:10361000089583E00895FC018091B3029091B40273
:1036200086179707A0F06115710529F48091E800CD
:103630008E778093E80090E06115710551F4911147
:1036400008C08091E80082FF35C080E00895BC0189
:10365000F2CF8091AC028823C9F18530C9F1809105
:10366000E80083FD31C08091E80082FDEACF8091BF
:10367000E80080FFE1CF8091F3002091F200382F25
:103680006115710519F02830310558F091E02830A6
:10369000310509F090E08091E8008E778093E80092
:1036A000CBCF84918093F1003196615071092F5FE7
:1036B0003F4FE6CF8091AC02882341F0853041F046
:1036C0008091E80083FFBDCF81E0089582E00895F6
:1036D00083E00895982F973028F08F708093E90049
:1036E00081E008959093E900242F762F50E09817F9
:1036F00031F07091EC002091ED005091F00021FD2F
:1037000002C09F5FE8CF3091EB003E7F3093EB002B
:103710003091ED003D7F3093ED003091EB00316052
:103720003093EB007093EC002093ED005093F00089
:103730002091EE0027FDE5CF80E008958091AD0255
:1037400087FF13C08091E80082FF06C08091E800E7
:103750008B778093E80004C08091AC028111F2CF96
:1037600008958091AC028823D9F38091E80080FF0E
:10377000F8CF8091E8008E77ECCF2091E400309173
:10378000E50095E6A9012091EC00822F817020FFD1
:1037900006C08091E80080FF06C080E00895209177
:1037A000E80022FD1AC08091AC02882389F08530A0
:1037B00089F08091EB0085FD0FC02091E4003091ED
:1037C000E50042175307F9F29150E1F684E00895BD
:1037D00082E0089583E0089581E008950E945D1CD1
:1037E0000E94651CE0EEF0E0808181608083E8ED5E
:1037F000F0E080818F77808319BCA7EDB0E08C91D9
:103800008E7F8C9380818F7E80831092AB0208958F
:103810000F931F93CF93DF930E945D1C0E94651C42
:10382000C8EDD0E088818F7788838881806888831D
:1038300088818F7D888319BC1092AC021092A802F7
:103840001092AA021092A90200EE10E0F801808105
:103850008B7F808388818160888342E060E080E0A4
:103860000E946A1BE1EEF0E080818E7F8083E2EEB1
:10387000F0E0808181608083808188608083F801AE
:1038800080818E7F8083888180618883DF91CF9162
:103890001F910F910895E8EDF0E080818F7E808385
:1038A000E7EDF0E080818160808384E082BF81E089
:1038B0008093AB020E94081C0895E8EDF0E080813F
:1038C0008E7F80831092E20008951092DA001092A9
:1038D000E10008951F920F920FB60F9211242F93BB
:1038E0003F934F935F936F937F938F939F93AF9388
:1038F000BF93EF93FF938091E10082FF0BC0809113
:10390000E20082FF07C08091E1008B7F8093E1009D
:103910000E94C91E8091DA0080FF19C08091D800F2
:1039200080FF15C08091DA008E7F8093DA0080914D
:10393000D90080FF96C080E189BD82E189BD09B4CC
:1039400000FEFDCF81E08093AC020E94AF18809111
:10395000E10080FF19C08091E20080FF15C08091D6
:10396000E2008E7F8093E2008091E200806180938C
:10397000E2008091D80080628093D80019BC85E075
:103980008093AC020E94C3188091E10084FF2BC099
:103990008091E20084FF27C080E189BD82E189BD7A
:1039A00089B5982F917080FFFBCF8091D8008F7DD3
:1039B0008093D8008091E1008F7E8093E100809118
:1039C000E2008F7E8093E2008091E200816080932C
:1039D000E2008091A802882309F449C084E0809322
:1039E000AC020E94CC188091E10083FF29C0809135
:1039F000E20083FF25C08091E100877F8093E10092
:103A000082E08093AC021092A8028091E1008E7F48
:103A10008093E1008091E2008E7F8093E2008091AC
:103A2000E20080618093E20042E060E080E00E947A
:103A30006A1B8091F00088608093F0000E94C0189B
:103A4000FF91EF91BF91AF919F918F917F916F9176
:103A50005F914F913F912F910F900FBE0F901F904C
:103A6000189519BC1092AC020E94BD1870CF8091BD
:103A7000E30087FD93E09093AC02B3CF1F920F92C7
:103A80000FB60F9211242F933F934F935F936F9331
:103A90007F938F939F93AF93BF93CF93DF93EF93D6
:103AA000FF93D091E900DF708091EC00C82FC170C6
:103AB00080FDC0E81092E9008091F000877F80933C
:103AC000F00078940E94821D1092E9008091F0002D
:103AD00088608093F000CD2BCF70C093E900FF91F8
:103AE000EF91DF91CF91BF91AF919F918F917F9196
:103AF0006F915F914F913F912F910F900FBE0F905B
:103B00001F901895AAE2B0E0E8E8FDE10C940E1FC2
:103B10008DEA92E02091F100FC012193CF01F2E0C7
:103B2000853B9F07B9F70E94EC188091E80083FF5E
:103B30001EC18091AD029091AE029A3008F017C17B
:103B4000E92FF0E0E955F04E0C94F91E803899F019
:103B5000823809F00CC18091B1028F70873008F073
:103B600006C18093E9008091EB0085FB882780F9EE
:103B70001092E90006C08091A9029091AA029111C9
:103B800082609091E800977F9093E8008093F10025
:103B90001092F1008091E8008E77E5C0882309F447
:103BA000D3C0823009F0E3C08091AF028111D6C04A
:103BB0008091B1028F702FEF280F263008F0D7C008
:103BC0008093E9002091EB0020FFC8C0933031F4CE
:103BD0008091EB0080628093EB00C0C09091EB007D
:103BE00090619093EB0021E030E001C0220F8A95B4
:103BF000EAF72093EA001092EA008091EB008860D7
:103C0000EACF8111B4C01091AF021F778091E30019
:103C10008078812B8093E3008091E800877F8093F8
:103C2000E8000E949E1B8091E80080FFFCCF8091FD
:103C3000E30080688093E30082E0111183E08093C9
:103C4000AC0295C08058823008F091C08091AF02DC
:103C50009091B0028C3D23E09207A1F583E08A8326
:103C60008AE289834FB7F894DE01139620E03EE0A4
:103C700051E2E32FF0E050935700E49120FF03C09E
:103C8000E295EF703F5FEF708E2F90E0EA30C0F06A
:103C9000C7968D939D932F5F243159F74FBF809125
:103CA000E800877F8093E8006AE270E0CE01019629
:103CB0000E94AD1A8091E8008B778093E80057C08E
:103CC000C096E7CF6091B1027091B202AE014F5F32
:103CD0005F4F0E94ED19BC01892B09F448C09091F7
:103CE000E800977F9093E80089819A810E940B1BDE
:103CF000E1CF8038E1F58091E800877F8093E8008C
:103D00008091A8028093F10045CF811130C090913D
:103D1000AF02923060F58091E800877F8093E800E1
:103D20009093A8020E949E1B8091A802882311F004
:103D300084E005C08091E30087FDFACF81E08093A5
:103D4000AC020E94D71813C08091AF02813079F481
:103D500081E0933009F080E08093AA021092E9009C
:103D60008091E800877F8093E8000E949E1B8091ED
:103D7000E80083FF0AC08091E800877F8093E80015
:103D80008091EB0080628093EB00AA96E3E00C94B4
:103D90002A1F0895CF938091AC028823A1F0C0918F
:103DA000E900CF709091EC00892F817090FD80E840
:103DB000C82B1092E9008091E80083FD0E94821DCB
:103DC000CF70C093E900CF91089597FB072E16F4AA
:103DD000009407D077FD09D00E94361F07FC05D05C
:103DE0003EF4909581959F4F0895709561957F4F12
:103DF0000895EE0FFF1F0590F491E02D09942F9286
:103E00003F924F925F926F927F928F929F92AF926A
:103E1000BF92CF92DF92EF92FF920F931F93CF93B7
:103E2000DF93CDB7DEB7CA1BDB0B0FB6F894DEBF4E
:103E30000FBECDBF09942A88398848885F846E8474
:103E40007D848C849B84AA84B984C884DF80EE80BE
:103E5000FD800C811B81AA81B981CE0FD11D0FB6C7
:103E6000F894DEBF0FBECDBFED010895AA1BBB1BAA
:103E700051E107C0AA1FBB1FA617B70710F0A61B6A
:103E8000B70B881F991F5A95A9F780959095BC018B
:103E9000CD010895FB01DC0104C08D9101908019D2
:103EA00021F441505040C8F7881B990B0895F999A7
:103EB000FECF92BD81BDF89A992780B50895A8E1FB
:103EC000B0E042E050E00C948B1F262FF999FECF12
:103ED00092BD81BDF89A019700B4021639F01FBA5D
:103EE00020BD0FB6F894FA9AF99A0FBE089503967A
:103EF000272F0E94661F0E94651F252F0E94661FA4
:103F0000242F0C94661F0196272F0E94661F0C9485
:103F1000651FDC01CB01FC01F999FECF06C0F2BDA3
:103F2000E1BDF89A319600B40D9241505040B8F777
:103F30000895F894FFCF1804180449044904D604DE
:103F4000F20478047804FD04890598059805A61DF7
:103F5000CE1DB71ECE1DB71E011E221EB71E791E16
:023F6000851EBC
:103F62001802280850011E0A140115183A181918C7
:103F7200AA18A518181801E200E900EA00B500B66F
:103F820000B700CD008301CC008A01920194012187
:103F920002230224022502260227022A02B300B4C7
:103FA200006F007000818283E200E900EA00B50040
:103FB200B600B700CD008301CC008A0192019401C2
:103FC2002102230224022502260227022A02B3002A
:103FD200B4006F007000818283909395949697321B
:0A3FE2003130C633373435919200B8
:00000001FF
